{
  "_format": "hh-sol-artifact-1",
  "contractName": "VRFV2PlusClient",
  "sourceName": "@chainlink/contracts/src/v0.8/vrf/dev/libraries/VRFV2PlusClient.sol",
  "abi": [
    {
      "inputs": [],
      "name": "EXTRA_ARGS_V1_TAG",
      "outputs": [
        {
          "internalType": "bytes4",
          "name": "",
          "type": "bytes4"
        }
      ],
      "stateMutability": "view",
      "type": "function"
    }
  ],
  "bytecode": "0x60b1610038600b82828239805160001a607314602b57634e487b7160e01b600052600060045260246000fd5b30600052607381538281f3fe730000000000000000000000000000000000000000301460806040526004361060335760003560e01c8063f7514ab4146038575b600080fd5b605e7f92fd13387c7fe7befbc38d303d6468778fb9731bc4583f17d92989c6fcfdeaaa81565b6040516001600160e01b0319909116815260200160405180910390f3fea26469706673582212208bc71d1494bf5266e1dc1f9e80ea544b245dbdfad0b22214e61b053436e6e6e964736f6c63430008180033",
  "linkReferences": {},
  "deployedLinkReferences": {}
}