{"contracts/CaseSale.sol":{"CaseSale":{"abi":[{"inputs":[{"internalType":"address","name":"usdcAddress","type":"address"},{"internalType":"address","name":"cbBtcAddress","type":"address"},{"internalType":"address","name":"btcUsdFeedAddress","type":"address"},{"internalType":"address","name":"treasuryAddress","type":"address"}],"stateMutability":"nonpayable","type":"constructor"},{"inputs":[{"internalType":"address","name":"owner","type":"address"}],"name":"OwnableInvalidOwner","type":"error"},{"inputs":[{"internalType":"address","name":"account","type":"address"}],"name":"OwnableUnauthorizedAccount","type":"error"},{"inputs":[],"name":"ReentrancyGuardReentrantCall","type":"error"},{"inputs":[{"internalType":"address","name":"token","type":"address"}],"name":"SafeERC20FailedOperation","type":"error"},{"anonymous":false,"inputs":[{"indexed":true,"internalType":"uint256","name":"openingId","type":"uint256"},{"indexed":true,"internalType":"address","name":"buyer","type":"address"},{"indexed":false,"internalType":"uint256","name":"rewardAmount","type":"uint256"}],"name":"CaseClaimed","type":"event"},{"anonymous":false,"inputs":[{"indexed":true,"internalType":"address","name":"buyer","type":"address"},{"indexed":true,"internalType":"uint256","name":"caseTypeId","type":"uint256"},{"indexed":true,"internalType":"uint256","name":"openingId","type":"uint256"},{"indexed":false,"internalType":"uint256","name":"priceUSDC","type":"uint256"}],"name":"CasePurchased","type":"event"},{"anonymous":false,"inputs":[{"indexed":true,"internalType":"uint256","name":"openingId","type":"uint256"},{"indexed":false,"internalType":"uint256","name":"rewardAmount","type":"uint256"}],"name":"CaseRewarded","type":"event"},{"anonymous":false,"inputs":[{"indexed":true,"internalType":"uint256","name":"caseTypeId","type":"uint256"},{"indexed":false,"internalType":"uint256","name":"priceUSDC","type":"uint256"},{"indexed":false,"internalType":"uint256","name":"minRewardUsd","type":"uint256"},{"indexed":false,"internalType":"uint256","name":"maxRewardUsd","type":"uint256"},{"indexed":false,"internalType":"uint16","name":"positiveReturnBps","type":"uint16"},{"indexed":false,"internalType":"bool","name":"enabled","type":"bool"}],"name":"CaseTypeUpdated","type":"event"},{"anonymous":false,"inputs":[{"indexed":true,"internalType":"address","name":"token","type":"address"},{"indexed":true,"internalType":"address","name":"to","type":"address"},{"indexed":false,"internalType":"uint256","name":"amount","type":"uint256"}],"name":"EmergencyWithdraw","type":"event"},{"anonymous":false,"inputs":[{"indexed":false,"internalType":"uint256","name":"maxPriceAge","type":"uint256"}],"name":"MaxPriceAgeUpdated","type":"event"},{"anonymous":false,"inputs":[{"indexed":true,"internalType":"address","name":"previousOwner","type":"address"},{"indexed":true,"internalType":"address","name":"newOwner","type":"address"}],"name":"OwnershipTransferred","type":"event"},{"anonymous":false,"inputs":[{"indexed":true,"internalType":"address","name":"treasury","type":"address"}],"name":"TreasuryUpdated","type":"event"},{"inputs":[],"name":"CBBTC_SCALE","outputs":[{"internalType":"uint256","name":"","type":"uint256"}],"stateMutability":"view","type":"function"},{"inputs":[],"name":"USD_SCALE","outputs":[{"internalType":"uint256","name":"","type":"uint256"}],"stateMutability":"view","type":"function"},{"inputs":[{"internalType":"uint256","name":"caseTypeId","type":"uint256"}],"name":"availableCases","outputs":[{"internalType":"uint256","name":"","type":"uint256"}],"stateMutability":"view","type":"function"},{"inputs":[],"name":"btcUsdDecimals","outputs":[{"internalType":"uint8","name":"","type":"uint8"}],"stateMutability":"view","type":"function"},{"inputs":[],"name":"btcUsdFeed","outputs":[{"internalType":"contract AggregatorV3Interface","name":"","type":"address"}],"stateMutability":"view","type":"function"},{"inputs":[],"name":"btcUsdScale","outputs":[{"internalType":"uint256","name":"","type":"uint256"}],"stateMutability":"view","type":"function"},{"inputs":[{"internalType":"uint256","name":"","type":"uint256"}],"name":"caseTypes","outputs":[{"internalType":"uint256","name":"priceUSDC","type":"uint256"},{"internalType":"uint256","name":"minRewardUsd","type":"uint256"},{"internalType":"uint256","name":"maxRewardUsd","type":"uint256"},{"internalType":"uint16","name":"positiveReturnBps","type":"uint16"},{"internalType":"bool","name":"enabled","type":"bool"}],"stateMutability":"view","type":"function"},{"inputs":[],"name":"cbBtc","outputs":[{"internalType":"contract IERC20","name":"","type":"address"}],"stateMutability":"view","type":"function"},{"inputs":[{"internalType":"uint256","name":"openingId","type":"uint256"}],"name":"claimReward","outputs":[],"stateMutability":"nonpayable","type":"function"},{"inputs":[{"internalType":"address","name":"token","type":"address"},{"internalType":"address","name":"to","type":"address"},{"internalType":"uint256","name":"amount","type":"uint256"}],"name":"emergencyWithdraw","outputs":[],"stateMutability":"nonpayable","type":"function"},{"inputs":[{"internalType":"uint256","name":"openingId","type":"uint256"}],"name":"getOpening","outputs":[{"components":[{"internalType":"address","name":"buyer","type":"address"},{"internalType":"uint256","name":"caseTypeId","type":"uint256"},{"internalType":"uint256","name":"rewardAmount","type":"uint256"},{"internalType":"uint256","name":"reservedAmount","type":"uint256"},{"internalType":"uint256","name":"btcUsdPrice","type":"uint256"},{"internalType":"bool","name":"rewarded","type":"bool"},{"internalType":"bool","name":"claimed","type":"bool"}],"internalType":"struct CaseSale.Opening","name":"","type":"tuple"}],"stateMutability":"view","type":"function"},{"inputs":[],"name":"maxPriceAge","outputs":[{"internalType":"uint256","name":"","type":"uint256"}],"stateMutability":"view","type":"function"},{"inputs":[],"name":"nextOpeningId","outputs":[{"internalType":"uint256","name":"","type":"uint256"}],"stateMutability":"view","type":"function"},{"inputs":[{"internalType":"uint256","name":"","type":"uint256"}],"name":"openings","outputs":[{"internalType":"address","name":"buyer","type":"address"},{"internalType":"uint256","name":"caseTypeId","type":"uint256"},{"internalType":"uint256","name":"rewardAmount","type":"uint256"},{"internalType":"uint256","name":"reservedAmount","type":"uint256"},{"internalType":"uint256","name":"btcUsdPrice","type":"uint256"},{"internalType":"bool","name":"rewarded","type":"bool"},{"internalType":"bool","name":"claimed","type":"bool"}],"stateMutability":"view","type":"function"},{"inputs":[],"name":"owner","outputs":[{"internalType":"address","name":"","type":"address"}],"stateMutability":"view","type":"function"},{"inputs":[{"internalType":"uint256","name":"caseTypeId","type":"uint256"}],"name":"purchaseCase","outputs":[{"internalType":"uint256","name":"openingId","type":"uint256"}],"stateMutability":"nonpayable","type":"function"},{"inputs":[],"name":"renounceOwnership","outputs":[],"stateMutability":"nonpayable","type":"function"},{"inputs":[],"name":"reservedReward","outputs":[{"internalType":"uint256","name":"","type":"uint256"}],"stateMutability":"view","type":"function"},{"inputs":[{"internalType":"uint256","name":"caseTypeId","type":"uint256"},{"internalType":"uint256","name":"priceUSDC","type":"uint256"},{"internalType":"uint256","name":"minRewardUsd","type":"uint256"},{"internalType":"uint256","name":"maxRewardUsd","type":"uint256"},{"internalType":"uint16","name":"positiveReturnBps","type":"uint16"},{"internalType":"bool","name":"enabled","type":"bool"}],"name":"setCaseType","outputs":[],"stateMutability":"nonpayable","type":"function"},{"inputs":[{"internalType":"uint256","name":"newMaxPriceAge","type":"uint256"}],"name":"setMaxPriceAge","outputs":[],"stateMutability":"nonpayable","type":"function"},{"inputs":[{"internalType":"address","name":"newTreasury","type":"address"}],"name":"setTreasury","outputs":[],"stateMutability":"nonpayable","type":"function"},{"inputs":[{"internalType":"address","name":"newOwner","type":"address"}],"name":"transferOwnership","outputs":[],"stateMutability":"nonpayable","type":"function"},{"inputs":[],"name":"treasury","outputs":[{"internalType":"address","name":"","type":"address"}],"stateMutability":"view","type":"function"},{"inputs":[],"name":"usdc","outputs":[{"internalType":"contract IERC20","name":"","type":"address"}],"stateMutability":"view","type":"function"}],"evm":{"bytecode":{"linkReferences":{},"object":"6101206040523480156200001257600080fd5b506040516200204038038062002040833981016040819052620000359162000303565b600160005533806200006257604051631e4fbdf760e01b8152600060048201526024015b60405180910390fd5b6200006d8162000294565b506001600160a01b038416620000c65760405162461bcd60e51b815260206004820152601560248201527f5553444320616464726573732072657175697265640000000000000000000000604482015260640162000059565b6001600160a01b0383166200011e5760405162461bcd60e51b815260206004820152601660248201527f6362425443206164647265737320726571756972656400000000000000000000604482015260640162000059565b6001600160a01b038216620001765760405162461bcd60e51b815260206004820152601560248201527f4254432f55534420666565642072657175697265640000000000000000000000604482015260640162000059565b6001600160a01b038116620001ce5760405162461bcd60e51b815260206004820152601960248201527f5472656173757279206164647265737320726571756972656400000000000000604482015260640162000059565b6001600160a01b0380851660805283811660a052821660c08190526040805163313ce56760e01b8152905163313ce567916004808201926020929091908290030181865afa15801562000225573d6000803e3d6000fd5b505050506040513d601f19601f820116820180604052508101906200024b919062000360565b60ff1660e08190526200026090600a620004a1565b61010052600280546001600160a01b0319166001600160a01b039290921691909117905550506201518060055550620004b2565b600180546001600160a01b038381166001600160a01b0319831681179093556040519116919082907f8be0079c531659141344cd1fd0a4f28419497f9722a3daafe3b4186f6b6457e090600090a35050565b80516001600160a01b0381168114620002fe57600080fd5b919050565b600080600080608085870312156200031a57600080fd5b6200032585620002e6565b93506200033560208601620002e6565b92506200034560408601620002e6565b91506200035560608601620002e6565b905092959194509250565b6000602082840312156200037357600080fd5b815160ff811681146200038557600080fd5b9392505050565b634e487b7160e01b600052601160045260246000fd5b600181815b80851115620003e3578160001904821115620003c757620003c76200038c565b80851615620003d557918102915b93841c9390800290620003a7565b509250929050565b600082620003fc575060016200049b565b816200040b575060006200049b565b81600181146200042457600281146200042f576200044f565b60019150506200049b565b60ff8411156200044357620004436200038c565b50506001821b6200049b565b5060208310610133831016604e8410600b841016171562000474575081810a6200049b565b620004808383620003a2565b80600019048211156200049757620004976200038c565b0290505b92915050565b60006200038560ff841683620003eb565b60805160a05160c05160e05161010051611b1f620005216000396000818161017e0152611488015260006102ca01526000818161035001526112da01526000818161048001528181610879015281816109af0152610baf0152600081816101a50152610cc60152611b1f6000f3fe608060405234801561001057600080fd5b50600436106101585760003560e01c8063af42d5f0116100c3578063e5849a9f1161007c578063e5849a9f146103f6578063e63ea40814610468578063ecf3a80e1461047b578063f0f44260146104a2578063f2fde38b146104b5578063f96d0baa146104c857600080fd5b8063af42d5f014610324578063bfc9b2791461032d578063d037005f14610338578063d310d14d1461034b578063dbe07bb914610372578063e3f96d7c1461038557600080fd5b806375e20f291161011557806375e20f291461020f578063767e9198146102ab5780638da5cb5b146102b45780639d55ffb5146102c5578063a839a37c146102fe578063ae169a501461031157600080fd5b80631584410a1461015d5780632ef31ea4146101795780633e413bee146101a057806356447ce8146101df57806361d027b3146101f4578063715018a614610207575b600080fd5b61016660055481565b6040519081526020015b60405180910390f35b6101667f000000000000000000000000000000000000000000000000000000000000000081565b6101c77f000000000000000000000000000000000000000000000000000000000000000081565b6040516001600160a01b039091168152602001610170565b6101f26101ed3660046118c4565b6104d2565b005b6002546101c7906001600160a01b031681565b6101f261055d565b61026861021d3660046118c4565b6007602052600090815260409020805460018201546002830154600384015460048501546005909501546001600160a01b039094169492939192909160ff8082169161010090041687565b604080516001600160a01b03909816885260208801969096529486019390935260608501919091526080840152151560a0830152151560c082015260e001610170565b61016660035481565b6001546001600160a01b03166101c7565b6102ec7f000000000000000000000000000000000000000000000000000000000000000081565b60405160ff9091168152602001610170565b6101f261030c3660046118dd565b610571565b6101f261031f3660046118c4565b610739565b61016660045481565b6101666305f5e10081565b6101666103463660046118c4565b6108f7565b6101c77f000000000000000000000000000000000000000000000000000000000000000081565b6101666103803660046118c4565b610a5c565b6103986103933660046118c4565b610e2d565b604051610170919081516001600160a01b031681526020808301519082015260408083015190820152606080830151908201526080808301519082015260a08281015115159082015260c09182015115159181019190915260e00190565b61043a6104043660046118c4565b60066020526000908152604090208054600182015460028301546003909301549192909161ffff81169062010000900460ff1685565b6040805195865260208601949094529284019190915261ffff1660608301521515608082015260a001610170565b6101f261047636600461195e565b610ef1565b6101c77f000000000000000000000000000000000000000000000000000000000000000081565b6101f26104b036600461199a565b6110e0565b6101f26104c336600461199a565b611188565b610166620f424081565b6104da6111c3565b600081116105225760405162461bcd60e51b815260206004820152601060248201526f13585e081859d9481c995c5d5a5c995960821b60448201526064015b60405180910390fd5b60058190556040518181527fb1740bfafb685e9cda34b9238959b40d11f603ba6db685c0468d4804140547b49060200160405180910390a150565b6105656111c3565b61056f60006111f0565b565b6105796111c3565b838310156105c05760405162461bcd60e51b8152602060048201526014602482015273496e76616c6964207265776172642072616e676560601b6044820152606401610519565b8385101580156105d05750828511155b6106125760405162461bcd60e51b81526020600482015260136024820152725072696365206f7574736964652072616e676560681b6044820152606401610519565b6127108261ffff1611156106565760405162461bcd60e51b815260206004820152600b60248201526a496e76616c69642042505360a81b6044820152606401610519565b6040805160a081018252868152602080820187815282840187815261ffff808816606086019081528715156080870190815260008e815260069096529487902095518655925160018601559051600285015590516003909301805492511515620100000262ffffff1990931693909116929092171790555186907fe7dfe3c084fa4f22acb02fd9a17bc032556708e078e8f1adf50488f30fea7c049061072990889088908890889088909485526020850193909352604084019190915261ffff1660608301521515608082015260a00190565b60405180910390a2505050505050565b610741611242565b600081815260076020526040902080546001600160a01b031633146107955760405162461bcd60e51b815260206004820152600a6024820152692737ba1037b832b732b960b11b6044820152606401610519565b600581015460ff166107dc5760405162461bcd60e51b815260206004820152601060248201526f526577617264206e6f7420726561647960801b6044820152606401610519565b6005810154610100900460ff16156108285760405162461bcd60e51b815260206004820152600f60248201526e105b1c9958591e4818db185a5b5959608a1b6044820152606401610519565b60058101805461ff0019166101001790556003810154156108665780600301546004600082825461085991906119d2565b9091555050600060038201555b60028101546108a1906001600160a01b037f00000000000000000000000000000000000000000000000000000000000000001690339061126c565b336001600160a01b0316827fac4599846a321cd0603bcfdef5b7b20c1464b6e577379378c9f738ef3b0d19fb83600201546040516108e191815260200190565b60405180910390a3506108f46001600055565b50565b6000818152600660209081526040808320815160a081018352815481526001820154938101939093526002810154918301919091526003015461ffff8116606083015262010000900460ff1615801560808301528061095857506040810151155b156109665750600092915050565b60006109706112d0565b90506000610982836040015183611483565b90508060000361099757506000949350505050565b6040516370a0823160e01b81523060048201526000907f00000000000000000000000000000000000000000000000000000000000000006001600160a01b0316906370a0823190602401602060405180830381865afa1580156109fe573d6000803e3d6000fd5b505050506040513d601f19601f82011682018060405250810190610a2291906119e5565b90506004548111610a395750600095945050505050565b8160045482610a4891906119d2565b610a529190611a14565b9695505050505050565b6000610a66611242565b600082815260066020908152604091829020825160a0810184528154815260018201549281019290925260028101549282019290925260039091015461ffff8116606083015262010000900460ff16151560808201819052610afa5760405162461bcd60e51b815260206004820152600d60248201526c10d85cd948191a5cd8589b1959609a1b6044820152606401610519565b8051610b395760405162461bcd60e51b815260206004820152600e60248201526d10d85cd9481b9bdd08199bdd5b9960921b6044820152606401610519565b6000610b436112d0565b90506000610b55836040015183611483565b905060008111610b975760405162461bcd60e51b815260206004820152600d60248201526c507269636520746f6f206c6f7760981b6044820152606401610519565b6040516370a0823160e01b81523060048201526000907f00000000000000000000000000000000000000000000000000000000000000006001600160a01b0316906370a0823190602401602060405180830381865afa158015610bfe573d6000803e3d6000fd5b505050506040513d601f19601f82011682018060405250810190610c2291906119e5565b90506004548111610c605760405162461bcd60e51b815260206004820152600860248201526714dbdb19081bdd5d60c21b6044820152606401610519565b60008260045483610c7191906119d2565b610c7b9190611a14565b11610cb35760405162461bcd60e51b815260206004820152600860248201526714dbdb19081bdd5d60c21b6044820152606401610519565b6002548451610cf4916001600160a01b037f0000000000000000000000000000000000000000000000000000000000000000811692339291909116906114e3565b600360008154610d0390611a28565b91905081905594508160046000828254610d1d9190611a41565b90915550506040805160e0810182523381526020808201898152600083850181815260608501888152608086018a815260a0870184815260c088018581528e86526007909752978420965187546001600160a01b0319166001600160a01b03909116178755935160018701559051600286015551600385015590516004840155925160059092018054915161ffff1990921692151561ff0019169290921761010091151591909102179055610dd28688611522565b9050610dde8682611595565b84516040519081528690889033907ff7a35f1b41370902294f55466fe05b5ebc1803195a160f64a579b0c0e86a0b0c9060200160405180910390a45050505050610e286001600055565b919050565b610e7a6040518060e0016040528060006001600160a01b03168152602001600081526020016000815260200160008152602001600081526020016000151581526020016000151581525090565b50600090815260076020908152604091829020825160e08101845281546001600160a01b03168152600182015492810192909252600281015492820192909252600382015460608201526004820154608082015260059091015460ff808216151560a084015261010090910416151560c082015290565b610ef96111c3565b6001600160a01b038316610f405760405162461bcd60e51b815260206004820152600e60248201526d151bdad95b881c995c5d5a5c995960921b6044820152606401610519565b60006001600160a01b03831615610f575782610f64565b6002546001600160a01b03165b90506001600160a01b038116610fb15760405162461bcd60e51b8152602060048201526012602482015271149958da5c1a595b9d081c995c5d5a5c995960721b6044820152606401610519565b6040516370a0823160e01b81523060048201526000906001600160a01b038616906370a0823190602401602060405180830381865afa158015610ff8573d6000803e3d6000fd5b505050506040513d601f19601f8201168201806040525081019061101c91906119e5565b90506000831561102c578361102e565b815b9050818111156110775760405162461bcd60e51b8152602060048201526014602482015273496e73756666696369656e742062616c616e636560601b6044820152606401610519565b61108b6001600160a01b038716848361126c565b826001600160a01b0316866001600160a01b03167ff24ef89f38eadc1bde50701ad6e4d6d11a2dc24f7cf834a486991f3883328504836040516110d091815260200190565b60405180910390a3505050505050565b6110e86111c3565b6001600160a01b03811661113e5760405162461bcd60e51b815260206004820152601960248201527f54726561737572792061646472657373207265717569726564000000000000006044820152606401610519565b600280546001600160a01b0319166001600160a01b0383169081179091556040517f7dae230f18360d76a040c81f050aa14eb9d6dc7901b20fc5d855e2a20fe814d190600090a250565b6111906111c3565b6001600160a01b0381166111ba57604051631e4fbdf760e01b815260006004820152602401610519565b6108f4816111f0565b6001546001600160a01b0316331461056f5760405163118cdaa760e01b8152336004820152602401610519565b600180546001600160a01b038381166001600160a01b0319831681179093556040519116919082907f8be0079c531659141344cd1fd0a4f28419497f9722a3daafe3b4186f6b6457e090600090a35050565b60026000540361126557604051633ee5aeb560e01b815260040160405180910390fd5b6002600055565b6040516001600160a01b038381166024830152604482018390526112cb91859182169063a9059cbb906064015b604051602081830303815290604052915060e01b6020820180516001600160e01b0383818316178352505050506117d3565b505050565b60008060008060007f00000000000000000000000000000000000000000000000000000000000000006001600160a01b031663feaf968c6040518163ffffffff1660e01b815260040160a060405180830381865afa158015611336573d6000803e3d6000fd5b505050506040513d601f19601f8201168201806040525081019061135a9190611a6e565b9450945050935093506000831361139f5760405162461bcd60e51b815260206004820152600960248201526842616420707269636560b81b6044820152606401610519565b816000036113db5760405162461bcd60e51b815260206004820152600960248201526842616420707269636560b81b6044820152606401610519565b8369ffffffffffffffffffff168169ffffffffffffffffffff1610156114315760405162461bcd60e51b815260206004820152600b60248201526a5374616c6520707269636560a81b6044820152606401610519565b60055461143e83426119d2565b111561147a5760405162461bcd60e51b815260206004820152600b60248201526a5374616c6520707269636560a81b6044820152606401610519565b50909392505050565b6000807f00000000000000000000000000000000000000000000000000000000000000006114b56305f5e10086611abe565b6114bf9190611abe565b9050620f42406114cf8483611a14565b6114d99190611a14565b9150505b92915050565b6040516001600160a01b03848116602483015283811660448301526064820183905261151c9186918216906323b872dd90608401611299565b50505050565b6000446115306001436119d2565b6040805160208101939093529040908201526bffffffffffffffffffffffff1933606090811b821681840152607483018690526094830185905230901b1660b482015260c80160408051601f1981840301815291905280516020909101209392505050565b600082815260076020526040902080546001600160a01b03166115ee5760405162461bcd60e51b815260206004820152601160248201527013dc195b9a5b99c81b9bdd08199bdd5b99607a1b6044820152606401610519565b600581015460ff16156116365760405162461bcd60e51b815260206004820152601060248201526f105b1c9958591e481c995dd85c99195960821b6044820152606401610519565b6001818101546000908152600660209081526040808320815160a0810183528154815294810154928501929092526002820154908401526003015461ffff8116606084018190526201000090910460ff16151560808401521561172d5760006116a161271086611ad5565b9050600085876040516020016116c1929190918252602082015260400190565b6040516020818303038152906040528051906020012060001c9050836060015161ffff1682101561170b5761170481856000015186604001518860040154611844565b9250611726565b61172381856020015186600001518860040154611844565b92505b5050611748565b61174584836020015184604001518660040154611844565b90505b60038301541561177a5780836003015460045461176591906119d2565b61176f9190611a41565b600455600383018190555b6002830181905560058301805460ff1916600117905560405185907f7e7f66c93444aa5fa7f1f6b2cec13935e33053c433ed4fa5a3070b4db947ba5f906117c49084815260200190565b60405180910390a25050505050565b600080602060008451602086016000885af1806117f6576040513d6000823e3d81fd5b50506000513d9150811561180e57806001141561181b565b6001600160a01b0384163b155b1561151c57604051635274afe760e01b81526001600160a01b0385166004820152602401610519565b600083831161185e576118578483611483565b90506118bc565b600061186a8584611483565b905060006118788585611483565b9050818111611889575090506118bc565b600061189583836119d2565b6118a0906001611a41565b90506118ac8189611ad5565b6118b69084611a41565b93505050505b949350505050565b6000602082840312156118d657600080fd5b5035919050565b60008060008060008060c087890312156118f657600080fd5b86359550602087013594506040870135935060608701359250608087013561ffff8116811461192457600080fd5b915060a0870135801515811461193957600080fd5b809150509295509295509295565b80356001600160a01b0381168114610e2857600080fd5b60008060006060848603121561197357600080fd5b61197c84611947565b925061198a60208501611947565b9150604084013590509250925092565b6000602082840312156119ac57600080fd5b6119b582611947565b9392505050565b634e487b7160e01b600052601160045260246000fd5b818103818111156114dd576114dd6119bc565b6000602082840312156119f757600080fd5b5051919050565b634e487b7160e01b600052601260045260246000fd5b600082611a2357611a236119fe565b500490565b600060018201611a3a57611a3a6119bc565b5060010190565b808201808211156114dd576114dd6119bc565b805169ffffffffffffffffffff81168114610e2857600080fd5b600080600080600060a08688031215611a8657600080fd5b611a8f86611a54565b9450602086015193506040860151925060608601519150611ab260808701611a54565b90509295509295909350565b80820281158282048414176114dd576114dd6119bc565b600082611ae457611ae46119fe565b50069056fea2646970667358221220b11aa9349e84a7f8bf7d458b639954cd16bf8ac7924a006f75a5e1cc96990f9064736f6c63430008180033","opcodes":"PUSH2 0x120 PUSH1 0x40 MSTORE CALLVALUE DUP1 ISZERO PUSH3 0x12 JUMPI PUSH1 0x0 DUP1 REVERT JUMPDEST POP PUSH1 0x40 MLOAD PUSH3 0x2040 CODESIZE SUB DUP1 PUSH3 0x2040 DUP4 CODECOPY DUP2 ADD PUSH1 0x40 DUP2 SWAP1 MSTORE PUSH3 0x35 SWAP2 PUSH3 0x303 JUMP JUMPDEST PUSH1 0x1 PUSH1 0x0 SSTORE CALLER DUP1 PUSH3 0x62 JUMPI PUSH1 0x40 MLOAD PUSH4 0x1E4FBDF7 PUSH1 0xE0 SHL DUP2 MSTORE PUSH1 0x0 PUSH1 0x4 DUP3 ADD MSTORE PUSH1 0x24 ADD JUMPDEST PUSH1 0x40 MLOAD DUP1 SWAP2 SUB SWAP1 REVERT JUMPDEST PUSH3 0x6D DUP2 PUSH3 0x294 JUMP JUMPDEST POP PUSH1 0x1 PUSH1 0x1 PUSH1 0xA0 SHL SUB DUP5 AND PUSH3 0xC6 JUMPI PUSH1 0x40 MLOAD PUSH3 0x461BCD PUSH1 0xE5 SHL DUP2 MSTORE PUSH1 0x20 PUSH1 0x4 DUP3 ADD MSTORE PUSH1 0x15 PUSH1 0x24 DUP3 ADD MSTORE PUSH32 0x5553444320616464726573732072657175697265640000000000000000000000 PUSH1 0x44 DUP3 ADD MSTORE PUSH1 0x64 ADD PUSH3 0x59 JUMP JUMPDEST PUSH1 0x1 PUSH1 0x1 PUSH1 0xA0 SHL SUB DUP4 AND PUSH3 0x11E JUMPI PUSH1 0x40 MLOAD PUSH3 0x461BCD PUSH1 0xE5 SHL DUP2 MSTORE PUSH1 0x20 PUSH1 0x4 DUP3 ADD MSTORE PUSH1 0x16 PUSH1 0x24 DUP3 ADD MSTORE PUSH32 0x6362425443206164647265737320726571756972656400000000000000000000 PUSH1 0x44 DUP3 ADD MSTORE PUSH1 0x64 ADD PUSH3 0x59 JUMP JUMPDEST PUSH1 0x1 PUSH1 0x1 PUSH1 0xA0 SHL SUB DUP3 AND PUSH3 0x176 JUMPI PUSH1 0x40 MLOAD PUSH3 0x461BCD PUSH1 0xE5 SHL DUP2 MSTORE PUSH1 0x20 PUSH1 0x4 DUP3 ADD MSTORE PUSH1 0x15 PUSH1 0x24 DUP3 ADD MSTORE PUSH32 0x4254432F55534420666565642072657175697265640000000000000000000000 PUSH1 0x44 DUP3 ADD MSTORE PUSH1 0x64 ADD PUSH3 0x59 JUMP JUMPDEST PUSH1 0x1 PUSH1 0x1 PUSH1 0xA0 SHL SUB DUP2 AND PUSH3 0x1CE JUMPI PUSH1 0x40 MLOAD PUSH3 0x461BCD PUSH1 0xE5 SHL DUP2 MSTORE PUSH1 0x20 PUSH1 0x4 DUP3 ADD MSTORE PUSH1 0x19 PUSH1 0x24 DUP3 ADD MSTORE PUSH32 0x5472656173757279206164647265737320726571756972656400000000000000 PUSH1 0x44 DUP3 ADD MSTORE PUSH1 0x64 ADD PUSH3 0x59 JUMP JUMPDEST PUSH1 0x1 PUSH1 0x1 PUSH1 0xA0 SHL SUB DUP1 DUP6 AND PUSH1 0x80 MSTORE DUP4 DUP2 AND PUSH1 0xA0 MSTORE DUP3 AND PUSH1 0xC0 DUP2 SWAP1 MSTORE PUSH1 0x40 DUP1 MLOAD PUSH4 0x313CE567 PUSH1 0xE0 SHL DUP2 MSTORE SWAP1 MLOAD PUSH4 0x313CE567 SWAP2 PUSH1 0x4 DUP1 DUP3 ADD SWAP3 PUSH1 0x20 SWAP3 SWAP1 SWAP2 SWAP1 DUP3 SWAP1 SUB ADD DUP2 DUP7 GAS STATICCALL ISZERO DUP1 ISZERO PUSH3 0x225 JUMPI RETURNDATASIZE PUSH1 0x0 DUP1 RETURNDATACOPY RETURNDATASIZE PUSH1 0x0 REVERT JUMPDEST POP POP POP POP PUSH1 0x40 MLOAD RETURNDATASIZE PUSH1 0x1F NOT PUSH1 0x1F DUP3 ADD AND DUP3 ADD DUP1 PUSH1 0x40 MSTORE POP DUP2 ADD SWAP1 PUSH3 0x24B SWAP2 SWAP1 PUSH3 0x360 JUMP JUMPDEST PUSH1 0xFF AND PUSH1 0xE0 DUP2 SWAP1 MSTORE PUSH3 0x260 SWAP1 PUSH1 0xA PUSH3 0x4A1 JUMP JUMPDEST PUSH2 0x100 MSTORE PUSH1 0x2 DUP1 SLOAD PUSH1 0x1 PUSH1 0x1 PUSH1 0xA0 SHL SUB NOT AND PUSH1 0x1 PUSH1 0x1 PUSH1 0xA0 SHL SUB SWAP3 SWAP1 SWAP3 AND SWAP2 SWAP1 SWAP2 OR SWAP1 SSTORE POP POP PUSH3 0x15180 PUSH1 0x5 SSTORE POP PUSH3 0x4B2 JUMP JUMPDEST PUSH1 0x1 DUP1 SLOAD PUSH1 0x1 PUSH1 0x1 PUSH1 0xA0 SHL SUB DUP4 DUP2 AND PUSH1 0x1 PUSH1 0x1 PUSH1 0xA0 SHL SUB NOT DUP4 AND DUP2 OR SWAP1 SWAP4 SSTORE PUSH1 0x40 MLOAD SWAP2 AND SWAP2 SWAP1 DUP3 SWAP1 PUSH32 0x8BE0079C531659141344CD1FD0A4F28419497F9722A3DAAFE3B4186F6B6457E0 SWAP1 PUSH1 0x0 SWAP1 LOG3 POP POP JUMP JUMPDEST DUP1 MLOAD PUSH1 0x1 PUSH1 0x1 PUSH1 0xA0 SHL SUB DUP2 AND DUP2 EQ PUSH3 0x2FE JUMPI PUSH1 0x0 DUP1 REVERT JUMPDEST SWAP2 SWAP1 POP JUMP JUMPDEST PUSH1 0x0 DUP1 PUSH1 0x0 DUP1 PUSH1 0x80 DUP6 DUP8 SUB SLT ISZERO PUSH3 0x31A JUMPI PUSH1 0x0 DUP1 REVERT JUMPDEST PUSH3 0x325 DUP6 PUSH3 0x2E6 JUMP JUMPDEST SWAP4 POP PUSH3 0x335 PUSH1 0x20 DUP7 ADD PUSH3 0x2E6 JUMP JUMPDEST SWAP3 POP PUSH3 0x345 PUSH1 0x40 DUP7 ADD PUSH3 0x2E6 JUMP JUMPDEST SWAP2 POP PUSH3 0x355 PUSH1 0x60 DUP7 ADD PUSH3 0x2E6 JUMP JUMPDEST SWAP1 POP SWAP3 SWAP6 SWAP2 SWAP5 POP SWAP3 POP JUMP JUMPDEST PUSH1 0x0 PUSH1 0x20 DUP3 DUP5 SUB SLT ISZERO PUSH3 0x373 JUMPI PUSH1 0x0 DUP1 REVERT JUMPDEST DUP2 MLOAD PUSH1 0xFF DUP2 AND DUP2 EQ PUSH3 0x385 JUMPI PUSH1 0x0 DUP1 REVERT JUMPDEST SWAP4 SWAP3 POP POP POP JUMP JUMPDEST PUSH4 0x4E487B71 PUSH1 0xE0 SHL PUSH1 0x0 MSTORE PUSH1 0x11 PUSH1 0x4 MSTORE PUSH1 0x24 PUSH1 0x0 REVERT JUMPDEST PUSH1 0x1 DUP2 DUP2 JUMPDEST DUP1 DUP6 GT ISZERO PUSH3 0x3E3 JUMPI DUP2 PUSH1 0x0 NOT DIV DUP3 GT ISZERO PUSH3 0x3C7 JUMPI PUSH3 0x3C7 PUSH3 0x38C JUMP JUMPDEST DUP1 DUP6 AND ISZERO PUSH3 0x3D5 JUMPI SWAP2 DUP2 MUL SWAP2 JUMPDEST SWAP4 DUP5 SHR SWAP4 SWAP1 DUP1 MUL SWAP1 PUSH3 0x3A7 JUMP JUMPDEST POP SWAP3 POP SWAP3 SWAP1 POP JUMP JUMPDEST PUSH1 0x0 DUP3 PUSH3 0x3FC JUMPI POP PUSH1 0x1 PUSH3 0x49B JUMP JUMPDEST DUP2 PUSH3 0x40B JUMPI POP PUSH1 0x0 PUSH3 0x49B JUMP JUMPDEST DUP2 PUSH1 0x1 DUP2 EQ PUSH3 0x424 JUMPI PUSH1 0x2 DUP2 EQ PUSH3 0x42F JUMPI PUSH3 0x44F JUMP JUMPDEST PUSH1 0x1 SWAP2 POP POP PUSH3 0x49B JUMP JUMPDEST PUSH1 0xFF DUP5 GT ISZERO PUSH3 0x443 JUMPI PUSH3 0x443 PUSH3 0x38C JUMP JUMPDEST POP POP PUSH1 0x1 DUP3 SHL PUSH3 0x49B JUMP JUMPDEST POP PUSH1 0x20 DUP4 LT PUSH2 0x133 DUP4 LT AND PUSH1 0x4E DUP5 LT PUSH1 0xB DUP5 LT AND OR ISZERO PUSH3 0x474 JUMPI POP DUP2 DUP2 EXP PUSH3 0x49B JUMP JUMPDEST PUSH3 0x480 DUP4 DUP4 PUSH3 0x3A2 JUMP JUMPDEST DUP1 PUSH1 0x0 NOT DIV DUP3 GT ISZERO PUSH3 0x497 JUMPI PUSH3 0x497 PUSH3 0x38C JUMP JUMPDEST MUL SWAP1 POP JUMPDEST SWAP3 SWAP2 POP POP JUMP JUMPDEST PUSH1 0x0 PUSH3 0x385 PUSH1 0xFF DUP5 AND DUP4 PUSH3 0x3EB JUMP JUMPDEST PUSH1 0x80 MLOAD PUSH1 0xA0 MLOAD PUSH1 0xC0 MLOAD PUSH1 0xE0 MLOAD PUSH2 0x100 MLOAD PUSH2 0x1B1F PUSH3 0x521 PUSH1 0x0 CODECOPY PUSH1 0x0 DUP2 DUP2 PUSH2 0x17E ADD MSTORE PUSH2 0x1488 ADD MSTORE PUSH1 0x0 PUSH2 0x2CA ADD MSTORE PUSH1 0x0 DUP2 DUP2 PUSH2 0x350 ADD MSTORE PUSH2 0x12DA ADD MSTORE PUSH1 0x0 DUP2 DUP2 PUSH2 0x480 ADD MSTORE DUP2 DUP2 PUSH2 0x879 ADD MSTORE DUP2 DUP2 PUSH2 0x9AF ADD MSTORE PUSH2 0xBAF ADD MSTORE PUSH1 0x0 DUP2 DUP2 PUSH2 0x1A5 ADD MSTORE PUSH2 0xCC6 ADD MSTORE PUSH2 0x1B1F PUSH1 0x0 RETURN INVALID PUSH1 0x80 PUSH1 0x40 MSTORE CALLVALUE DUP1 ISZERO PUSH2 0x10 JUMPI PUSH1 0x0 DUP1 REVERT JUMPDEST POP PUSH1 0x4 CALLDATASIZE LT PUSH2 0x158 JUMPI PUSH1 0x0 CALLDATALOAD PUSH1 0xE0 SHR DUP1 PUSH4 0xAF42D5F0 GT PUSH2 0xC3 JUMPI DUP1 PUSH4 0xE5849A9F GT PUSH2 0x7C JUMPI DUP1 PUSH4 0xE5849A9F EQ PUSH2 0x3F6 JUMPI DUP1 PUSH4 0xE63EA408 EQ PUSH2 0x468 JUMPI DUP1 PUSH4 0xECF3A80E EQ PUSH2 0x47B JUMPI DUP1 PUSH4 0xF0F44260 EQ PUSH2 0x4A2 JUMPI DUP1 PUSH4 0xF2FDE38B EQ PUSH2 0x4B5 JUMPI DUP1 PUSH4 0xF96D0BAA EQ PUSH2 0x4C8 JUMPI PUSH1 0x0 DUP1 REVERT JUMPDEST DUP1 PUSH4 0xAF42D5F0 EQ PUSH2 0x324 JUMPI DUP1 PUSH4 0xBFC9B279 EQ PUSH2 0x32D JUMPI DUP1 PUSH4 0xD037005F EQ PUSH2 0x338 JUMPI DUP1 PUSH4 0xD310D14D EQ PUSH2 0x34B JUMPI DUP1 PUSH4 0xDBE07BB9 EQ PUSH2 0x372 JUMPI DUP1 PUSH4 0xE3F96D7C EQ PUSH2 0x385 JUMPI PUSH1 0x0 DUP1 REVERT JUMPDEST DUP1 PUSH4 0x75E20F29 GT PUSH2 0x115 JUMPI DUP1 PUSH4 0x75E20F29 EQ PUSH2 0x20F JUMPI DUP1 PUSH4 0x767E9198 EQ PUSH2 0x2AB JUMPI DUP1 PUSH4 0x8DA5CB5B EQ PUSH2 0x2B4 JUMPI DUP1 PUSH4 0x9D55FFB5 EQ PUSH2 0x2C5 JUMPI DUP1 PUSH4 0xA839A37C EQ PUSH2 0x2FE JUMPI DUP1 PUSH4 0xAE169A50 EQ PUSH2 0x311 JUMPI PUSH1 0x0 DUP1 REVERT JUMPDEST DUP1 PUSH4 0x1584410A EQ PUSH2 0x15D JUMPI DUP1 PUSH4 0x2EF31EA4 EQ PUSH2 0x179 JUMPI DUP1 PUSH4 0x3E413BEE EQ PUSH2 0x1A0 JUMPI DUP1 PUSH4 0x56447CE8 EQ PUSH2 0x1DF JUMPI DUP1 PUSH4 0x61D027B3 EQ PUSH2 0x1F4 JUMPI DUP1 PUSH4 0x715018A6 EQ PUSH2 0x207 JUMPI JUMPDEST PUSH1 0x0 DUP1 REVERT JUMPDEST PUSH2 0x166 PUSH1 0x5 SLOAD DUP2 JUMP JUMPDEST PUSH1 0x40 MLOAD SWAP1 DUP2 MSTORE PUSH1 0x20 ADD JUMPDEST PUSH1 0x40 MLOAD DUP1 SWAP2 SUB SWAP1 RETURN JUMPDEST PUSH2 0x166 PUSH32 0x0 DUP2 JUMP JUMPDEST PUSH2 0x1C7 PUSH32 0x0 DUP2 JUMP JUMPDEST PUSH1 0x40 MLOAD PUSH1 0x1 PUSH1 0x1 PUSH1 0xA0 SHL SUB SWAP1 SWAP2 AND DUP2 MSTORE PUSH1 0x20 ADD PUSH2 0x170 JUMP JUMPDEST PUSH2 0x1F2 PUSH2 0x1ED CALLDATASIZE PUSH1 0x4 PUSH2 0x18C4 JUMP JUMPDEST PUSH2 0x4D2 JUMP JUMPDEST STOP JUMPDEST PUSH1 0x2 SLOAD PUSH2 0x1C7 SWAP1 PUSH1 0x1 PUSH1 0x1 PUSH1 0xA0 SHL SUB AND DUP2 JUMP JUMPDEST PUSH2 0x1F2 PUSH2 0x55D JUMP JUMPDEST PUSH2 0x268 PUSH2 0x21D CALLDATASIZE PUSH1 0x4 PUSH2 0x18C4 JUMP JUMPDEST PUSH1 0x7 PUSH1 0x20 MSTORE PUSH1 0x0 SWAP1 DUP2 MSTORE PUSH1 0x40 SWAP1 KECCAK256 DUP1 SLOAD PUSH1 0x1 DUP3 ADD SLOAD PUSH1 0x2 DUP4 ADD SLOAD PUSH1 0x3 DUP5 ADD SLOAD PUSH1 0x4 DUP6 ADD SLOAD PUSH1 0x5 SWAP1 SWAP6 ADD SLOAD PUSH1 0x1 PUSH1 0x1 PUSH1 0xA0 SHL SUB SWAP1 SWAP5 AND SWAP5 SWAP3 SWAP4 SWAP2 SWAP3 SWAP1 SWAP2 PUSH1 0xFF DUP1 DUP3 AND SWAP2 PUSH2 0x100 SWAP1 DIV AND DUP8 JUMP JUMPDEST PUSH1 0x40 DUP1 MLOAD PUSH1 0x1 PUSH1 0x1 PUSH1 0xA0 SHL SUB SWAP1 SWAP9 AND DUP9 MSTORE PUSH1 0x20 DUP9 ADD SWAP7 SWAP1 SWAP7 MSTORE SWAP5 DUP7 ADD SWAP4 SWAP1 SWAP4 MSTORE PUSH1 0x60 DUP6 ADD SWAP2 SWAP1 SWAP2 MSTORE PUSH1 0x80 DUP5 ADD MSTORE ISZERO ISZERO PUSH1 0xA0 DUP4 ADD MSTORE ISZERO ISZERO PUSH1 0xC0 DUP3 ADD MSTORE PUSH1 0xE0 ADD PUSH2 0x170 JUMP JUMPDEST PUSH2 0x166 PUSH1 0x3 SLOAD DUP2 JUMP JUMPDEST PUSH1 0x1 SLOAD PUSH1 0x1 PUSH1 0x1 PUSH1 0xA0 SHL SUB AND PUSH2 0x1C7 JUMP JUMPDEST PUSH2 0x2EC PUSH32 0x0 DUP2 JUMP JUMPDEST PUSH1 0x40 MLOAD PUSH1 0xFF SWAP1 SWAP2 AND DUP2 MSTORE PUSH1 0x20 ADD PUSH2 0x170 JUMP JUMPDEST PUSH2 0x1F2 PUSH2 0x30C CALLDATASIZE PUSH1 0x4 PUSH2 0x18DD JUMP JUMPDEST PUSH2 0x571 JUMP JUMPDEST PUSH2 0x1F2 PUSH2 0x31F CALLDATASIZE PUSH1 0x4 PUSH2 0x18C4 JUMP JUMPDEST PUSH2 0x739 JUMP JUMPDEST PUSH2 0x166 PUSH1 0x4 SLOAD DUP2 JUMP JUMPDEST PUSH2 0x166 PUSH4 0x5F5E100 DUP2 JUMP JUMPDEST PUSH2 0x166 PUSH2 0x346 CALLDATASIZE PUSH1 0x4 PUSH2 0x18C4 JUMP JUMPDEST PUSH2 0x8F7 JUMP JUMPDEST PUSH2 0x1C7 PUSH32 0x0 DUP2 JUMP JUMPDEST PUSH2 0x166 PUSH2 0x380 CALLDATASIZE PUSH1 0x4 PUSH2 0x18C4 JUMP JUMPDEST PUSH2 0xA5C JUMP JUMPDEST PUSH2 0x398 PUSH2 0x393 CALLDATASIZE PUSH1 0x4 PUSH2 0x18C4 JUMP JUMPDEST PUSH2 0xE2D JUMP JUMPDEST PUSH1 0x40 MLOAD PUSH2 0x170 SWAP2 SWAP1 DUP2 MLOAD PUSH1 0x1 PUSH1 0x1 PUSH1 0xA0 SHL SUB AND DUP2 MSTORE PUSH1 0x20 DUP1 DUP4 ADD MLOAD SWAP1 DUP3 ADD MSTORE PUSH1 0x40 DUP1 DUP4 ADD MLOAD SWAP1 DUP3 ADD MSTORE PUSH1 0x60 DUP1 DUP4 ADD MLOAD SWAP1 DUP3 ADD MSTORE PUSH1 0x80 DUP1 DUP4 ADD MLOAD SWAP1 DUP3 ADD MSTORE PUSH1 0xA0 DUP3 DUP2 ADD MLOAD ISZERO ISZERO SWAP1 DUP3 ADD MSTORE PUSH1 0xC0 SWAP2 DUP3 ADD MLOAD ISZERO ISZERO SWAP2 DUP2 ADD SWAP2 SWAP1 SWAP2 MSTORE PUSH1 0xE0 ADD SWAP1 JUMP JUMPDEST PUSH2 0x43A PUSH2 0x404 CALLDATASIZE PUSH1 0x4 PUSH2 0x18C4 JUMP JUMPDEST PUSH1 0x6 PUSH1 0x20 MSTORE PUSH1 0x0 SWAP1 DUP2 MSTORE PUSH1 0x40 SWAP1 KECCAK256 DUP1 SLOAD PUSH1 0x1 DUP3 ADD SLOAD PUSH1 0x2 DUP4 ADD SLOAD PUSH1 0x3 SWAP1 SWAP4 ADD SLOAD SWAP2 SWAP3 SWAP1 SWAP2 PUSH2 0xFFFF DUP2 AND SWAP1 PUSH3 0x10000 SWAP1 DIV PUSH1 0xFF AND DUP6 JUMP JUMPDEST PUSH1 0x40 DUP1 MLOAD SWAP6 DUP7 MSTORE PUSH1 0x20 DUP7 ADD SWAP5 SWAP1 SWAP5 MSTORE SWAP3 DUP5 ADD SWAP2 SWAP1 SWAP2 MSTORE PUSH2 0xFFFF AND PUSH1 0x60 DUP4 ADD MSTORE ISZERO ISZERO PUSH1 0x80 DUP3 ADD MSTORE PUSH1 0xA0 ADD PUSH2 0x170 JUMP JUMPDEST PUSH2 0x1F2 PUSH2 0x476 CALLDATASIZE PUSH1 0x4 PUSH2 0x195E JUMP JUMPDEST PUSH2 0xEF1 JUMP JUMPDEST PUSH2 0x1C7 PUSH32 0x0 DUP2 JUMP JUMPDEST PUSH2 0x1F2 PUSH2 0x4B0 CALLDATASIZE PUSH1 0x4 PUSH2 0x199A JUMP JUMPDEST PUSH2 0x10E0 JUMP JUMPDEST PUSH2 0x1F2 PUSH2 0x4C3 CALLDATASIZE PUSH1 0x4 PUSH2 0x199A JUMP JUMPDEST PUSH2 0x1188 JUMP JUMPDEST PUSH2 0x166 PUSH3 0xF4240 DUP2 JUMP JUMPDEST PUSH2 0x4DA PUSH2 0x11C3 JUMP JUMPDEST PUSH1 0x0 DUP2 GT PUSH2 0x522 JUMPI PUSH1 0x40 MLOAD PUSH3 0x461BCD PUSH1 0xE5 SHL DUP2 MSTORE PUSH1 0x20 PUSH1 0x4 DUP3 ADD MSTORE PUSH1 0x10 PUSH1 0x24 DUP3 ADD MSTORE PUSH16 0x13585E081859D9481C995C5D5A5C9959 PUSH1 0x82 SHL PUSH1 0x44 DUP3 ADD MSTORE PUSH1 0x64 ADD JUMPDEST PUSH1 0x40 MLOAD DUP1 SWAP2 SUB SWAP1 REVERT JUMPDEST PUSH1 0x5 DUP2 SWAP1 SSTORE PUSH1 0x40 MLOAD DUP2 DUP2 MSTORE PUSH32 0xB1740BFAFB685E9CDA34B9238959B40D11F603BA6DB685C0468D4804140547B4 SWAP1 PUSH1 0x20 ADD PUSH1 0x40 MLOAD DUP1 SWAP2 SUB SWAP1 LOG1 POP JUMP JUMPDEST PUSH2 0x565 PUSH2 0x11C3 JUMP JUMPDEST PUSH2 0x56F PUSH1 0x0 PUSH2 0x11F0 JUMP JUMPDEST JUMP JUMPDEST PUSH2 0x579 PUSH2 0x11C3 JUMP JUMPDEST DUP4 DUP4 LT ISZERO PUSH2 0x5C0 JUMPI PUSH1 0x40 MLOAD PUSH3 0x461BCD PUSH1 0xE5 SHL DUP2 MSTORE PUSH1 0x20 PUSH1 0x4 DUP3 ADD MSTORE PUSH1 0x14 PUSH1 0x24 DUP3 ADD MSTORE PUSH20 0x496E76616C6964207265776172642072616E6765 PUSH1 0x60 SHL PUSH1 0x44 DUP3 ADD MSTORE PUSH1 0x64 ADD PUSH2 0x519 JUMP JUMPDEST DUP4 DUP6 LT ISZERO DUP1 ISZERO PUSH2 0x5D0 JUMPI POP DUP3 DUP6 GT ISZERO JUMPDEST PUSH2 0x612 JUMPI PUSH1 0x40 MLOAD PUSH3 0x461BCD PUSH1 0xE5 SHL DUP2 MSTORE PUSH1 0x20 PUSH1 0x4 DUP3 ADD MSTORE PUSH1 0x13 PUSH1 0x24 DUP3 ADD MSTORE PUSH19 0x5072696365206F7574736964652072616E6765 PUSH1 0x68 SHL PUSH1 0x44 DUP3 ADD MSTORE PUSH1 0x64 ADD PUSH2 0x519 JUMP JUMPDEST PUSH2 0x2710 DUP3 PUSH2 0xFFFF AND GT ISZERO PUSH2 0x656 JUMPI PUSH1 0x40 MLOAD PUSH3 0x461BCD PUSH1 0xE5 SHL DUP2 MSTORE PUSH1 0x20 PUSH1 0x4 DUP3 ADD MSTORE PUSH1 0xB PUSH1 0x24 DUP3 ADD MSTORE PUSH11 0x496E76616C696420425053 PUSH1 0xA8 SHL PUSH1 0x44 DUP3 ADD MSTORE PUSH1 0x64 ADD PUSH2 0x519 JUMP JUMPDEST PUSH1 0x40 DUP1 MLOAD PUSH1 0xA0 DUP2 ADD DUP3 MSTORE DUP7 DUP2 MSTORE PUSH1 0x20 DUP1 DUP3 ADD DUP8 DUP2 MSTORE DUP3 DUP5 ADD DUP8 DUP2 MSTORE PUSH2 0xFFFF DUP1 DUP9 AND PUSH1 0x60 DUP7 ADD SWAP1 DUP2 MSTORE DUP8 ISZERO ISZERO PUSH1 0x80 DUP8 ADD SWAP1 DUP2 MSTORE PUSH1 0x0 DUP15 DUP2 MSTORE PUSH1 0x6 SWAP1 SWAP7 MSTORE SWAP5 DUP8 SWAP1 KECCAK256 SWAP6 MLOAD DUP7 SSTORE SWAP3 MLOAD PUSH1 0x1 DUP7 ADD SSTORE SWAP1 MLOAD PUSH1 0x2 DUP6 ADD SSTORE SWAP1 MLOAD PUSH1 0x3 SWAP1 SWAP4 ADD DUP1 SLOAD SWAP3 MLOAD ISZERO ISZERO PUSH3 0x10000 MUL PUSH3 0xFFFFFF NOT SWAP1 SWAP4 AND SWAP4 SWAP1 SWAP2 AND SWAP3 SWAP1 SWAP3 OR OR SWAP1 SSTORE MLOAD DUP7 SWAP1 PUSH32 0xE7DFE3C084FA4F22ACB02FD9A17BC032556708E078E8F1ADF50488F30FEA7C04 SWAP1 PUSH2 0x729 SWAP1 DUP9 SWAP1 DUP9 SWAP1 DUP9 SWAP1 DUP9 SWAP1 DUP9 SWAP1 SWAP5 DUP6 MSTORE PUSH1 0x20 DUP6 ADD SWAP4 SWAP1 SWAP4 MSTORE PUSH1 0x40 DUP5 ADD SWAP2 SWAP1 SWAP2 MSTORE PUSH2 0xFFFF AND PUSH1 0x60 DUP4 ADD MSTORE ISZERO ISZERO PUSH1 0x80 DUP3 ADD MSTORE PUSH1 0xA0 ADD SWAP1 JUMP JUMPDEST PUSH1 0x40 MLOAD DUP1 SWAP2 SUB SWAP1 LOG2 POP POP POP POP POP POP JUMP JUMPDEST PUSH2 0x741 PUSH2 0x1242 JUMP JUMPDEST PUSH1 0x0 DUP2 DUP2 MSTORE PUSH1 0x7 PUSH1 0x20 MSTORE PUSH1 0x40 SWAP1 KECCAK256 DUP1 SLOAD PUSH1 0x1 PUSH1 0x1 PUSH1 0xA0 SHL SUB AND CALLER EQ PUSH2 0x795 JUMPI PUSH1 0x40 MLOAD PUSH3 0x461BCD PUSH1 0xE5 SHL DUP2 MSTORE PUSH1 0x20 PUSH1 0x4 DUP3 ADD MSTORE PUSH1 0xA PUSH1 0x24 DUP3 ADD MSTORE PUSH10 0x2737BA1037B832B732B9 PUSH1 0xB1 SHL PUSH1 0x44 DUP3 ADD MSTORE PUSH1 0x64 ADD PUSH2 0x519 JUMP JUMPDEST PUSH1 0x5 DUP2 ADD SLOAD PUSH1 0xFF AND PUSH2 0x7DC JUMPI PUSH1 0x40 MLOAD PUSH3 0x461BCD PUSH1 0xE5 SHL DUP2 MSTORE PUSH1 0x20 PUSH1 0x4 DUP3 ADD MSTORE PUSH1 0x10 PUSH1 0x24 DUP3 ADD MSTORE PUSH16 0x526577617264206E6F74207265616479 PUSH1 0x80 SHL PUSH1 0x44 DUP3 ADD MSTORE PUSH1 0x64 ADD PUSH2 0x519 JUMP JUMPDEST PUSH1 0x5 DUP2 ADD SLOAD PUSH2 0x100 SWAP1 DIV PUSH1 0xFF AND ISZERO PUSH2 0x828 JUMPI PUSH1 0x40 MLOAD PUSH3 0x461BCD PUSH1 0xE5 SHL DUP2 MSTORE PUSH1 0x20 PUSH1 0x4 DUP3 ADD MSTORE PUSH1 0xF PUSH1 0x24 DUP3 ADD MSTORE PUSH15 0x105B1C9958591E4818DB185A5B5959 PUSH1 0x8A SHL PUSH1 0x44 DUP3 ADD MSTORE PUSH1 0x64 ADD PUSH2 0x519 JUMP JUMPDEST PUSH1 0x5 DUP2 ADD DUP1 SLOAD PUSH2 0xFF00 NOT AND PUSH2 0x100 OR SWAP1 SSTORE PUSH1 0x3 DUP2 ADD SLOAD ISZERO PUSH2 0x866 JUMPI DUP1 PUSH1 0x3 ADD SLOAD PUSH1 0x4 PUSH1 0x0 DUP3 DUP3 SLOAD PUSH2 0x859 SWAP2 SWAP1 PUSH2 0x19D2 JUMP JUMPDEST SWAP1 SWAP2 SSTORE POP POP PUSH1 0x0 PUSH1 0x3 DUP3 ADD SSTORE JUMPDEST PUSH1 0x2 DUP2 ADD SLOAD PUSH2 0x8A1 SWAP1 PUSH1 0x1 PUSH1 0x1 PUSH1 0xA0 SHL SUB PUSH32 0x0 AND SWAP1 CALLER SWAP1 PUSH2 0x126C JUMP JUMPDEST CALLER PUSH1 0x1 PUSH1 0x1 PUSH1 0xA0 SHL SUB AND DUP3 PUSH32 0xAC4599846A321CD0603BCFDEF5B7B20C1464B6E577379378C9F738EF3B0D19FB DUP4 PUSH1 0x2 ADD SLOAD PUSH1 0x40 MLOAD PUSH2 0x8E1 SWAP2 DUP2 MSTORE PUSH1 0x20 ADD SWAP1 JUMP JUMPDEST PUSH1 0x40 MLOAD DUP1 SWAP2 SUB SWAP1 LOG3 POP PUSH2 0x8F4 PUSH1 0x1 PUSH1 0x0 SSTORE JUMP JUMPDEST POP JUMP JUMPDEST PUSH1 0x0 DUP2 DUP2 MSTORE PUSH1 0x6 PUSH1 0x20 SWAP1 DUP2 MSTORE PUSH1 0x40 DUP1 DUP4 KECCAK256 DUP2 MLOAD PUSH1 0xA0 DUP2 ADD DUP4 MSTORE DUP2 SLOAD DUP2 MSTORE PUSH1 0x1 DUP3 ADD SLOAD SWAP4 DUP2 ADD SWAP4 SWAP1 SWAP4 MSTORE PUSH1 0x2 DUP2 ADD SLOAD SWAP2 DUP4 ADD SWAP2 SWAP1 SWAP2 MSTORE PUSH1 0x3 ADD SLOAD PUSH2 0xFFFF DUP2 AND PUSH1 0x60 DUP4 ADD MSTORE PUSH3 0x10000 SWAP1 DIV PUSH1 0xFF AND ISZERO DUP1 ISZERO PUSH1 0x80 DUP4 ADD MSTORE DUP1 PUSH2 0x958 JUMPI POP PUSH1 0x40 DUP2 ADD MLOAD ISZERO JUMPDEST ISZERO PUSH2 0x966 JUMPI POP PUSH1 0x0 SWAP3 SWAP2 POP POP JUMP JUMPDEST PUSH1 0x0 PUSH2 0x970 PUSH2 0x12D0 JUMP JUMPDEST SWAP1 POP PUSH1 0x0 PUSH2 0x982 DUP4 PUSH1 0x40 ADD MLOAD DUP4 PUSH2 0x1483 JUMP JUMPDEST SWAP1 POP DUP1 PUSH1 0x0 SUB PUSH2 0x997 JUMPI POP PUSH1 0x0 SWAP5 SWAP4 POP POP POP POP JUMP JUMPDEST PUSH1 0x40 MLOAD PUSH4 0x70A08231 PUSH1 0xE0 SHL DUP2 MSTORE ADDRESS PUSH1 0x4 DUP3 ADD MSTORE PUSH1 0x0 SWAP1 PUSH32 0x0 PUSH1 0x1 PUSH1 0x1 PUSH1 0xA0 SHL SUB AND SWAP1 PUSH4 0x70A08231 SWAP1 PUSH1 0x24 ADD PUSH1 0x20 PUSH1 0x40 MLOAD DUP1 DUP4 SUB DUP2 DUP7 GAS STATICCALL ISZERO DUP1 ISZERO PUSH2 0x9FE JUMPI RETURNDATASIZE PUSH1 0x0 DUP1 RETURNDATACOPY RETURNDATASIZE PUSH1 0x0 REVERT JUMPDEST POP POP POP POP PUSH1 0x40 MLOAD RETURNDATASIZE PUSH1 0x1F NOT PUSH1 0x1F DUP3 ADD AND DUP3 ADD DUP1 PUSH1 0x40 MSTORE POP DUP2 ADD SWAP1 PUSH2 0xA22 SWAP2 SWAP1 PUSH2 0x19E5 JUMP JUMPDEST SWAP1 POP PUSH1 0x4 SLOAD DUP2 GT PUSH2 0xA39 JUMPI POP PUSH1 0x0 SWAP6 SWAP5 POP POP POP POP POP JUMP JUMPDEST DUP2 PUSH1 0x4 SLOAD DUP3 PUSH2 0xA48 SWAP2 SWAP1 PUSH2 0x19D2 JUMP JUMPDEST PUSH2 0xA52 SWAP2 SWAP1 PUSH2 0x1A14 JUMP JUMPDEST SWAP7 SWAP6 POP POP POP POP POP POP JUMP JUMPDEST PUSH1 0x0 PUSH2 0xA66 PUSH2 0x1242 JUMP JUMPDEST PUSH1 0x0 DUP3 DUP2 MSTORE PUSH1 0x6 PUSH1 0x20 SWAP1 DUP2 MSTORE PUSH1 0x40 SWAP2 DUP3 SWAP1 KECCAK256 DUP3 MLOAD PUSH1 0xA0 DUP2 ADD DUP5 MSTORE DUP2 SLOAD DUP2 MSTORE PUSH1 0x1 DUP3 ADD SLOAD SWAP3 DUP2 ADD SWAP3 SWAP1 SWAP3 MSTORE PUSH1 0x2 DUP2 ADD SLOAD SWAP3 DUP3 ADD SWAP3 SWAP1 SWAP3 MSTORE PUSH1 0x3 SWAP1 SWAP2 ADD SLOAD PUSH2 0xFFFF DUP2 AND PUSH1 0x60 DUP4 ADD MSTORE PUSH3 0x10000 SWAP1 DIV PUSH1 0xFF AND ISZERO ISZERO PUSH1 0x80 DUP3 ADD DUP2 SWAP1 MSTORE PUSH2 0xAFA JUMPI PUSH1 0x40 MLOAD PUSH3 0x461BCD PUSH1 0xE5 SHL DUP2 MSTORE PUSH1 0x20 PUSH1 0x4 DUP3 ADD MSTORE PUSH1 0xD PUSH1 0x24 DUP3 ADD MSTORE PUSH13 0x10D85CD948191A5CD8589B1959 PUSH1 0x9A SHL PUSH1 0x44 DUP3 ADD MSTORE PUSH1 0x64 ADD PUSH2 0x519 JUMP JUMPDEST DUP1 MLOAD PUSH2 0xB39 JUMPI PUSH1 0x40 MLOAD PUSH3 0x461BCD PUSH1 0xE5 SHL DUP2 MSTORE PUSH1 0x20 PUSH1 0x4 DUP3 ADD MSTORE PUSH1 0xE PUSH1 0x24 DUP3 ADD MSTORE PUSH14 0x10D85CD9481B9BDD08199BDD5B99 PUSH1 0x92 SHL PUSH1 0x44 DUP3 ADD MSTORE PUSH1 0x64 ADD PUSH2 0x519 JUMP JUMPDEST PUSH1 0x0 PUSH2 0xB43 PUSH2 0x12D0 JUMP JUMPDEST SWAP1 POP PUSH1 0x0 PUSH2 0xB55 DUP4 PUSH1 0x40 ADD MLOAD DUP4 PUSH2 0x1483 JUMP JUMPDEST SWAP1 POP PUSH1 0x0 DUP2 GT PUSH2 0xB97 JUMPI PUSH1 0x40 MLOAD PUSH3 0x461BCD PUSH1 0xE5 SHL DUP2 MSTORE PUSH1 0x20 PUSH1 0x4 DUP3 ADD MSTORE PUSH1 0xD PUSH1 0x24 DUP3 ADD MSTORE PUSH13 0x507269636520746F6F206C6F77 PUSH1 0x98 SHL PUSH1 0x44 DUP3 ADD MSTORE PUSH1 0x64 ADD PUSH2 0x519 JUMP JUMPDEST PUSH1 0x40 MLOAD PUSH4 0x70A08231 PUSH1 0xE0 SHL DUP2 MSTORE ADDRESS PUSH1 0x4 DUP3 ADD MSTORE PUSH1 0x0 SWAP1 PUSH32 0x0 PUSH1 0x1 PUSH1 0x1 PUSH1 0xA0 SHL SUB AND SWAP1 PUSH4 0x70A08231 SWAP1 PUSH1 0x24 ADD PUSH1 0x20 PUSH1 0x40 MLOAD DUP1 DUP4 SUB DUP2 DUP7 GAS STATICCALL ISZERO DUP1 ISZERO PUSH2 0xBFE JUMPI RETURNDATASIZE PUSH1 0x0 DUP1 RETURNDATACOPY RETURNDATASIZE PUSH1 0x0 REVERT JUMPDEST POP POP POP POP PUSH1 0x40 MLOAD RETURNDATASIZE PUSH1 0x1F NOT PUSH1 0x1F DUP3 ADD AND DUP3 ADD DUP1 PUSH1 0x40 MSTORE POP DUP2 ADD SWAP1 PUSH2 0xC22 SWAP2 SWAP1 PUSH2 0x19E5 JUMP JUMPDEST SWAP1 POP PUSH1 0x4 SLOAD DUP2 GT PUSH2 0xC60 JUMPI PUSH1 0x40 MLOAD PUSH3 0x461BCD PUSH1 0xE5 SHL DUP2 MSTORE PUSH1 0x20 PUSH1 0x4 DUP3 ADD MSTORE PUSH1 0x8 PUSH1 0x24 DUP3 ADD MSTORE PUSH8 0x14DBDB19081BDD5D PUSH1 0xC2 SHL PUSH1 0x44 DUP3 ADD MSTORE PUSH1 0x64 ADD PUSH2 0x519 JUMP JUMPDEST PUSH1 0x0 DUP3 PUSH1 0x4 SLOAD DUP4 PUSH2 0xC71 SWAP2 SWAP1 PUSH2 0x19D2 JUMP JUMPDEST PUSH2 0xC7B SWAP2 SWAP1 PUSH2 0x1A14 JUMP JUMPDEST GT PUSH2 0xCB3 JUMPI PUSH1 0x40 MLOAD PUSH3 0x461BCD PUSH1 0xE5 SHL DUP2 MSTORE PUSH1 0x20 PUSH1 0x4 DUP3 ADD MSTORE PUSH1 0x8 PUSH1 0x24 DUP3 ADD MSTORE PUSH8 0x14DBDB19081BDD5D PUSH1 0xC2 SHL PUSH1 0x44 DUP3 ADD MSTORE PUSH1 0x64 ADD PUSH2 0x519 JUMP JUMPDEST PUSH1 0x2 SLOAD DUP5 MLOAD PUSH2 0xCF4 SWAP2 PUSH1 0x1 PUSH1 0x1 PUSH1 0xA0 SHL SUB PUSH32 0x0 DUP2 AND SWAP3 CALLER SWAP3 SWAP2 SWAP1 SWAP2 AND SWAP1 PUSH2 0x14E3 JUMP JUMPDEST PUSH1 0x3 PUSH1 0x0 DUP2 SLOAD PUSH2 0xD03 SWAP1 PUSH2 0x1A28 JUMP JUMPDEST SWAP2 SWAP1 POP DUP2 SWAP1 SSTORE SWAP5 POP DUP2 PUSH1 0x4 PUSH1 0x0 DUP3 DUP3 SLOAD PUSH2 0xD1D SWAP2 SWAP1 PUSH2 0x1A41 JUMP JUMPDEST SWAP1 SWAP2 SSTORE POP POP PUSH1 0x40 DUP1 MLOAD PUSH1 0xE0 DUP2 ADD DUP3 MSTORE CALLER DUP2 MSTORE PUSH1 0x20 DUP1 DUP3 ADD DUP10 DUP2 MSTORE PUSH1 0x0 DUP4 DUP6 ADD DUP2 DUP2 MSTORE PUSH1 0x60 DUP6 ADD DUP9 DUP2 MSTORE PUSH1 0x80 DUP7 ADD DUP11 DUP2 MSTORE PUSH1 0xA0 DUP8 ADD DUP5 DUP2 MSTORE PUSH1 0xC0 DUP9 ADD DUP6 DUP2 MSTORE DUP15 DUP7 MSTORE PUSH1 0x7 SWAP1 SWAP8 MSTORE SWAP8 DUP5 KECCAK256 SWAP7 MLOAD DUP8 SLOAD PUSH1 0x1 PUSH1 0x1 PUSH1 0xA0 SHL SUB NOT AND PUSH1 0x1 PUSH1 0x1 PUSH1 0xA0 SHL SUB SWAP1 SWAP2 AND OR DUP8 SSTORE SWAP4 MLOAD PUSH1 0x1 DUP8 ADD SSTORE SWAP1 MLOAD PUSH1 0x2 DUP7 ADD SSTORE MLOAD PUSH1 0x3 DUP6 ADD SSTORE SWAP1 MLOAD PUSH1 0x4 DUP5 ADD SSTORE SWAP3 MLOAD PUSH1 0x5 SWAP1 SWAP3 ADD DUP1 SLOAD SWAP2 MLOAD PUSH2 0xFFFF NOT SWAP1 SWAP3 AND SWAP3 ISZERO ISZERO PUSH2 0xFF00 NOT AND SWAP3 SWAP1 SWAP3 OR PUSH2 0x100 SWAP2 ISZERO ISZERO SWAP2 SWAP1 SWAP2 MUL OR SWAP1 SSTORE PUSH2 0xDD2 DUP7 DUP9 PUSH2 0x1522 JUMP JUMPDEST SWAP1 POP PUSH2 0xDDE DUP7 DUP3 PUSH2 0x1595 JUMP JUMPDEST DUP5 MLOAD PUSH1 0x40 MLOAD SWAP1 DUP2 MSTORE DUP7 SWAP1 DUP9 SWAP1 CALLER SWAP1 PUSH32 0xF7A35F1B41370902294F55466FE05B5EBC1803195A160F64A579B0C0E86A0B0C SWAP1 PUSH1 0x20 ADD PUSH1 0x40 MLOAD DUP1 SWAP2 SUB SWAP1 LOG4 POP POP POP POP POP PUSH2 0xE28 PUSH1 0x1 PUSH1 0x0 SSTORE JUMP JUMPDEST SWAP2 SWAP1 POP JUMP JUMPDEST PUSH2 0xE7A PUSH1 0x40 MLOAD DUP1 PUSH1 0xE0 ADD PUSH1 0x40 MSTORE DUP1 PUSH1 0x0 PUSH1 0x1 PUSH1 0x1 PUSH1 0xA0 SHL SUB AND DUP2 MSTORE PUSH1 0x20 ADD PUSH1 0x0 DUP2 MSTORE PUSH1 0x20 ADD PUSH1 0x0 DUP2 MSTORE PUSH1 0x20 ADD PUSH1 0x0 DUP2 MSTORE PUSH1 0x20 ADD PUSH1 0x0 DUP2 MSTORE PUSH1 0x20 ADD PUSH1 0x0 ISZERO ISZERO DUP2 MSTORE PUSH1 0x20 ADD PUSH1 0x0 ISZERO ISZERO DUP2 MSTORE POP SWAP1 JUMP JUMPDEST POP PUSH1 0x0 SWAP1 DUP2 MSTORE PUSH1 0x7 PUSH1 0x20 SWAP1 DUP2 MSTORE PUSH1 0x40 SWAP2 DUP3 SWAP1 KECCAK256 DUP3 MLOAD PUSH1 0xE0 DUP2 ADD DUP5 MSTORE DUP2 SLOAD PUSH1 0x1 PUSH1 0x1 PUSH1 0xA0 SHL SUB AND DUP2 MSTORE PUSH1 0x1 DUP3 ADD SLOAD SWAP3 DUP2 ADD SWAP3 SWAP1 SWAP3 MSTORE PUSH1 0x2 DUP2 ADD SLOAD SWAP3 DUP3 ADD SWAP3 SWAP1 SWAP3 MSTORE PUSH1 0x3 DUP3 ADD SLOAD PUSH1 0x60 DUP3 ADD MSTORE PUSH1 0x4 DUP3 ADD SLOAD PUSH1 0x80 DUP3 ADD MSTORE PUSH1 0x5 SWAP1 SWAP2 ADD SLOAD PUSH1 0xFF DUP1 DUP3 AND ISZERO ISZERO PUSH1 0xA0 DUP5 ADD MSTORE PUSH2 0x100 SWAP1 SWAP2 DIV AND ISZERO ISZERO PUSH1 0xC0 DUP3 ADD MSTORE SWAP1 JUMP JUMPDEST PUSH2 0xEF9 PUSH2 0x11C3 JUMP JUMPDEST PUSH1 0x1 PUSH1 0x1 PUSH1 0xA0 SHL SUB DUP4 AND PUSH2 0xF40 JUMPI PUSH1 0x40 MLOAD PUSH3 0x461BCD PUSH1 0xE5 SHL DUP2 MSTORE PUSH1 0x20 PUSH1 0x4 DUP3 ADD MSTORE PUSH1 0xE PUSH1 0x24 DUP3 ADD MSTORE PUSH14 0x151BDAD95B881C995C5D5A5C9959 PUSH1 0x92 SHL PUSH1 0x44 DUP3 ADD MSTORE PUSH1 0x64 ADD PUSH2 0x519 JUMP JUMPDEST PUSH1 0x0 PUSH1 0x1 PUSH1 0x1 PUSH1 0xA0 SHL SUB DUP4 AND ISZERO PUSH2 0xF57 JUMPI DUP3 PUSH2 0xF64 JUMP JUMPDEST PUSH1 0x2 SLOAD PUSH1 0x1 PUSH1 0x1 PUSH1 0xA0 SHL SUB AND JUMPDEST SWAP1 POP PUSH1 0x1 PUSH1 0x1 PUSH1 0xA0 SHL SUB DUP2 AND PUSH2 0xFB1 JUMPI PUSH1 0x40 MLOAD PUSH3 0x461BCD PUSH1 0xE5 SHL DUP2 MSTORE PUSH1 0x20 PUSH1 0x4 DUP3 ADD MSTORE PUSH1 0x12 PUSH1 0x24 DUP3 ADD MSTORE PUSH18 0x149958DA5C1A595B9D081C995C5D5A5C9959 PUSH1 0x72 SHL PUSH1 0x44 DUP3 ADD MSTORE PUSH1 0x64 ADD PUSH2 0x519 JUMP JUMPDEST PUSH1 0x40 MLOAD PUSH4 0x70A08231 PUSH1 0xE0 SHL DUP2 MSTORE ADDRESS PUSH1 0x4 DUP3 ADD MSTORE PUSH1 0x0 SWAP1 PUSH1 0x1 PUSH1 0x1 PUSH1 0xA0 SHL SUB DUP7 AND SWAP1 PUSH4 0x70A08231 SWAP1 PUSH1 0x24 ADD PUSH1 0x20 PUSH1 0x40 MLOAD DUP1 DUP4 SUB DUP2 DUP7 GAS STATICCALL ISZERO DUP1 ISZERO PUSH2 0xFF8 JUMPI RETURNDATASIZE PUSH1 0x0 DUP1 RETURNDATACOPY RETURNDATASIZE PUSH1 0x0 REVERT JUMPDEST POP POP POP POP PUSH1 0x40 MLOAD RETURNDATASIZE PUSH1 0x1F NOT PUSH1 0x1F DUP3 ADD AND DUP3 ADD DUP1 PUSH1 0x40 MSTORE POP DUP2 ADD SWAP1 PUSH2 0x101C SWAP2 SWAP1 PUSH2 0x19E5 JUMP JUMPDEST SWAP1 POP PUSH1 0x0 DUP4 ISZERO PUSH2 0x102C JUMPI DUP4 PUSH2 0x102E JUMP JUMPDEST DUP2 JUMPDEST SWAP1 POP DUP2 DUP2 GT ISZERO PUSH2 0x1077 JUMPI PUSH1 0x40 MLOAD PUSH3 0x461BCD PUSH1 0xE5 SHL DUP2 MSTORE PUSH1 0x20 PUSH1 0x4 DUP3 ADD MSTORE PUSH1 0x14 PUSH1 0x24 DUP3 ADD MSTORE PUSH20 0x496E73756666696369656E742062616C616E6365 PUSH1 0x60 SHL PUSH1 0x44 DUP3 ADD MSTORE PUSH1 0x64 ADD PUSH2 0x519 JUMP JUMPDEST PUSH2 0x108B PUSH1 0x1 PUSH1 0x1 PUSH1 0xA0 SHL SUB DUP8 AND DUP5 DUP4 PUSH2 0x126C JUMP JUMPDEST DUP3 PUSH1 0x1 PUSH1 0x1 PUSH1 0xA0 SHL SUB AND DUP7 PUSH1 0x1 PUSH1 0x1 PUSH1 0xA0 SHL SUB AND PUSH32 0xF24EF89F38EADC1BDE50701AD6E4D6D11A2DC24F7CF834A486991F3883328504 DUP4 PUSH1 0x40 MLOAD PUSH2 0x10D0 SWAP2 DUP2 MSTORE PUSH1 0x20 ADD SWAP1 JUMP JUMPDEST PUSH1 0x40 MLOAD DUP1 SWAP2 SUB SWAP1 LOG3 POP POP POP POP POP POP JUMP JUMPDEST PUSH2 0x10E8 PUSH2 0x11C3 JUMP JUMPDEST PUSH1 0x1 PUSH1 0x1 PUSH1 0xA0 SHL SUB DUP2 AND PUSH2 0x113E JUMPI PUSH1 0x40 MLOAD PUSH3 0x461BCD PUSH1 0xE5 SHL DUP2 MSTORE PUSH1 0x20 PUSH1 0x4 DUP3 ADD MSTORE PUSH1 0x19 PUSH1 0x24 DUP3 ADD MSTORE PUSH32 0x5472656173757279206164647265737320726571756972656400000000000000 PUSH1 0x44 DUP3 ADD MSTORE PUSH1 0x64 ADD PUSH2 0x519 JUMP JUMPDEST PUSH1 0x2 DUP1 SLOAD PUSH1 0x1 PUSH1 0x1 PUSH1 0xA0 SHL SUB NOT AND PUSH1 0x1 PUSH1 0x1 PUSH1 0xA0 SHL SUB DUP4 AND SWAP1 DUP2 OR SWAP1 SWAP2 SSTORE PUSH1 0x40 MLOAD PUSH32 0x7DAE230F18360D76A040C81F050AA14EB9D6DC7901B20FC5D855E2A20FE814D1 SWAP1 PUSH1 0x0 SWAP1 LOG2 POP JUMP JUMPDEST PUSH2 0x1190 PUSH2 0x11C3 JUMP JUMPDEST PUSH1 0x1 PUSH1 0x1 PUSH1 0xA0 SHL SUB DUP2 AND PUSH2 0x11BA JUMPI PUSH1 0x40 MLOAD PUSH4 0x1E4FBDF7 PUSH1 0xE0 SHL DUP2 MSTORE PUSH1 0x0 PUSH1 0x4 DUP3 ADD MSTORE PUSH1 0x24 ADD PUSH2 0x519 JUMP JUMPDEST PUSH2 0x8F4 DUP2 PUSH2 0x11F0 JUMP JUMPDEST PUSH1 0x1 SLOAD PUSH1 0x1 PUSH1 0x1 PUSH1 0xA0 SHL SUB AND CALLER EQ PUSH2 0x56F JUMPI PUSH1 0x40 MLOAD PUSH4 0x118CDAA7 PUSH1 0xE0 SHL DUP2 MSTORE CALLER PUSH1 0x4 DUP3 ADD MSTORE PUSH1 0x24 ADD PUSH2 0x519 JUMP JUMPDEST PUSH1 0x1 DUP1 SLOAD PUSH1 0x1 PUSH1 0x1 PUSH1 0xA0 SHL SUB DUP4 DUP2 AND PUSH1 0x1 PUSH1 0x1 PUSH1 0xA0 SHL SUB NOT DUP4 AND DUP2 OR SWAP1 SWAP4 SSTORE PUSH1 0x40 MLOAD SWAP2 AND SWAP2 SWAP1 DUP3 SWAP1 PUSH32 0x8BE0079C531659141344CD1FD0A4F28419497F9722A3DAAFE3B4186F6B6457E0 SWAP1 PUSH1 0x0 SWAP1 LOG3 POP POP JUMP JUMPDEST PUSH1 0x2 PUSH1 0x0 SLOAD SUB PUSH2 0x1265 JUMPI PUSH1 0x40 MLOAD PUSH4 0x3EE5AEB5 PUSH1 0xE0 SHL DUP2 MSTORE PUSH1 0x4 ADD PUSH1 0x40 MLOAD DUP1 SWAP2 SUB SWAP1 REVERT JUMPDEST PUSH1 0x2 PUSH1 0x0 SSTORE JUMP JUMPDEST PUSH1 0x40 MLOAD PUSH1 0x1 PUSH1 0x1 PUSH1 0xA0 SHL SUB DUP4 DUP2 AND PUSH1 0x24 DUP4 ADD MSTORE PUSH1 0x44 DUP3 ADD DUP4 SWAP1 MSTORE PUSH2 0x12CB SWAP2 DUP6 SWAP2 DUP3 AND SWAP1 PUSH4 0xA9059CBB SWAP1 PUSH1 0x64 ADD JUMPDEST PUSH1 0x40 MLOAD PUSH1 0x20 DUP2 DUP4 SUB SUB DUP2 MSTORE SWAP1 PUSH1 0x40 MSTORE SWAP2 POP PUSH1 0xE0 SHL PUSH1 0x20 DUP3 ADD DUP1 MLOAD PUSH1 0x1 PUSH1 0x1 PUSH1 0xE0 SHL SUB DUP4 DUP2 DUP4 AND OR DUP4 MSTORE POP POP POP POP PUSH2 0x17D3 JUMP JUMPDEST POP POP POP JUMP JUMPDEST PUSH1 0x0 DUP1 PUSH1 0x0 DUP1 PUSH1 0x0 PUSH32 0x0 PUSH1 0x1 PUSH1 0x1 PUSH1 0xA0 SHL SUB AND PUSH4 0xFEAF968C PUSH1 0x40 MLOAD DUP2 PUSH4 0xFFFFFFFF AND PUSH1 0xE0 SHL DUP2 MSTORE PUSH1 0x4 ADD PUSH1 0xA0 PUSH1 0x40 MLOAD DUP1 DUP4 SUB DUP2 DUP7 GAS STATICCALL ISZERO DUP1 ISZERO PUSH2 0x1336 JUMPI RETURNDATASIZE PUSH1 0x0 DUP1 RETURNDATACOPY RETURNDATASIZE PUSH1 0x0 REVERT JUMPDEST POP POP POP POP PUSH1 0x40 MLOAD RETURNDATASIZE PUSH1 0x1F NOT PUSH1 0x1F DUP3 ADD AND DUP3 ADD DUP1 PUSH1 0x40 MSTORE POP DUP2 ADD SWAP1 PUSH2 0x135A SWAP2 SWAP1 PUSH2 0x1A6E JUMP JUMPDEST SWAP5 POP SWAP5 POP POP SWAP4 POP SWAP4 POP PUSH1 0x0 DUP4 SGT PUSH2 0x139F JUMPI PUSH1 0x40 MLOAD PUSH3 0x461BCD PUSH1 0xE5 SHL DUP2 MSTORE PUSH1 0x20 PUSH1 0x4 DUP3 ADD MSTORE PUSH1 0x9 PUSH1 0x24 DUP3 ADD MSTORE PUSH9 0x426164207072696365 PUSH1 0xB8 SHL PUSH1 0x44 DUP3 ADD MSTORE PUSH1 0x64 ADD PUSH2 0x519 JUMP JUMPDEST DUP2 PUSH1 0x0 SUB PUSH2 0x13DB JUMPI PUSH1 0x40 MLOAD PUSH3 0x461BCD PUSH1 0xE5 SHL DUP2 MSTORE PUSH1 0x20 PUSH1 0x4 DUP3 ADD MSTORE PUSH1 0x9 PUSH1 0x24 DUP3 ADD MSTORE PUSH9 0x426164207072696365 PUSH1 0xB8 SHL PUSH1 0x44 DUP3 ADD MSTORE PUSH1 0x64 ADD PUSH2 0x519 JUMP JUMPDEST DUP4 PUSH10 0xFFFFFFFFFFFFFFFFFFFF AND DUP2 PUSH10 0xFFFFFFFFFFFFFFFFFFFF AND LT ISZERO PUSH2 0x1431 JUMPI PUSH1 0x40 MLOAD PUSH3 0x461BCD PUSH1 0xE5 SHL DUP2 MSTORE PUSH1 0x20 PUSH1 0x4 DUP3 ADD MSTORE PUSH1 0xB PUSH1 0x24 DUP3 ADD MSTORE PUSH11 0x5374616C65207072696365 PUSH1 0xA8 SHL PUSH1 0x44 DUP3 ADD MSTORE PUSH1 0x64 ADD PUSH2 0x519 JUMP JUMPDEST PUSH1 0x5 SLOAD PUSH2 0x143E DUP4 TIMESTAMP PUSH2 0x19D2 JUMP JUMPDEST GT ISZERO PUSH2 0x147A JUMPI PUSH1 0x40 MLOAD PUSH3 0x461BCD PUSH1 0xE5 SHL DUP2 MSTORE PUSH1 0x20 PUSH1 0x4 DUP3 ADD MSTORE PUSH1 0xB PUSH1 0x24 DUP3 ADD MSTORE PUSH11 0x5374616C65207072696365 PUSH1 0xA8 SHL PUSH1 0x44 DUP3 ADD MSTORE PUSH1 0x64 ADD PUSH2 0x519 JUMP JUMPDEST POP SWAP1 SWAP4 SWAP3 POP POP POP JUMP JUMPDEST PUSH1 0x0 DUP1 PUSH32 0x0 PUSH2 0x14B5 PUSH4 0x5F5E100 DUP7 PUSH2 0x1ABE JUMP JUMPDEST PUSH2 0x14BF SWAP2 SWAP1 PUSH2 0x1ABE JUMP JUMPDEST SWAP1 POP PUSH3 0xF4240 PUSH2 0x14CF DUP5 DUP4 PUSH2 0x1A14 JUMP JUMPDEST PUSH2 0x14D9 SWAP2 SWAP1 PUSH2 0x1A14 JUMP JUMPDEST SWAP2 POP POP JUMPDEST SWAP3 SWAP2 POP POP JUMP JUMPDEST PUSH1 0x40 MLOAD PUSH1 0x1 PUSH1 0x1 PUSH1 0xA0 SHL SUB DUP5 DUP2 AND PUSH1 0x24 DUP4 ADD MSTORE DUP4 DUP2 AND PUSH1 0x44 DUP4 ADD MSTORE PUSH1 0x64 DUP3 ADD DUP4 SWAP1 MSTORE PUSH2 0x151C SWAP2 DUP7 SWAP2 DUP3 AND SWAP1 PUSH4 0x23B872DD SWAP1 PUSH1 0x84 ADD PUSH2 0x1299 JUMP JUMPDEST POP POP POP POP JUMP JUMPDEST PUSH1 0x0 PREVRANDAO PUSH2 0x1530 PUSH1 0x1 NUMBER PUSH2 0x19D2 JUMP JUMPDEST PUSH1 0x40 DUP1 MLOAD PUSH1 0x20 DUP2 ADD SWAP4 SWAP1 SWAP4 MSTORE SWAP1 BLOCKHASH SWAP1 DUP3 ADD MSTORE PUSH12 0xFFFFFFFFFFFFFFFFFFFFFFFF NOT CALLER PUSH1 0x60 SWAP1 DUP2 SHL DUP3 AND DUP2 DUP5 ADD MSTORE PUSH1 0x74 DUP4 ADD DUP7 SWAP1 MSTORE PUSH1 0x94 DUP4 ADD DUP6 SWAP1 MSTORE ADDRESS SWAP1 SHL AND PUSH1 0xB4 DUP3 ADD MSTORE PUSH1 0xC8 ADD PUSH1 0x40 DUP1 MLOAD PUSH1 0x1F NOT DUP2 DUP5 SUB ADD DUP2 MSTORE SWAP2 SWAP1 MSTORE DUP1 MLOAD PUSH1 0x20 SWAP1 SWAP2 ADD KECCAK256 SWAP4 SWAP3 POP POP POP JUMP JUMPDEST PUSH1 0x0 DUP3 DUP2 MSTORE PUSH1 0x7 PUSH1 0x20 MSTORE PUSH1 0x40 SWAP1 KECCAK256 DUP1 SLOAD PUSH1 0x1 PUSH1 0x1 PUSH1 0xA0 SHL SUB AND PUSH2 0x15EE JUMPI PUSH1 0x40 MLOAD PUSH3 0x461BCD PUSH1 0xE5 SHL DUP2 MSTORE PUSH1 0x20 PUSH1 0x4 DUP3 ADD MSTORE PUSH1 0x11 PUSH1 0x24 DUP3 ADD MSTORE PUSH17 0x13DC195B9A5B99C81B9BDD08199BDD5B99 PUSH1 0x7A SHL PUSH1 0x44 DUP3 ADD MSTORE PUSH1 0x64 ADD PUSH2 0x519 JUMP JUMPDEST PUSH1 0x5 DUP2 ADD SLOAD PUSH1 0xFF AND ISZERO PUSH2 0x1636 JUMPI PUSH1 0x40 MLOAD PUSH3 0x461BCD PUSH1 0xE5 SHL DUP2 MSTORE PUSH1 0x20 PUSH1 0x4 DUP3 ADD MSTORE PUSH1 0x10 PUSH1 0x24 DUP3 ADD MSTORE PUSH16 0x105B1C9958591E481C995DD85C991959 PUSH1 0x82 SHL PUSH1 0x44 DUP3 ADD MSTORE PUSH1 0x64 ADD PUSH2 0x519 JUMP JUMPDEST PUSH1 0x1 DUP2 DUP2 ADD SLOAD PUSH1 0x0 SWAP1 DUP2 MSTORE PUSH1 0x6 PUSH1 0x20 SWAP1 DUP2 MSTORE PUSH1 0x40 DUP1 DUP4 KECCAK256 DUP2 MLOAD PUSH1 0xA0 DUP2 ADD DUP4 MSTORE DUP2 SLOAD DUP2 MSTORE SWAP5 DUP2 ADD SLOAD SWAP3 DUP6 ADD SWAP3 SWAP1 SWAP3 MSTORE PUSH1 0x2 DUP3 ADD SLOAD SWAP1 DUP5 ADD MSTORE PUSH1 0x3 ADD SLOAD PUSH2 0xFFFF DUP2 AND PUSH1 0x60 DUP5 ADD DUP2 SWAP1 MSTORE PUSH3 0x10000 SWAP1 SWAP2 DIV PUSH1 0xFF AND ISZERO ISZERO PUSH1 0x80 DUP5 ADD MSTORE ISZERO PUSH2 0x172D JUMPI PUSH1 0x0 PUSH2 0x16A1 PUSH2 0x2710 DUP7 PUSH2 0x1AD5 JUMP JUMPDEST SWAP1 POP PUSH1 0x0 DUP6 DUP8 PUSH1 0x40 MLOAD PUSH1 0x20 ADD PUSH2 0x16C1 SWAP3 SWAP2 SWAP1 SWAP2 DUP3 MSTORE PUSH1 0x20 DUP3 ADD MSTORE PUSH1 0x40 ADD SWAP1 JUMP JUMPDEST PUSH1 0x40 MLOAD PUSH1 0x20 DUP2 DUP4 SUB SUB DUP2 MSTORE SWAP1 PUSH1 0x40 MSTORE DUP1 MLOAD SWAP1 PUSH1 0x20 ADD KECCAK256 PUSH1 0x0 SHR SWAP1 POP DUP4 PUSH1 0x60 ADD MLOAD PUSH2 0xFFFF AND DUP3 LT ISZERO PUSH2 0x170B JUMPI PUSH2 0x1704 DUP2 DUP6 PUSH1 0x0 ADD MLOAD DUP7 PUSH1 0x40 ADD MLOAD DUP9 PUSH1 0x4 ADD SLOAD PUSH2 0x1844 JUMP JUMPDEST SWAP3 POP PUSH2 0x1726 JUMP JUMPDEST PUSH2 0x1723 DUP2 DUP6 PUSH1 0x20 ADD MLOAD DUP7 PUSH1 0x0 ADD MLOAD DUP9 PUSH1 0x4 ADD SLOAD PUSH2 0x1844 JUMP JUMPDEST SWAP3 POP JUMPDEST POP POP PUSH2 0x1748 JUMP JUMPDEST PUSH2 0x1745 DUP5 DUP4 PUSH1 0x20 ADD MLOAD DUP5 PUSH1 0x40 ADD MLOAD DUP7 PUSH1 0x4 ADD SLOAD PUSH2 0x1844 JUMP JUMPDEST SWAP1 POP JUMPDEST PUSH1 0x3 DUP4 ADD SLOAD ISZERO PUSH2 0x177A JUMPI DUP1 DUP4 PUSH1 0x3 ADD SLOAD PUSH1 0x4 SLOAD PUSH2 0x1765 SWAP2 SWAP1 PUSH2 0x19D2 JUMP JUMPDEST PUSH2 0x176F SWAP2 SWAP1 PUSH2 0x1A41 JUMP JUMPDEST PUSH1 0x4 SSTORE PUSH1 0x3 DUP4 ADD DUP2 SWAP1 SSTORE JUMPDEST PUSH1 0x2 DUP4 ADD DUP2 SWAP1 SSTORE PUSH1 0x5 DUP4 ADD DUP1 SLOAD PUSH1 0xFF NOT AND PUSH1 0x1 OR SWAP1 SSTORE PUSH1 0x40 MLOAD DUP6 SWAP1 PUSH32 0x7E7F66C93444AA5FA7F1F6B2CEC13935E33053C433ED4FA5A3070B4DB947BA5F SWAP1 PUSH2 0x17C4 SWAP1 DUP5 DUP2 MSTORE PUSH1 0x20 ADD SWAP1 JUMP JUMPDEST PUSH1 0x40 MLOAD DUP1 SWAP2 SUB SWAP1 LOG2 POP POP POP POP POP JUMP JUMPDEST PUSH1 0x0 DUP1 PUSH1 0x20 PUSH1 0x0 DUP5 MLOAD PUSH1 0x20 DUP7 ADD PUSH1 0x0 DUP9 GAS CALL DUP1 PUSH2 0x17F6 JUMPI PUSH1 0x40 MLOAD RETURNDATASIZE PUSH1 0x0 DUP3 RETURNDATACOPY RETURNDATASIZE DUP2 REVERT JUMPDEST POP POP PUSH1 0x0 MLOAD RETURNDATASIZE SWAP2 POP DUP2 ISZERO PUSH2 0x180E JUMPI DUP1 PUSH1 0x1 EQ ISZERO PUSH2 0x181B JUMP JUMPDEST PUSH1 0x1 PUSH1 0x1 PUSH1 0xA0 SHL SUB DUP5 AND EXTCODESIZE ISZERO JUMPDEST ISZERO PUSH2 0x151C JUMPI PUSH1 0x40 MLOAD PUSH4 0x5274AFE7 PUSH1 0xE0 SHL DUP2 MSTORE PUSH1 0x1 PUSH1 0x1 PUSH1 0xA0 SHL SUB DUP6 AND PUSH1 0x4 DUP3 ADD MSTORE PUSH1 0x24 ADD PUSH2 0x519 JUMP JUMPDEST PUSH1 0x0 DUP4 DUP4 GT PUSH2 0x185E JUMPI PUSH2 0x1857 DUP5 DUP4 PUSH2 0x1483 JUMP JUMPDEST SWAP1 POP PUSH2 0x18BC JUMP JUMPDEST PUSH1 0x0 PUSH2 0x186A DUP6 DUP5 PUSH2 0x1483 JUMP JUMPDEST SWAP1 POP PUSH1 0x0 PUSH2 0x1878 DUP6 DUP6 PUSH2 0x1483 JUMP JUMPDEST SWAP1 POP DUP2 DUP2 GT PUSH2 0x1889 JUMPI POP SWAP1 POP PUSH2 0x18BC JUMP JUMPDEST PUSH1 0x0 PUSH2 0x1895 DUP4 DUP4 PUSH2 0x19D2 JUMP JUMPDEST PUSH2 0x18A0 SWAP1 PUSH1 0x1 PUSH2 0x1A41 JUMP JUMPDEST SWAP1 POP PUSH2 0x18AC DUP2 DUP10 PUSH2 0x1AD5 JUMP JUMPDEST PUSH2 0x18B6 SWAP1 DUP5 PUSH2 0x1A41 JUMP JUMPDEST SWAP4 POP POP POP POP JUMPDEST SWAP5 SWAP4 POP POP POP POP JUMP JUMPDEST PUSH1 0x0 PUSH1 0x20 DUP3 DUP5 SUB SLT ISZERO PUSH2 0x18D6 JUMPI PUSH1 0x0 DUP1 REVERT JUMPDEST POP CALLDATALOAD SWAP2 SWAP1 POP JUMP JUMPDEST PUSH1 0x0 DUP1 PUSH1 0x0 DUP1 PUSH1 0x0 DUP1 PUSH1 0xC0 DUP8 DUP10 SUB SLT ISZERO PUSH2 0x18F6 JUMPI PUSH1 0x0 DUP1 REVERT JUMPDEST DUP7 CALLDATALOAD SWAP6 POP PUSH1 0x20 DUP8 ADD CALLDATALOAD SWAP5 POP PUSH1 0x40 DUP8 ADD CALLDATALOAD SWAP4 POP PUSH1 0x60 DUP8 ADD CALLDATALOAD SWAP3 POP PUSH1 0x80 DUP8 ADD CALLDATALOAD PUSH2 0xFFFF DUP2 AND DUP2 EQ PUSH2 0x1924 JUMPI PUSH1 0x0 DUP1 REVERT JUMPDEST SWAP2 POP PUSH1 0xA0 DUP8 ADD CALLDATALOAD DUP1 ISZERO ISZERO DUP2 EQ PUSH2 0x1939 JUMPI PUSH1 0x0 DUP1 REVERT JUMPDEST DUP1 SWAP2 POP POP SWAP3 SWAP6 POP SWAP3 SWAP6 POP SWAP3 SWAP6 JUMP JUMPDEST DUP1 CALLDATALOAD PUSH1 0x1 PUSH1 0x1 PUSH1 0xA0 SHL SUB DUP2 AND DUP2 EQ PUSH2 0xE28 JUMPI PUSH1 0x0 DUP1 REVERT JUMPDEST PUSH1 0x0 DUP1 PUSH1 0x0 PUSH1 0x60 DUP5 DUP7 SUB SLT ISZERO PUSH2 0x1973 JUMPI PUSH1 0x0 DUP1 REVERT JUMPDEST PUSH2 0x197C DUP5 PUSH2 0x1947 JUMP JUMPDEST SWAP3 POP PUSH2 0x198A PUSH1 0x20 DUP6 ADD PUSH2 0x1947 JUMP JUMPDEST SWAP2 POP PUSH1 0x40 DUP5 ADD CALLDATALOAD SWAP1 POP SWAP3 POP SWAP3 POP SWAP3 JUMP JUMPDEST PUSH1 0x0 PUSH1 0x20 DUP3 DUP5 SUB SLT ISZERO PUSH2 0x19AC JUMPI PUSH1 0x0 DUP1 REVERT JUMPDEST PUSH2 0x19B5 DUP3 PUSH2 0x1947 JUMP JUMPDEST SWAP4 SWAP3 POP POP POP JUMP JUMPDEST PUSH4 0x4E487B71 PUSH1 0xE0 SHL PUSH1 0x0 MSTORE PUSH1 0x11 PUSH1 0x4 MSTORE PUSH1 0x24 PUSH1 0x0 REVERT JUMPDEST DUP2 DUP2 SUB DUP2 DUP2 GT ISZERO PUSH2 0x14DD JUMPI PUSH2 0x14DD PUSH2 0x19BC JUMP JUMPDEST PUSH1 0x0 PUSH1 0x20 DUP3 DUP5 SUB SLT ISZERO PUSH2 0x19F7 JUMPI PUSH1 0x0 DUP1 REVERT JUMPDEST POP MLOAD SWAP2 SWAP1 POP JUMP JUMPDEST PUSH4 0x4E487B71 PUSH1 0xE0 SHL PUSH1 0x0 MSTORE PUSH1 0x12 PUSH1 0x4 MSTORE PUSH1 0x24 PUSH1 0x0 REVERT JUMPDEST PUSH1 0x0 DUP3 PUSH2 0x1A23 JUMPI PUSH2 0x1A23 PUSH2 0x19FE JUMP JUMPDEST POP DIV SWAP1 JUMP JUMPDEST PUSH1 0x0 PUSH1 0x1 DUP3 ADD PUSH2 0x1A3A JUMPI PUSH2 0x1A3A PUSH2 0x19BC JUMP JUMPDEST POP PUSH1 0x1 ADD SWAP1 JUMP JUMPDEST DUP1 DUP3 ADD DUP1 DUP3 GT ISZERO PUSH2 0x14DD JUMPI PUSH2 0x14DD PUSH2 0x19BC JUMP JUMPDEST DUP1 MLOAD PUSH10 0xFFFFFFFFFFFFFFFFFFFF DUP2 AND DUP2 EQ PUSH2 0xE28 JUMPI PUSH1 0x0 DUP1 REVERT JUMPDEST PUSH1 0x0 DUP1 PUSH1 0x0 DUP1 PUSH1 0x0 PUSH1 0xA0 DUP7 DUP9 SUB SLT ISZERO PUSH2 0x1A86 JUMPI PUSH1 0x0 DUP1 REVERT JUMPDEST PUSH2 0x1A8F DUP7 PUSH2 0x1A54 JUMP JUMPDEST SWAP5 POP PUSH1 0x20 DUP7 ADD MLOAD SWAP4 POP PUSH1 0x40 DUP7 ADD MLOAD SWAP3 POP PUSH1 0x60 DUP7 ADD MLOAD SWAP2 POP PUSH2 0x1AB2 PUSH1 0x80 DUP8 ADD PUSH2 0x1A54 JUMP JUMPDEST SWAP1 POP SWAP3 SWAP6 POP SWAP3 SWAP6 SWAP1 SWAP4 POP JUMP JUMPDEST DUP1 DUP3 MUL DUP2 ISZERO DUP3 DUP3 DIV DUP5 EQ OR PUSH2 0x14DD JUMPI PUSH2 0x14DD PUSH2 0x19BC JUMP JUMPDEST PUSH1 0x0 DUP3 PUSH2 0x1AE4 JUMPI PUSH2 0x1AE4 PUSH2 0x19FE JUMP JUMPDEST POP MOD SWAP1 JUMP INVALID LOG2 PUSH5 0x6970667358 0x22 SLT KECCAK256 0xB1 BYTE 0xA9 CALLVALUE SWAP15 DUP5 0xA7 0xF8 0xBF PUSH30 0x458B639954CD16BF8AC7924A006F75A5E1CC96990F9064736F6C63430008 XOR STOP CALLER "},"methodIdentifiers":{"CBBTC_SCALE()":"bfc9b279","USD_SCALE()":"f96d0baa","availableCases(uint256)":"d037005f","btcUsdDecimals()":"9d55ffb5","btcUsdFeed()":"d310d14d","btcUsdScale()":"2ef31ea4","caseTypes(uint256)":"e5849a9f","cbBtc()":"ecf3a80e","claimReward(uint256)":"ae169a50","emergencyWithdraw(address,address,uint256)":"e63ea408","getOpening(uint256)":"e3f96d7c","maxPriceAge()":"1584410a","nextOpeningId()":"767e9198","openings(uint256)":"75e20f29","owner()":"8da5cb5b","purchaseCase(uint256)":"dbe07bb9","renounceOwnership()":"715018a6","reservedReward()":"af42d5f0","setCaseType(uint256,uint256,uint256,uint256,uint16,bool)":"a839a37c","setMaxPriceAge(uint256)":"56447ce8","setTreasury(address)":"f0f44260","transferOwnership(address)":"f2fde38b","treasury()":"61d027b3","usdc()":"3e413bee"}}}}}