{"contracts/CaseSale.sol":{"CaseSale":{"abi":[{"inputs":[{"internalType":"address","name":"usdcAddress","type":"address"},{"internalType":"address","name":"cbBtcAddress","type":"address"},{"internalType":"address","name":"caseTokenAddress","type":"address"},{"internalType":"address","name":"btcUsdFeedAddress","type":"address"},{"internalType":"address","name":"treasuryAddress","type":"address"}],"stateMutability":"nonpayable","type":"constructor"},{"inputs":[{"internalType":"address","name":"owner","type":"address"}],"name":"OwnableInvalidOwner","type":"error"},{"inputs":[{"internalType":"address","name":"account","type":"address"}],"name":"OwnableUnauthorizedAccount","type":"error"},{"inputs":[],"name":"ReentrancyGuardReentrantCall","type":"error"},{"inputs":[{"internalType":"address","name":"token","type":"address"}],"name":"SafeERC20FailedOperation","type":"error"},{"anonymous":false,"inputs":[{"indexed":true,"internalType":"uint256","name":"openingId","type":"uint256"},{"indexed":true,"internalType":"address","name":"buyer","type":"address"},{"indexed":false,"internalType":"uint256","name":"rewardAmount","type":"uint256"}],"name":"CaseClaimed","type":"event"},{"anonymous":false,"inputs":[{"indexed":true,"internalType":"address","name":"buyer","type":"address"},{"indexed":true,"internalType":"uint256","name":"caseTypeId","type":"uint256"},{"indexed":true,"internalType":"uint256","name":"openingId","type":"uint256"},{"indexed":false,"internalType":"uint256","name":"priceUSDC","type":"uint256"}],"name":"CasePurchased","type":"event"},{"anonymous":false,"inputs":[{"indexed":true,"internalType":"uint256","name":"openingId","type":"uint256"},{"indexed":false,"internalType":"uint256","name":"rewardAmount","type":"uint256"}],"name":"CaseRewarded","type":"event"},{"anonymous":false,"inputs":[{"indexed":true,"internalType":"uint256","name":"caseTypeId","type":"uint256"},{"indexed":false,"internalType":"uint256","name":"priceUSDC","type":"uint256"},{"indexed":false,"internalType":"uint256","name":"minRewardUsd","type":"uint256"},{"indexed":false,"internalType":"uint256","name":"maxRewardUsd","type":"uint256"},{"indexed":false,"internalType":"uint16","name":"positiveReturnBps","type":"uint16"},{"indexed":false,"internalType":"bool","name":"enabled","type":"bool"}],"name":"CaseTypeUpdated","type":"event"},{"anonymous":false,"inputs":[{"indexed":false,"internalType":"uint256","name":"caseTypeId","type":"uint256"},{"indexed":false,"internalType":"uint256","name":"cooldownSeconds","type":"uint256"}],"name":"DailyCaseConfigured","type":"event"},{"anonymous":false,"inputs":[{"indexed":false,"internalType":"uint16","name":"caseBps","type":"uint16"},{"indexed":false,"internalType":"uint256","name":"caseMin","type":"uint256"},{"indexed":false,"internalType":"uint256","name":"caseMax","type":"uint256"},{"indexed":false,"internalType":"uint256","name":"cbBtcMin","type":"uint256"},{"indexed":false,"internalType":"uint256","name":"cbBtcMax","type":"uint256"}],"name":"DailyCaseRewardsUpdated","type":"event"},{"anonymous":false,"inputs":[{"indexed":true,"internalType":"address","name":"token","type":"address"},{"indexed":true,"internalType":"address","name":"to","type":"address"},{"indexed":false,"internalType":"uint256","name":"amount","type":"uint256"}],"name":"EmergencyWithdraw","type":"event"},{"anonymous":false,"inputs":[{"indexed":false,"internalType":"uint256","name":"maxPriceAge","type":"uint256"}],"name":"MaxPriceAgeUpdated","type":"event"},{"anonymous":false,"inputs":[{"indexed":true,"internalType":"address","name":"previousOwner","type":"address"},{"indexed":true,"internalType":"address","name":"newOwner","type":"address"}],"name":"OwnershipTransferred","type":"event"},{"anonymous":false,"inputs":[{"indexed":true,"internalType":"address","name":"treasury","type":"address"}],"name":"TreasuryUpdated","type":"event"},{"inputs":[],"name":"CBBTC_SCALE","outputs":[{"internalType":"uint256","name":"","type":"uint256"}],"stateMutability":"view","type":"function"},{"inputs":[],"name":"USD_SCALE","outputs":[{"internalType":"uint256","name":"","type":"uint256"}],"stateMutability":"view","type":"function"},{"inputs":[{"internalType":"uint256","name":"caseTypeId","type":"uint256"}],"name":"availableCases","outputs":[{"internalType":"uint256","name":"","type":"uint256"}],"stateMutability":"view","type":"function"},{"inputs":[],"name":"btcUsdDecimals","outputs":[{"internalType":"uint8","name":"","type":"uint8"}],"stateMutability":"view","type":"function"},{"inputs":[],"name":"btcUsdFeed","outputs":[{"internalType":"contract AggregatorV3Interface","name":"","type":"address"}],"stateMutability":"view","type":"function"},{"inputs":[],"name":"btcUsdScale","outputs":[{"internalType":"uint256","name":"","type":"uint256"}],"stateMutability":"view","type":"function"},{"inputs":[],"name":"caseToken","outputs":[{"internalType":"contract IERC20","name":"","type":"address"}],"stateMutability":"view","type":"function"},{"inputs":[{"internalType":"uint256","name":"","type":"uint256"}],"name":"caseTypes","outputs":[{"internalType":"uint256","name":"priceUSDC","type":"uint256"},{"internalType":"uint256","name":"minRewardUsd","type":"uint256"},{"internalType":"uint256","name":"maxRewardUsd","type":"uint256"},{"internalType":"uint16","name":"positiveReturnBps","type":"uint16"},{"internalType":"bool","name":"enabled","type":"bool"}],"stateMutability":"view","type":"function"},{"inputs":[],"name":"cbBtc","outputs":[{"internalType":"contract IERC20","name":"","type":"address"}],"stateMutability":"view","type":"function"},{"inputs":[{"internalType":"uint256","name":"openingId","type":"uint256"}],"name":"claimReward","outputs":[],"stateMutability":"nonpayable","type":"function"},{"inputs":[],"name":"dailyCaseCaseBps","outputs":[{"internalType":"uint16","name":"","type":"uint16"}],"stateMutability":"view","type":"function"},{"inputs":[],"name":"dailyCaseCaseMax","outputs":[{"internalType":"uint256","name":"","type":"uint256"}],"stateMutability":"view","type":"function"},{"inputs":[],"name":"dailyCaseCaseMin","outputs":[{"internalType":"uint256","name":"","type":"uint256"}],"stateMutability":"view","type":"function"},{"inputs":[],"name":"dailyCaseCbBtcMax","outputs":[{"internalType":"uint256","name":"","type":"uint256"}],"stateMutability":"view","type":"function"},{"inputs":[],"name":"dailyCaseCbBtcMin","outputs":[{"internalType":"uint256","name":"","type":"uint256"}],"stateMutability":"view","type":"function"},{"inputs":[],"name":"dailyCaseTypeId","outputs":[{"internalType":"uint256","name":"","type":"uint256"}],"stateMutability":"view","type":"function"},{"inputs":[],"name":"dailyCooldown","outputs":[{"internalType":"uint256","name":"","type":"uint256"}],"stateMutability":"view","type":"function"},{"inputs":[{"internalType":"address","name":"token","type":"address"},{"internalType":"address","name":"to","type":"address"},{"internalType":"uint256","name":"amount","type":"uint256"}],"name":"emergencyWithdraw","outputs":[],"stateMutability":"nonpayable","type":"function"},{"inputs":[{"internalType":"uint256","name":"openingId","type":"uint256"}],"name":"getOpening","outputs":[{"components":[{"internalType":"address","name":"buyer","type":"address"},{"internalType":"uint256","name":"caseTypeId","type":"uint256"},{"internalType":"address","name":"rewardToken","type":"address"},{"internalType":"uint256","name":"rewardAmount","type":"uint256"},{"internalType":"uint256","name":"reservedAmount","type":"uint256"},{"internalType":"uint256","name":"btcUsdPrice","type":"uint256"},{"internalType":"bool","name":"rewarded","type":"bool"},{"internalType":"bool","name":"claimed","type":"bool"}],"internalType":"struct CaseSale.Opening","name":"","type":"tuple"}],"stateMutability":"view","type":"function"},{"inputs":[{"internalType":"address","name":"","type":"address"}],"name":"lastDailyOpen","outputs":[{"internalType":"uint256","name":"","type":"uint256"}],"stateMutability":"view","type":"function"},{"inputs":[],"name":"maxPriceAge","outputs":[{"internalType":"uint256","name":"","type":"uint256"}],"stateMutability":"view","type":"function"},{"inputs":[],"name":"nextOpeningId","outputs":[{"internalType":"uint256","name":"","type":"uint256"}],"stateMutability":"view","type":"function"},{"inputs":[{"internalType":"uint256","name":"","type":"uint256"}],"name":"openings","outputs":[{"internalType":"address","name":"buyer","type":"address"},{"internalType":"uint256","name":"caseTypeId","type":"uint256"},{"internalType":"address","name":"rewardToken","type":"address"},{"internalType":"uint256","name":"rewardAmount","type":"uint256"},{"internalType":"uint256","name":"reservedAmount","type":"uint256"},{"internalType":"uint256","name":"btcUsdPrice","type":"uint256"},{"internalType":"bool","name":"rewarded","type":"bool"},{"internalType":"bool","name":"claimed","type":"bool"}],"stateMutability":"view","type":"function"},{"inputs":[],"name":"owner","outputs":[{"internalType":"address","name":"","type":"address"}],"stateMutability":"view","type":"function"},{"inputs":[{"internalType":"uint256","name":"caseTypeId","type":"uint256"}],"name":"purchaseCase","outputs":[{"internalType":"uint256","name":"openingId","type":"uint256"}],"stateMutability":"nonpayable","type":"function"},{"inputs":[],"name":"renounceOwnership","outputs":[],"stateMutability":"nonpayable","type":"function"},{"inputs":[],"name":"reservedCaseReward","outputs":[{"internalType":"uint256","name":"","type":"uint256"}],"stateMutability":"view","type":"function"},{"inputs":[],"name":"reservedCbBtcReward","outputs":[{"internalType":"uint256","name":"","type":"uint256"}],"stateMutability":"view","type":"function"},{"inputs":[{"internalType":"uint256","name":"caseTypeId","type":"uint256"},{"internalType":"uint256","name":"priceUSDC","type":"uint256"},{"internalType":"uint256","name":"minRewardUsd","type":"uint256"},{"internalType":"uint256","name":"maxRewardUsd","type":"uint256"},{"internalType":"uint16","name":"positiveReturnBps","type":"uint16"},{"internalType":"bool","name":"enabled","type":"bool"}],"name":"setCaseType","outputs":[],"stateMutability":"nonpayable","type":"function"},{"inputs":[{"internalType":"uint256","name":"caseTypeId","type":"uint256"},{"internalType":"uint256","name":"cooldownSeconds","type":"uint256"}],"name":"setDailyCase","outputs":[],"stateMutability":"nonpayable","type":"function"},{"inputs":[{"internalType":"uint16","name":"caseBps","type":"uint16"},{"internalType":"uint256","name":"caseMin","type":"uint256"},{"internalType":"uint256","name":"caseMax","type":"uint256"},{"internalType":"uint256","name":"cbBtcMin","type":"uint256"},{"internalType":"uint256","name":"cbBtcMax","type":"uint256"}],"name":"setDailyCaseRewards","outputs":[],"stateMutability":"nonpayable","type":"function"},{"inputs":[{"internalType":"uint256","name":"newMaxPriceAge","type":"uint256"}],"name":"setMaxPriceAge","outputs":[],"stateMutability":"nonpayable","type":"function"},{"inputs":[{"internalType":"address","name":"newTreasury","type":"address"}],"name":"setTreasury","outputs":[],"stateMutability":"nonpayable","type":"function"},{"inputs":[{"internalType":"address","name":"newOwner","type":"address"}],"name":"transferOwnership","outputs":[],"stateMutability":"nonpayable","type":"function"},{"inputs":[],"name":"treasury","outputs":[{"internalType":"address","name":"","type":"address"}],"stateMutability":"view","type":"function"},{"inputs":[],"name":"usdc","outputs":[{"internalType":"contract IERC20","name":"","type":"address"}],"stateMutability":"view","type":"function"}],"evm":{"bytecode":{"linkReferences":{},"object":"610140604052620151806008553480156200001957600080fd5b5060405162002cd938038062002cd98339810160408190526200003c916200036b565b600160005533806200006957604051631e4fbdf760e01b8152600060048201526024015b60405180910390fd5b6200007481620002fc565b506001600160a01b038516620000cd5760405162461bcd60e51b815260206004820152601560248201527f5553444320616464726573732072657175697265640000000000000000000000604482015260640162000060565b6001600160a01b038416620001255760405162461bcd60e51b815260206004820152601660248201527f6362425443206164647265737320726571756972656400000000000000000000604482015260640162000060565b6001600160a01b0383166200017d5760405162461bcd60e51b815260206004820152601560248201527f4341534520616464726573732072657175697265640000000000000000000000604482015260640162000060565b6001600160a01b038216620001d55760405162461bcd60e51b815260206004820152601560248201527f4254432f55534420666565642072657175697265640000000000000000000000604482015260640162000060565b6001600160a01b0381166200022d5760405162461bcd60e51b815260206004820152601960248201527f5472656173757279206164647265737320726571756972656400000000000000604482015260640162000060565b6001600160a01b0380861660805284811660a05283811660c052821660e08190526040805163313ce56760e01b8152905163313ce567916004808201926020929091908290030181865afa1580156200028a573d6000803e3d6000fd5b505050506040513d601f19601f82011682018060405250810190620002b09190620003db565b60ff16610100819052620002c690600a6200051c565b61012052600280546001600160a01b0319166001600160a01b0392909216919091179055505062015180600655506200052d9050565b600180546001600160a01b038381166001600160a01b0319831681179093556040519116919082907f8be0079c531659141344cd1fd0a4f28419497f9722a3daafe3b4186f6b6457e090600090a35050565b80516001600160a01b03811681146200036657600080fd5b919050565b600080600080600060a086880312156200038457600080fd5b6200038f866200034e565b94506200039f602087016200034e565b9350620003af604087016200034e565b9250620003bf606087016200034e565b9150620003cf608087016200034e565b90509295509295909350565b600060208284031215620003ee57600080fd5b815160ff811681146200040057600080fd5b9392505050565b634e487b7160e01b600052601160045260246000fd5b600181815b808511156200045e57816000190482111562000442576200044262000407565b808516156200045057918102915b93841c939080029062000422565b509250929050565b600082620004775750600162000516565b81620004865750600062000516565b81600181146200049f5760028114620004aa57620004ca565b600191505062000516565b60ff841115620004be57620004be62000407565b50506001821b62000516565b5060208310610133831016604e8410600b8410161715620004ef575081810a62000516565b620004fb83836200041d565b806000190482111562000512576200051262000407565b0290505b92915050565b60006200040060ff84168362000466565b60805160a05160c05160e0516101005161012051612701620005d8600039600081816102540152611fbc0152600061040e0152600081816104ed0152611e0e01526000818161049601528181610c7801528181610e0e015281816112e501526113960152600081816106f201528181610ee401528181611025015281816112bf0152818161149201528181611753015261189401526000818161027b015261182a01526127016000f3fe608060405234801561001057600080fd5b506004361061021c5760003560e01c8063a8bc2b2911610125578063da3f138d116100ad578063e63ea4081161007c578063e63ea408146106da578063ecf3a80e146106ed578063f0f4426014610714578063f2fde38b14610727578063f96d0baa1461073a57600080fd5b8063da3f138d1461050f578063dbe07bb914610518578063e3f96d7c1461052b578063e5849a9f1461066857600080fd5b8063bc4f02bb116100f4578063bc4f02bb146104b8578063bfc9b279146104c1578063c84198ec146104cc578063d037005f146104d5578063d310d14d146104e857600080fd5b8063a8bc2b2914610455578063aadce0b414610475578063ae169a501461047e578063af81d5fc1461049157600080fd5b806375e20f29116101a8578063859ffc7e11610177578063859ffc7e146103dc5780638da5cb5b146103ef5780639d436125146104005780639d55ffb514610409578063a839a37c1461044257600080fd5b806375e20f2914610306578063767e9198146103b757806379f47973146103c05780637ace5e5b146103d357600080fd5b80633e413bee116101ef5780633e413bee1461027657806356447ce8146102b55780635fe9600a146102ca57806361d027b3146102eb578063715018a6146102fe57600080fd5b80631584410a14610221578063169b0b2b1461023d5780632c3c6b50146102465780632ef31ea41461024f575b600080fd5b61022a60065481565b6040519081526020015b60405180910390f35b61022a60075481565b61022a600a5481565b61022a7f000000000000000000000000000000000000000000000000000000000000000081565b61029d7f000000000000000000000000000000000000000000000000000000000000000081565b6040516001600160a01b039091168152602001610234565b6102c86102c3366004612440565b610744565b005b6009546102d89061ffff1681565b60405161ffff9091168152602001610234565b60025461029d906001600160a01b031681565b6102c86107cf565b610369610314366004612440565b600f6020526000908152604090208054600182015460028301546003840154600485015460058601546006909601546001600160a01b0395861696949590931693919290919060ff8082169161010090041688565b604080516001600160a01b03998a168152602081019890985295909716948601949094526060850192909252608084015260a0830152151560c082015290151560e082015261010001610234565b61022a60035481565b6102c86103ce366004612459565b6107e3565b61022a600b5481565b6102c86103ea36600461248d565b61083d565b6001546001600160a01b031661029d565b61022a60055481565b6104307f000000000000000000000000000000000000000000000000000000000000000081565b60405160ff9091168152602001610234565b6102c86104503660046124cf565b610991565b61022a610463366004612547565b60106020526000908152604090205481565b61022a60085481565b6102c861048c366004612440565b610b5f565b61029d7f000000000000000000000000000000000000000000000000000000000000000081565b61022a600c5481565b61022a6305f5e10081565b61022a60045481565b61022a6104e3366004612440565b610d5c565b61029d7f000000000000000000000000000000000000000000000000000000000000000081565b61022a600d5481565b61022a610526366004612440565b6110d2565b6105fd610539366004612440565b6040805161010081018252600080825260208201819052918101829052606081018290526080810182905260a0810182905260c0810182905260e0810191909152506000908152600f60209081526040918290208251610100808201855282546001600160a01b0390811683526001840154948301949094526002830154909316938101939093526003810154606084015260048101546080840152600581015460a08401526006015460ff808216151560c085015291900416151560e082015290565b6040805182516001600160a01b03908116825260208085015190830152838301511691810191909152606080830151908201526080808301519082015260a0808301519082015260c08083015115159082015260e09182015115159181019190915261010001610234565b6106ac610676366004612440565b600e6020526000908152604090208054600182015460028301546003909301549192909161ffff81169062010000900460ff1685565b6040805195865260208601949094529284019190915261ffff1660608301521515608082015260a001610234565b6102c86106e8366004612562565b611a25565b61029d7f000000000000000000000000000000000000000000000000000000000000000081565b6102c8610722366004612547565b611c14565b6102c8610735366004612547565b611cbc565b61022a620f424081565b61074c611cf7565b600081116107945760405162461bcd60e51b815260206004820152601060248201526f13585e081859d9481c995c5d5a5c995960821b60448201526064015b60405180910390fd5b60068190556040518181527fb1740bfafb685e9cda34b9238959b40d11f603ba6db685c0468d4804140547b49060200160405180910390a150565b6107d7611cf7565b6107e16000611d24565b565b6107eb611cf7565b600782905580156107fc5760088190555b6008546040805184815260208101929092527fdeed684306aadfd99fadd35edd23389eb0c9833aa4010a4c964c065e9d160045910160405180910390a15050565b610845611cf7565b6127108561ffff1611156108895760405162461bcd60e51b815260206004820152600b60248201526a496e76616c69642042505360a81b604482015260640161078b565b838310156108ce5760405162461bcd60e51b8152602060048201526012602482015271496e76616c696420434153452072616e676560701b604482015260640161078b565b818110156109145760405162461bcd60e51b8152602060048201526013602482015272496e76616c69642063624254432072616e676560681b604482015260640161078b565b6009805461ffff191661ffff8716908117909155600a859055600b849055600c839055600d8290556040805191825260208201869052810184905260608101839052608081018290527f137ac3e5cb8f221e1737766ab8cf73af308dac49fa016bade4b53c4858299c369060a00160405180910390a15050505050565b610999611cf7565b838310156109e05760405162461bcd60e51b8152602060048201526014602482015273496e76616c6964207265776172642072616e676560601b604482015260640161078b565b8415610a38578385101580156109f65750828511155b610a385760405162461bcd60e51b81526020600482015260136024820152725072696365206f7574736964652072616e676560681b604482015260640161078b565b6127108261ffff161115610a7c5760405162461bcd60e51b815260206004820152600b60248201526a496e76616c69642042505360a81b604482015260640161078b565b6040805160a081018252868152602080820187815282840187815261ffff808816606086019081528715156080870190815260008e8152600e9096529487902095518655925160018601559051600285015590516003909301805492511515620100000262ffffff1990931693909116929092171790555186907fe7dfe3c084fa4f22acb02fd9a17bc032556708e078e8f1adf50488f30fea7c0490610b4f90889088908890889088909485526020850193909352604084019190915261ffff1660608301521515608082015260a00190565b60405180910390a2505050505050565b610b67611d76565b6000818152600f6020526040902080546001600160a01b03163314610bbb5760405162461bcd60e51b815260206004820152600a6024820152692737ba1037b832b732b960b11b604482015260640161078b565b600681015460ff16610c025760405162461bcd60e51b815260206004820152601060248201526f526577617264206e6f7420726561647960801b604482015260640161078b565b6006810154610100900460ff1615610c4e5760405162461bcd60e51b815260206004820152600f60248201526e105b1c9958591e4818db185a5b5959608a1b604482015260640161078b565b60068101805461ff001916610100179055600481015415610ce55760028101546001600160a01b037f00000000000000000000000000000000000000000000000000000000000000008116911603610cc157806004015460056000828254610cb691906125b4565b90915550610cdd9050565b806004015460046000828254610cd791906125b4565b90915550505b600060048201555b60038101546002820154610d06916001600160a01b03909116903390611da0565b336001600160a01b0316827fac4599846a321cd0603bcfdef5b7b20c1464b6e577379378c9f738ef3b0d19fb8360030154604051610d4691815260200190565b60405180910390a350610d596001600055565b50565b6000818152600e60209081526040808320815160a081018352815481526001820154938101939093526002810154918301919091526003015461ffff8116606083015262010000900460ff16151560808201819052610dbe5750600092915050565b60075483148015610dd0575060075415155b15610fc757600954600090819061ffff1615801590610df157506000600b54115b15610eac576040516370a0823160e01b81523060048201526000907f00000000000000000000000000000000000000000000000000000000000000006001600160a01b0316906370a0823190602401602060405180830381865afa158015610e5d573d6000803e3d6000fd5b505050506040513d601f19601f82011682018060405250810190610e8191906125c7565b9050600554811115610eaa57600b54600554610e9d90836125b4565b610ea791906125f6565b92505b505b60095461271061ffff909116108015610ec757506000600d54115b15610f82576040516370a0823160e01b81523060048201526000907f00000000000000000000000000000000000000000000000000000000000000006001600160a01b0316906370a0823190602401602060405180830381865afa158015610f33573d6000803e3d6000fd5b505050506040513d601f19601f82011682018060405250810190610f5791906125c7565b9050600454811115610f8057600d54600454610f7390836125b4565b610f7d91906125f6565b91505b505b60095461ffff1661271003610f9957509392505050565b60095461ffff16600003610faf57949350505050565b808210610fbc5780610fbe565b815b95945050505050565b8060400151600003610fdc5750600092915050565b6000610fe6611e04565b90506000610ff8836040015183611fb7565b90508060000361100d57506000949350505050565b6040516370a0823160e01b81523060048201526000907f00000000000000000000000000000000000000000000000000000000000000006001600160a01b0316906370a0823190602401602060405180830381865afa158015611074573d6000803e3d6000fd5b505050506040513d601f19601f8201168201806040525081019061109891906125c7565b905060045481116110af5750600095945050505050565b81600454826110be91906125b4565b6110c891906125f6565b9695505050505050565b60006110dc611d76565b6000828152600e6020908152604091829020825160a0810184528154815260018201549281019290925260028101549282019290925260039091015461ffff8116606083015262010000900460ff161515608082018190526111705760405162461bcd60e51b815260206004820152600d60248201526c10d85cd948191a5cd8589b1959609a1b604482015260640161078b565b600060075484148015611184575060075415155b9050801561120557336000908152601060205260409020546008546111a982426125b4565b10156111ed5760405162461bcd60e51b81526020600482015260136024820152722230b4b63c9031b0b9b29031b7b7b63237bbb760691b604482015260640161078b565b50336000908152601060205260409020429055611244565b81516112445760405162461bcd60e51b815260206004820152600e60248201526d10d85cd9481b9bdd08199bdd5b9960921b604482015260640161078b565b600061124e611e04565b905060036000815461125f9061260a565b9182905550935081156116e95760006112788587612017565b60095490915060009061ffff16158015906112b4575060095461ffff1661271014806112b4575060095461ffff166112b261271084612623565b105b90506000816112e3577f0000000000000000000000000000000000000000000000000000000000000000611305565b7f00000000000000000000000000000000000000000000000000000000000000005b90506000826113225761131d84600c54600d5461208a565b611331565b61133184600a54600b5461208a565b9050600081116113785760405162461bcd60e51b815260206004820152601260248201527111185a5b1e481c995dd85c99081d5b9cd95d60721b604482015260640161078b565b821561147a576040516370a0823160e01b81523060048201526000907f00000000000000000000000000000000000000000000000000000000000000006001600160a01b0316906370a0823190602401602060405180830381865afa1580156113e5573d6000803e3d6000fd5b505050506040513d601f19601f8201168201806040525081019061140991906125c7565b9050816005546114199190612637565b81101561145c5760405162461bcd60e51b8152602060048201526011602482015270496e73756666696369656e74204341534560781b604482015260640161078b565b816005600082825461146e9190612637565b90915550611572915050565b6040516370a0823160e01b81523060048201526000907f00000000000000000000000000000000000000000000000000000000000000006001600160a01b0316906370a0823190602401602060405180830381865afa1580156114e1573d6000803e3d6000fd5b505050506040513d601f19601f8201168201806040525081019061150591906125c7565b9050816004546115159190612637565b8110156115595760405162461bcd60e51b8152602060048201526012602482015271496e73756666696369656e7420636242544360701b604482015260640161078b565b816004600082825461156b9190612637565b9091555050505b604051806101000160405280336001600160a01b031681526020018a8152602001836001600160a01b03168152602001828152602001828152602001846115b957866115bc565b60005b815260016020808301829052600060409384018190528c8152600f8252839020845181546001600160a01b03199081166001600160a01b03928316178355868401519483019490945585850151600283018054909516911617909255606084015160038301556080840151600483015560a0840151600583015560c08401516006909201805460e09095015161ffff1990951692151561ff00191692909217610100941515949094029390931790558851905190815289918b9133917ff7a35f1b41370902294f55466fe05b5ebc1803195a160f64a579b0c0e86a0b0c910160405180910390a4877f7e7f66c93444aa5fa7f1f6b2cec13935e33053c433ed4fa5a3070b4db947ba5f826040516116d591815260200190565b60405180910390a250505050505050611a16565b60006116f9846040015183611fb7565b90506000811161173b5760405162461bcd60e51b815260206004820152600d60248201526c507269636520746f6f206c6f7760981b604482015260640161078b565b6040516370a0823160e01b81523060048201526000907f00000000000000000000000000000000000000000000000000000000000000006001600160a01b0316906370a0823190602401602060405180830381865afa1580156117a2573d6000803e3d6000fd5b505050506040513d601f19601f820116820180604052508101906117c691906125c7565b9050816004546117d69190612637565b8110156118105760405162461bcd60e51b815260206004820152600860248201526714dbdb19081bdd5d60c21b604482015260640161078b565b845115611858576002548551611858916001600160a01b037f0000000000000000000000000000000000000000000000000000000000000000811692339291909116906120d2565b816004600082825461186a9190612637565b92505081905550604051806101000160405280336001600160a01b031681526020018881526020017f00000000000000000000000000000000000000000000000000000000000000006001600160a01b031681526020016000815260200183815260200184815260200160001515815260200160001515815250600f600088815260200190815260200160002060008201518160000160006101000a8154816001600160a01b0302191690836001600160a01b031602179055506020820151816001015560408201518160020160006101000a8154816001600160a01b0302191690836001600160a01b03160217905550606082015181600301556080820151816004015560a0820151816005015560c08201518160060160006101000a81548160ff02191690831515021790555060e08201518160060160016101000a81548160ff02191690831515021790555090505060006119c88789612017565b90506119d48782612111565b85516040519081528790899033907ff7a35f1b41370902294f55466fe05b5ebc1803195a160f64a579b0c0e86a0b0c9060200160405180910390a45050505050505b611a206001600055565b919050565b611a2d611cf7565b6001600160a01b038316611a745760405162461bcd60e51b815260206004820152600e60248201526d151bdad95b881c995c5d5a5c995960921b604482015260640161078b565b60006001600160a01b03831615611a8b5782611a98565b6002546001600160a01b03165b90506001600160a01b038116611ae55760405162461bcd60e51b8152602060048201526012602482015271149958da5c1a595b9d081c995c5d5a5c995960721b604482015260640161078b565b6040516370a0823160e01b81523060048201526000906001600160a01b038616906370a0823190602401602060405180830381865afa158015611b2c573d6000803e3d6000fd5b505050506040513d601f19601f82011682018060405250810190611b5091906125c7565b905060008315611b605783611b62565b815b905081811115611bab5760405162461bcd60e51b8152602060048201526014602482015273496e73756666696369656e742062616c616e636560601b604482015260640161078b565b611bbf6001600160a01b0387168483611da0565b826001600160a01b0316866001600160a01b03167ff24ef89f38eadc1bde50701ad6e4d6d11a2dc24f7cf834a486991f388332850483604051611c0491815260200190565b60405180910390a3505050505050565b611c1c611cf7565b6001600160a01b038116611c725760405162461bcd60e51b815260206004820152601960248201527f5472656173757279206164647265737320726571756972656400000000000000604482015260640161078b565b600280546001600160a01b0319166001600160a01b0383169081179091556040517f7dae230f18360d76a040c81f050aa14eb9d6dc7901b20fc5d855e2a20fe814d190600090a250565b611cc4611cf7565b6001600160a01b038116611cee57604051631e4fbdf760e01b81526000600482015260240161078b565b610d5981611d24565b6001546001600160a01b031633146107e15760405163118cdaa760e01b815233600482015260240161078b565b600180546001600160a01b038381166001600160a01b0319831681179093556040519116919082907f8be0079c531659141344cd1fd0a4f28419497f9722a3daafe3b4186f6b6457e090600090a35050565b600260005403611d9957604051633ee5aeb560e01b815260040160405180910390fd5b6002600055565b6040516001600160a01b03838116602483015260448201839052611dff91859182169063a9059cbb906064015b604051602081830303815290604052915060e01b6020820180516001600160e01b03838183161783525050505061234f565b505050565b60008060008060007f00000000000000000000000000000000000000000000000000000000000000006001600160a01b031663feaf968c6040518163ffffffff1660e01b815260040160a060405180830381865afa158015611e6a573d6000803e3d6000fd5b505050506040513d601f19601f82011682018060405250810190611e8e9190612664565b94509450509350935060008313611ed35760405162461bcd60e51b815260206004820152600960248201526842616420707269636560b81b604482015260640161078b565b81600003611f0f5760405162461bcd60e51b815260206004820152600960248201526842616420707269636560b81b604482015260640161078b565b8369ffffffffffffffffffff168169ffffffffffffffffffff161015611f655760405162461bcd60e51b815260206004820152600b60248201526a5374616c6520707269636560a81b604482015260640161078b565b600654611f7283426125b4565b1115611fae5760405162461bcd60e51b815260206004820152600b60248201526a5374616c6520707269636560a81b604482015260640161078b565b50909392505050565b6000807f0000000000000000000000000000000000000000000000000000000000000000611fe96305f5e100866126b4565b611ff391906126b4565b9050620f424061200384836125f6565b61200d91906125f6565b9150505b92915050565b6000446120256001436125b4565b6040805160208101939093529040908201526bffffffffffffffffffffffff1933606090811b821681840152607483018690526094830185905230901b1660b482015260c80160408051601f1981840301815291905280516020909101209392505050565b600082821161209a5750816120cb565b60006120a684846125b4565b6120b1906001612637565b90506120bd8186612623565b6120c79085612637565b9150505b9392505050565b6040516001600160a01b03848116602483015283811660448301526064820183905261210b9186918216906323b872dd90608401611dcd565b50505050565b6000828152600f6020526040902080546001600160a01b031661216a5760405162461bcd60e51b815260206004820152601160248201527013dc195b9a5b99c81b9bdd08199bdd5b99607a1b604482015260640161078b565b600681015460ff16156121b25760405162461bcd60e51b815260206004820152601060248201526f105b1c9958591e481c995dd85c99195960821b604482015260640161078b565b6001818101546000908152600e60209081526040808320815160a0810183528154815294810154928501929092526002820154908401526003015461ffff8116606084018190526201000090910460ff1615156080840152156122a957600061221d61271086612623565b90506000858760405160200161223d929190918252602082015260400190565b6040516020818303038152906040528051906020012060001c9050836060015161ffff1682101561228757612280818560000151866040015188600501546123c0565b92506122a2565b61229f818560200151866000015188600501546123c0565b92505b50506122c4565b6122c1848360200151846040015186600501546123c0565b90505b6004830154156122f6578083600401546004546122e191906125b4565b6122eb9190612637565b600490815583018190555b6003830181905560068301805460ff1916600117905560405185907f7e7f66c93444aa5fa7f1f6b2cec13935e33053c433ed4fa5a3070b4db947ba5f906123409084815260200190565b60405180910390a25050505050565b600080602060008451602086016000885af180612372576040513d6000823e3d81fd5b50506000513d9150811561238a578060011415612397565b6001600160a01b0384163b155b1561210b57604051635274afe760e01b81526001600160a01b038516600482015260240161078b565b60008383116123da576123d38483611fb7565b9050612438565b60006123e68584611fb7565b905060006123f48585611fb7565b905081811161240557509050612438565b600061241183836125b4565b61241c906001612637565b90506124288189612623565b6124329084612637565b93505050505b949350505050565b60006020828403121561245257600080fd5b5035919050565b6000806040838503121561246c57600080fd5b50508035926020909101359150565b803561ffff81168114611a2057600080fd5b600080600080600060a086880312156124a557600080fd5b6124ae8661247b565b97602087013597506040870135966060810135965060800135945092505050565b60008060008060008060c087890312156124e857600080fd5b8635955060208701359450604087013593506060870135925061250d6080880161247b565b915060a0870135801515811461252257600080fd5b809150509295509295509295565b80356001600160a01b0381168114611a2057600080fd5b60006020828403121561255957600080fd5b6120cb82612530565b60008060006060848603121561257757600080fd5b61258084612530565b925061258e60208501612530565b9150604084013590509250925092565b634e487b7160e01b600052601160045260246000fd5b818103818111156120115761201161259e565b6000602082840312156125d957600080fd5b5051919050565b634e487b7160e01b600052601260045260246000fd5b600082612605576126056125e0565b500490565b60006001820161261c5761261c61259e565b5060010190565b600082612632576126326125e0565b500690565b808201808211156120115761201161259e565b805169ffffffffffffffffffff81168114611a2057600080fd5b600080600080600060a0868803121561267c57600080fd5b6126858661264a565b94506020860151935060408601519250606086015191506126a86080870161264a565b90509295509295909350565b80820281158282048414176120115761201161259e56fea2646970667358221220b054c4037bfb7cbaf687c83881be3ec4d9fe5599392935178f115e6c49b9fd4a64736f6c63430008180033","opcodes":"PUSH2 0x140 PUSH1 0x40 MSTORE PUSH3 0x15180 PUSH1 0x8 SSTORE CALLVALUE DUP1 ISZERO PUSH3 0x19 JUMPI PUSH1 0x0 DUP1 REVERT JUMPDEST POP PUSH1 0x40 MLOAD PUSH3 0x2CD9 CODESIZE SUB DUP1 PUSH3 0x2CD9 DUP4 CODECOPY DUP2 ADD PUSH1 0x40 DUP2 SWAP1 MSTORE PUSH3 0x3C SWAP2 PUSH3 0x36B JUMP JUMPDEST PUSH1 0x1 PUSH1 0x0 SSTORE CALLER DUP1 PUSH3 0x69 JUMPI PUSH1 0x40 MLOAD PUSH4 0x1E4FBDF7 PUSH1 0xE0 SHL DUP2 MSTORE PUSH1 0x0 PUSH1 0x4 DUP3 ADD MSTORE PUSH1 0x24 ADD JUMPDEST PUSH1 0x40 MLOAD DUP1 SWAP2 SUB SWAP1 REVERT JUMPDEST PUSH3 0x74 DUP2 PUSH3 0x2FC JUMP JUMPDEST POP PUSH1 0x1 PUSH1 0x1 PUSH1 0xA0 SHL SUB DUP6 AND PUSH3 0xCD JUMPI PUSH1 0x40 MLOAD PUSH3 0x461BCD PUSH1 0xE5 SHL DUP2 MSTORE PUSH1 0x20 PUSH1 0x4 DUP3 ADD MSTORE PUSH1 0x15 PUSH1 0x24 DUP3 ADD MSTORE PUSH32 0x5553444320616464726573732072657175697265640000000000000000000000 PUSH1 0x44 DUP3 ADD MSTORE PUSH1 0x64 ADD PUSH3 0x60 JUMP JUMPDEST PUSH1 0x1 PUSH1 0x1 PUSH1 0xA0 SHL SUB DUP5 AND PUSH3 0x125 JUMPI PUSH1 0x40 MLOAD PUSH3 0x461BCD PUSH1 0xE5 SHL DUP2 MSTORE PUSH1 0x20 PUSH1 0x4 DUP3 ADD MSTORE PUSH1 0x16 PUSH1 0x24 DUP3 ADD MSTORE PUSH32 0x6362425443206164647265737320726571756972656400000000000000000000 PUSH1 0x44 DUP3 ADD MSTORE PUSH1 0x64 ADD PUSH3 0x60 JUMP JUMPDEST PUSH1 0x1 PUSH1 0x1 PUSH1 0xA0 SHL SUB DUP4 AND PUSH3 0x17D JUMPI PUSH1 0x40 MLOAD PUSH3 0x461BCD PUSH1 0xE5 SHL DUP2 MSTORE PUSH1 0x20 PUSH1 0x4 DUP3 ADD MSTORE PUSH1 0x15 PUSH1 0x24 DUP3 ADD MSTORE PUSH32 0x4341534520616464726573732072657175697265640000000000000000000000 PUSH1 0x44 DUP3 ADD MSTORE PUSH1 0x64 ADD PUSH3 0x60 JUMP JUMPDEST PUSH1 0x1 PUSH1 0x1 PUSH1 0xA0 SHL SUB DUP3 AND PUSH3 0x1D5 JUMPI PUSH1 0x40 MLOAD PUSH3 0x461BCD PUSH1 0xE5 SHL DUP2 MSTORE PUSH1 0x20 PUSH1 0x4 DUP3 ADD MSTORE PUSH1 0x15 PUSH1 0x24 DUP3 ADD MSTORE PUSH32 0x4254432F55534420666565642072657175697265640000000000000000000000 PUSH1 0x44 DUP3 ADD MSTORE PUSH1 0x64 ADD PUSH3 0x60 JUMP JUMPDEST PUSH1 0x1 PUSH1 0x1 PUSH1 0xA0 SHL SUB DUP2 AND PUSH3 0x22D JUMPI PUSH1 0x40 MLOAD PUSH3 0x461BCD PUSH1 0xE5 SHL DUP2 MSTORE PUSH1 0x20 PUSH1 0x4 DUP3 ADD MSTORE PUSH1 0x19 PUSH1 0x24 DUP3 ADD MSTORE PUSH32 0x5472656173757279206164647265737320726571756972656400000000000000 PUSH1 0x44 DUP3 ADD MSTORE PUSH1 0x64 ADD PUSH3 0x60 JUMP JUMPDEST PUSH1 0x1 PUSH1 0x1 PUSH1 0xA0 SHL SUB DUP1 DUP7 AND PUSH1 0x80 MSTORE DUP5 DUP2 AND PUSH1 0xA0 MSTORE DUP4 DUP2 AND PUSH1 0xC0 MSTORE DUP3 AND PUSH1 0xE0 DUP2 SWAP1 MSTORE PUSH1 0x40 DUP1 MLOAD PUSH4 0x313CE567 PUSH1 0xE0 SHL DUP2 MSTORE SWAP1 MLOAD PUSH4 0x313CE567 SWAP2 PUSH1 0x4 DUP1 DUP3 ADD SWAP3 PUSH1 0x20 SWAP3 SWAP1 SWAP2 SWAP1 DUP3 SWAP1 SUB ADD DUP2 DUP7 GAS STATICCALL ISZERO DUP1 ISZERO PUSH3 0x28A JUMPI RETURNDATASIZE PUSH1 0x0 DUP1 RETURNDATACOPY RETURNDATASIZE PUSH1 0x0 REVERT JUMPDEST POP POP POP POP PUSH1 0x40 MLOAD RETURNDATASIZE PUSH1 0x1F NOT PUSH1 0x1F DUP3 ADD AND DUP3 ADD DUP1 PUSH1 0x40 MSTORE POP DUP2 ADD SWAP1 PUSH3 0x2B0 SWAP2 SWAP1 PUSH3 0x3DB JUMP JUMPDEST PUSH1 0xFF AND PUSH2 0x100 DUP2 SWAP1 MSTORE PUSH3 0x2C6 SWAP1 PUSH1 0xA PUSH3 0x51C JUMP JUMPDEST PUSH2 0x120 MSTORE PUSH1 0x2 DUP1 SLOAD PUSH1 0x1 PUSH1 0x1 PUSH1 0xA0 SHL SUB NOT AND PUSH1 0x1 PUSH1 0x1 PUSH1 0xA0 SHL SUB SWAP3 SWAP1 SWAP3 AND SWAP2 SWAP1 SWAP2 OR SWAP1 SSTORE POP POP PUSH3 0x15180 PUSH1 0x6 SSTORE POP PUSH3 0x52D SWAP1 POP JUMP JUMPDEST PUSH1 0x1 DUP1 SLOAD PUSH1 0x1 PUSH1 0x1 PUSH1 0xA0 SHL SUB DUP4 DUP2 AND PUSH1 0x1 PUSH1 0x1 PUSH1 0xA0 SHL SUB NOT DUP4 AND DUP2 OR SWAP1 SWAP4 SSTORE PUSH1 0x40 MLOAD SWAP2 AND SWAP2 SWAP1 DUP3 SWAP1 PUSH32 0x8BE0079C531659141344CD1FD0A4F28419497F9722A3DAAFE3B4186F6B6457E0 SWAP1 PUSH1 0x0 SWAP1 LOG3 POP POP JUMP JUMPDEST DUP1 MLOAD PUSH1 0x1 PUSH1 0x1 PUSH1 0xA0 SHL SUB DUP2 AND DUP2 EQ PUSH3 0x366 JUMPI PUSH1 0x0 DUP1 REVERT JUMPDEST SWAP2 SWAP1 POP JUMP JUMPDEST PUSH1 0x0 DUP1 PUSH1 0x0 DUP1 PUSH1 0x0 PUSH1 0xA0 DUP7 DUP9 SUB SLT ISZERO PUSH3 0x384 JUMPI PUSH1 0x0 DUP1 REVERT JUMPDEST PUSH3 0x38F DUP7 PUSH3 0x34E JUMP JUMPDEST SWAP5 POP PUSH3 0x39F PUSH1 0x20 DUP8 ADD PUSH3 0x34E JUMP JUMPDEST SWAP4 POP PUSH3 0x3AF PUSH1 0x40 DUP8 ADD PUSH3 0x34E JUMP JUMPDEST SWAP3 POP PUSH3 0x3BF PUSH1 0x60 DUP8 ADD PUSH3 0x34E JUMP JUMPDEST SWAP2 POP PUSH3 0x3CF PUSH1 0x80 DUP8 ADD PUSH3 0x34E JUMP JUMPDEST SWAP1 POP SWAP3 SWAP6 POP SWAP3 SWAP6 SWAP1 SWAP4 POP JUMP JUMPDEST PUSH1 0x0 PUSH1 0x20 DUP3 DUP5 SUB SLT ISZERO PUSH3 0x3EE JUMPI PUSH1 0x0 DUP1 REVERT JUMPDEST DUP2 MLOAD PUSH1 0xFF DUP2 AND DUP2 EQ PUSH3 0x400 JUMPI PUSH1 0x0 DUP1 REVERT JUMPDEST SWAP4 SWAP3 POP POP POP JUMP JUMPDEST PUSH4 0x4E487B71 PUSH1 0xE0 SHL PUSH1 0x0 MSTORE PUSH1 0x11 PUSH1 0x4 MSTORE PUSH1 0x24 PUSH1 0x0 REVERT JUMPDEST PUSH1 0x1 DUP2 DUP2 JUMPDEST DUP1 DUP6 GT ISZERO PUSH3 0x45E JUMPI DUP2 PUSH1 0x0 NOT DIV DUP3 GT ISZERO PUSH3 0x442 JUMPI PUSH3 0x442 PUSH3 0x407 JUMP JUMPDEST DUP1 DUP6 AND ISZERO PUSH3 0x450 JUMPI SWAP2 DUP2 MUL SWAP2 JUMPDEST SWAP4 DUP5 SHR SWAP4 SWAP1 DUP1 MUL SWAP1 PUSH3 0x422 JUMP JUMPDEST POP SWAP3 POP SWAP3 SWAP1 POP JUMP JUMPDEST PUSH1 0x0 DUP3 PUSH3 0x477 JUMPI POP PUSH1 0x1 PUSH3 0x516 JUMP JUMPDEST DUP2 PUSH3 0x486 JUMPI POP PUSH1 0x0 PUSH3 0x516 JUMP JUMPDEST DUP2 PUSH1 0x1 DUP2 EQ PUSH3 0x49F JUMPI PUSH1 0x2 DUP2 EQ PUSH3 0x4AA JUMPI PUSH3 0x4CA JUMP JUMPDEST PUSH1 0x1 SWAP2 POP POP PUSH3 0x516 JUMP JUMPDEST PUSH1 0xFF DUP5 GT ISZERO PUSH3 0x4BE JUMPI PUSH3 0x4BE PUSH3 0x407 JUMP JUMPDEST POP POP PUSH1 0x1 DUP3 SHL PUSH3 0x516 JUMP JUMPDEST POP PUSH1 0x20 DUP4 LT PUSH2 0x133 DUP4 LT AND PUSH1 0x4E DUP5 LT PUSH1 0xB DUP5 LT AND OR ISZERO PUSH3 0x4EF JUMPI POP DUP2 DUP2 EXP PUSH3 0x516 JUMP JUMPDEST PUSH3 0x4FB DUP4 DUP4 PUSH3 0x41D JUMP JUMPDEST DUP1 PUSH1 0x0 NOT DIV DUP3 GT ISZERO PUSH3 0x512 JUMPI PUSH3 0x512 PUSH3 0x407 JUMP JUMPDEST MUL SWAP1 POP JUMPDEST SWAP3 SWAP2 POP POP JUMP JUMPDEST PUSH1 0x0 PUSH3 0x400 PUSH1 0xFF DUP5 AND DUP4 PUSH3 0x466 JUMP JUMPDEST PUSH1 0x80 MLOAD PUSH1 0xA0 MLOAD PUSH1 0xC0 MLOAD PUSH1 0xE0 MLOAD PUSH2 0x100 MLOAD PUSH2 0x120 MLOAD PUSH2 0x2701 PUSH3 0x5D8 PUSH1 0x0 CODECOPY PUSH1 0x0 DUP2 DUP2 PUSH2 0x254 ADD MSTORE PUSH2 0x1FBC ADD MSTORE PUSH1 0x0 PUSH2 0x40E ADD MSTORE PUSH1 0x0 DUP2 DUP2 PUSH2 0x4ED ADD MSTORE PUSH2 0x1E0E ADD MSTORE PUSH1 0x0 DUP2 DUP2 PUSH2 0x496 ADD MSTORE DUP2 DUP2 PUSH2 0xC78 ADD MSTORE DUP2 DUP2 PUSH2 0xE0E ADD MSTORE DUP2 DUP2 PUSH2 0x12E5 ADD MSTORE PUSH2 0x1396 ADD MSTORE PUSH1 0x0 DUP2 DUP2 PUSH2 0x6F2 ADD MSTORE DUP2 DUP2 PUSH2 0xEE4 ADD MSTORE DUP2 DUP2 PUSH2 0x1025 ADD MSTORE DUP2 DUP2 PUSH2 0x12BF ADD MSTORE DUP2 DUP2 PUSH2 0x1492 ADD MSTORE DUP2 DUP2 PUSH2 0x1753 ADD MSTORE PUSH2 0x1894 ADD MSTORE PUSH1 0x0 DUP2 DUP2 PUSH2 0x27B ADD MSTORE PUSH2 0x182A ADD MSTORE PUSH2 0x2701 PUSH1 0x0 RETURN INVALID PUSH1 0x80 PUSH1 0x40 MSTORE CALLVALUE DUP1 ISZERO PUSH2 0x10 JUMPI PUSH1 0x0 DUP1 REVERT JUMPDEST POP PUSH1 0x4 CALLDATASIZE LT PUSH2 0x21C JUMPI PUSH1 0x0 CALLDATALOAD PUSH1 0xE0 SHR DUP1 PUSH4 0xA8BC2B29 GT PUSH2 0x125 JUMPI DUP1 PUSH4 0xDA3F138D GT PUSH2 0xAD JUMPI DUP1 PUSH4 0xE63EA408 GT PUSH2 0x7C JUMPI DUP1 PUSH4 0xE63EA408 EQ PUSH2 0x6DA JUMPI DUP1 PUSH4 0xECF3A80E EQ PUSH2 0x6ED JUMPI DUP1 PUSH4 0xF0F44260 EQ PUSH2 0x714 JUMPI DUP1 PUSH4 0xF2FDE38B EQ PUSH2 0x727 JUMPI DUP1 PUSH4 0xF96D0BAA EQ PUSH2 0x73A JUMPI PUSH1 0x0 DUP1 REVERT JUMPDEST DUP1 PUSH4 0xDA3F138D EQ PUSH2 0x50F JUMPI DUP1 PUSH4 0xDBE07BB9 EQ PUSH2 0x518 JUMPI DUP1 PUSH4 0xE3F96D7C EQ PUSH2 0x52B JUMPI DUP1 PUSH4 0xE5849A9F EQ PUSH2 0x668 JUMPI PUSH1 0x0 DUP1 REVERT JUMPDEST DUP1 PUSH4 0xBC4F02BB GT PUSH2 0xF4 JUMPI DUP1 PUSH4 0xBC4F02BB EQ PUSH2 0x4B8 JUMPI DUP1 PUSH4 0xBFC9B279 EQ PUSH2 0x4C1 JUMPI DUP1 PUSH4 0xC84198EC EQ PUSH2 0x4CC JUMPI DUP1 PUSH4 0xD037005F EQ PUSH2 0x4D5 JUMPI DUP1 PUSH4 0xD310D14D EQ PUSH2 0x4E8 JUMPI PUSH1 0x0 DUP1 REVERT JUMPDEST DUP1 PUSH4 0xA8BC2B29 EQ PUSH2 0x455 JUMPI DUP1 PUSH4 0xAADCE0B4 EQ PUSH2 0x475 JUMPI DUP1 PUSH4 0xAE169A50 EQ PUSH2 0x47E JUMPI DUP1 PUSH4 0xAF81D5FC EQ PUSH2 0x491 JUMPI PUSH1 0x0 DUP1 REVERT JUMPDEST DUP1 PUSH4 0x75E20F29 GT PUSH2 0x1A8 JUMPI DUP1 PUSH4 0x859FFC7E GT PUSH2 0x177 JUMPI DUP1 PUSH4 0x859FFC7E EQ PUSH2 0x3DC JUMPI DUP1 PUSH4 0x8DA5CB5B EQ PUSH2 0x3EF JUMPI DUP1 PUSH4 0x9D436125 EQ PUSH2 0x400 JUMPI DUP1 PUSH4 0x9D55FFB5 EQ PUSH2 0x409 JUMPI DUP1 PUSH4 0xA839A37C EQ PUSH2 0x442 JUMPI PUSH1 0x0 DUP1 REVERT JUMPDEST DUP1 PUSH4 0x75E20F29 EQ PUSH2 0x306 JUMPI DUP1 PUSH4 0x767E9198 EQ PUSH2 0x3B7 JUMPI DUP1 PUSH4 0x79F47973 EQ PUSH2 0x3C0 JUMPI DUP1 PUSH4 0x7ACE5E5B EQ PUSH2 0x3D3 JUMPI PUSH1 0x0 DUP1 REVERT JUMPDEST DUP1 PUSH4 0x3E413BEE GT PUSH2 0x1EF JUMPI DUP1 PUSH4 0x3E413BEE EQ PUSH2 0x276 JUMPI DUP1 PUSH4 0x56447CE8 EQ PUSH2 0x2B5 JUMPI DUP1 PUSH4 0x5FE9600A EQ PUSH2 0x2CA JUMPI DUP1 PUSH4 0x61D027B3 EQ PUSH2 0x2EB JUMPI DUP1 PUSH4 0x715018A6 EQ PUSH2 0x2FE JUMPI PUSH1 0x0 DUP1 REVERT JUMPDEST DUP1 PUSH4 0x1584410A EQ PUSH2 0x221 JUMPI DUP1 PUSH4 0x169B0B2B EQ PUSH2 0x23D JUMPI DUP1 PUSH4 0x2C3C6B50 EQ PUSH2 0x246 JUMPI DUP1 PUSH4 0x2EF31EA4 EQ PUSH2 0x24F JUMPI JUMPDEST PUSH1 0x0 DUP1 REVERT JUMPDEST PUSH2 0x22A PUSH1 0x6 SLOAD DUP2 JUMP JUMPDEST PUSH1 0x40 MLOAD SWAP1 DUP2 MSTORE PUSH1 0x20 ADD JUMPDEST PUSH1 0x40 MLOAD DUP1 SWAP2 SUB SWAP1 RETURN JUMPDEST PUSH2 0x22A PUSH1 0x7 SLOAD DUP2 JUMP JUMPDEST PUSH2 0x22A PUSH1 0xA SLOAD DUP2 JUMP JUMPDEST PUSH2 0x22A PUSH32 0x0 DUP2 JUMP JUMPDEST PUSH2 0x29D PUSH32 0x0 DUP2 JUMP JUMPDEST PUSH1 0x40 MLOAD PUSH1 0x1 PUSH1 0x1 PUSH1 0xA0 SHL SUB SWAP1 SWAP2 AND DUP2 MSTORE PUSH1 0x20 ADD PUSH2 0x234 JUMP JUMPDEST PUSH2 0x2C8 PUSH2 0x2C3 CALLDATASIZE PUSH1 0x4 PUSH2 0x2440 JUMP JUMPDEST PUSH2 0x744 JUMP JUMPDEST STOP JUMPDEST PUSH1 0x9 SLOAD PUSH2 0x2D8 SWAP1 PUSH2 0xFFFF AND DUP2 JUMP JUMPDEST PUSH1 0x40 MLOAD PUSH2 0xFFFF SWAP1 SWAP2 AND DUP2 MSTORE PUSH1 0x20 ADD PUSH2 0x234 JUMP JUMPDEST PUSH1 0x2 SLOAD PUSH2 0x29D SWAP1 PUSH1 0x1 PUSH1 0x1 PUSH1 0xA0 SHL SUB AND DUP2 JUMP JUMPDEST PUSH2 0x2C8 PUSH2 0x7CF JUMP JUMPDEST PUSH2 0x369 PUSH2 0x314 CALLDATASIZE PUSH1 0x4 PUSH2 0x2440 JUMP JUMPDEST PUSH1 0xF PUSH1 0x20 MSTORE PUSH1 0x0 SWAP1 DUP2 MSTORE PUSH1 0x40 SWAP1 KECCAK256 DUP1 SLOAD PUSH1 0x1 DUP3 ADD SLOAD PUSH1 0x2 DUP4 ADD SLOAD PUSH1 0x3 DUP5 ADD SLOAD PUSH1 0x4 DUP6 ADD SLOAD PUSH1 0x5 DUP7 ADD SLOAD PUSH1 0x6 SWAP1 SWAP7 ADD SLOAD PUSH1 0x1 PUSH1 0x1 PUSH1 0xA0 SHL SUB SWAP6 DUP7 AND SWAP7 SWAP5 SWAP6 SWAP1 SWAP4 AND SWAP4 SWAP2 SWAP3 SWAP1 SWAP2 SWAP1 PUSH1 0xFF DUP1 DUP3 AND SWAP2 PUSH2 0x100 SWAP1 DIV AND DUP9 JUMP JUMPDEST PUSH1 0x40 DUP1 MLOAD PUSH1 0x1 PUSH1 0x1 PUSH1 0xA0 SHL SUB SWAP10 DUP11 AND DUP2 MSTORE PUSH1 0x20 DUP2 ADD SWAP9 SWAP1 SWAP9 MSTORE SWAP6 SWAP1 SWAP8 AND SWAP5 DUP7 ADD SWAP5 SWAP1 SWAP5 MSTORE PUSH1 0x60 DUP6 ADD SWAP3 SWAP1 SWAP3 MSTORE PUSH1 0x80 DUP5 ADD MSTORE PUSH1 0xA0 DUP4 ADD MSTORE ISZERO ISZERO PUSH1 0xC0 DUP3 ADD MSTORE SWAP1 ISZERO ISZERO PUSH1 0xE0 DUP3 ADD MSTORE PUSH2 0x100 ADD PUSH2 0x234 JUMP JUMPDEST PUSH2 0x22A PUSH1 0x3 SLOAD DUP2 JUMP JUMPDEST PUSH2 0x2C8 PUSH2 0x3CE CALLDATASIZE PUSH1 0x4 PUSH2 0x2459 JUMP JUMPDEST PUSH2 0x7E3 JUMP JUMPDEST PUSH2 0x22A PUSH1 0xB SLOAD DUP2 JUMP JUMPDEST PUSH2 0x2C8 PUSH2 0x3EA CALLDATASIZE PUSH1 0x4 PUSH2 0x248D JUMP JUMPDEST PUSH2 0x83D JUMP JUMPDEST PUSH1 0x1 SLOAD PUSH1 0x1 PUSH1 0x1 PUSH1 0xA0 SHL SUB AND PUSH2 0x29D JUMP JUMPDEST PUSH2 0x22A PUSH1 0x5 SLOAD DUP2 JUMP JUMPDEST PUSH2 0x430 PUSH32 0x0 DUP2 JUMP JUMPDEST PUSH1 0x40 MLOAD PUSH1 0xFF SWAP1 SWAP2 AND DUP2 MSTORE PUSH1 0x20 ADD PUSH2 0x234 JUMP JUMPDEST PUSH2 0x2C8 PUSH2 0x450 CALLDATASIZE PUSH1 0x4 PUSH2 0x24CF JUMP JUMPDEST PUSH2 0x991 JUMP JUMPDEST PUSH2 0x22A PUSH2 0x463 CALLDATASIZE PUSH1 0x4 PUSH2 0x2547 JUMP JUMPDEST PUSH1 0x10 PUSH1 0x20 MSTORE PUSH1 0x0 SWAP1 DUP2 MSTORE PUSH1 0x40 SWAP1 KECCAK256 SLOAD DUP2 JUMP JUMPDEST PUSH2 0x22A PUSH1 0x8 SLOAD DUP2 JUMP JUMPDEST PUSH2 0x2C8 PUSH2 0x48C CALLDATASIZE PUSH1 0x4 PUSH2 0x2440 JUMP JUMPDEST PUSH2 0xB5F JUMP JUMPDEST PUSH2 0x29D PUSH32 0x0 DUP2 JUMP JUMPDEST PUSH2 0x22A PUSH1 0xC SLOAD DUP2 JUMP JUMPDEST PUSH2 0x22A PUSH4 0x5F5E100 DUP2 JUMP JUMPDEST PUSH2 0x22A PUSH1 0x4 SLOAD DUP2 JUMP JUMPDEST PUSH2 0x22A PUSH2 0x4E3 CALLDATASIZE PUSH1 0x4 PUSH2 0x2440 JUMP JUMPDEST PUSH2 0xD5C JUMP JUMPDEST PUSH2 0x29D PUSH32 0x0 DUP2 JUMP JUMPDEST PUSH2 0x22A PUSH1 0xD SLOAD DUP2 JUMP JUMPDEST PUSH2 0x22A PUSH2 0x526 CALLDATASIZE PUSH1 0x4 PUSH2 0x2440 JUMP JUMPDEST PUSH2 0x10D2 JUMP JUMPDEST PUSH2 0x5FD PUSH2 0x539 CALLDATASIZE PUSH1 0x4 PUSH2 0x2440 JUMP JUMPDEST PUSH1 0x40 DUP1 MLOAD PUSH2 0x100 DUP2 ADD DUP3 MSTORE PUSH1 0x0 DUP1 DUP3 MSTORE PUSH1 0x20 DUP3 ADD DUP2 SWAP1 MSTORE SWAP2 DUP2 ADD DUP3 SWAP1 MSTORE PUSH1 0x60 DUP2 ADD DUP3 SWAP1 MSTORE PUSH1 0x80 DUP2 ADD DUP3 SWAP1 MSTORE PUSH1 0xA0 DUP2 ADD DUP3 SWAP1 MSTORE PUSH1 0xC0 DUP2 ADD DUP3 SWAP1 MSTORE PUSH1 0xE0 DUP2 ADD SWAP2 SWAP1 SWAP2 MSTORE POP PUSH1 0x0 SWAP1 DUP2 MSTORE PUSH1 0xF PUSH1 0x20 SWAP1 DUP2 MSTORE PUSH1 0x40 SWAP2 DUP3 SWAP1 KECCAK256 DUP3 MLOAD PUSH2 0x100 DUP1 DUP3 ADD DUP6 MSTORE DUP3 SLOAD PUSH1 0x1 PUSH1 0x1 PUSH1 0xA0 SHL SUB SWAP1 DUP2 AND DUP4 MSTORE PUSH1 0x1 DUP5 ADD SLOAD SWAP5 DUP4 ADD SWAP5 SWAP1 SWAP5 MSTORE PUSH1 0x2 DUP4 ADD SLOAD SWAP1 SWAP4 AND SWAP4 DUP2 ADD SWAP4 SWAP1 SWAP4 MSTORE PUSH1 0x3 DUP2 ADD SLOAD PUSH1 0x60 DUP5 ADD MSTORE PUSH1 0x4 DUP2 ADD SLOAD PUSH1 0x80 DUP5 ADD MSTORE PUSH1 0x5 DUP2 ADD SLOAD PUSH1 0xA0 DUP5 ADD MSTORE PUSH1 0x6 ADD SLOAD PUSH1 0xFF DUP1 DUP3 AND ISZERO ISZERO PUSH1 0xC0 DUP6 ADD MSTORE SWAP2 SWAP1 DIV AND ISZERO ISZERO PUSH1 0xE0 DUP3 ADD MSTORE SWAP1 JUMP JUMPDEST PUSH1 0x40 DUP1 MLOAD DUP3 MLOAD PUSH1 0x1 PUSH1 0x1 PUSH1 0xA0 SHL SUB SWAP1 DUP2 AND DUP3 MSTORE PUSH1 0x20 DUP1 DUP6 ADD MLOAD SWAP1 DUP4 ADD MSTORE DUP4 DUP4 ADD MLOAD AND SWAP2 DUP2 ADD SWAP2 SWAP1 SWAP2 MSTORE PUSH1 0x60 DUP1 DUP4 ADD MLOAD SWAP1 DUP3 ADD MSTORE PUSH1 0x80 DUP1 DUP4 ADD MLOAD SWAP1 DUP3 ADD MSTORE PUSH1 0xA0 DUP1 DUP4 ADD MLOAD SWAP1 DUP3 ADD MSTORE PUSH1 0xC0 DUP1 DUP4 ADD MLOAD ISZERO ISZERO SWAP1 DUP3 ADD MSTORE PUSH1 0xE0 SWAP2 DUP3 ADD MLOAD ISZERO ISZERO SWAP2 DUP2 ADD SWAP2 SWAP1 SWAP2 MSTORE PUSH2 0x100 ADD PUSH2 0x234 JUMP JUMPDEST PUSH2 0x6AC PUSH2 0x676 CALLDATASIZE PUSH1 0x4 PUSH2 0x2440 JUMP JUMPDEST PUSH1 0xE PUSH1 0x20 MSTORE PUSH1 0x0 SWAP1 DUP2 MSTORE PUSH1 0x40 SWAP1 KECCAK256 DUP1 SLOAD PUSH1 0x1 DUP3 ADD SLOAD PUSH1 0x2 DUP4 ADD SLOAD PUSH1 0x3 SWAP1 SWAP4 ADD SLOAD SWAP2 SWAP3 SWAP1 SWAP2 PUSH2 0xFFFF DUP2 AND SWAP1 PUSH3 0x10000 SWAP1 DIV PUSH1 0xFF AND DUP6 JUMP JUMPDEST PUSH1 0x40 DUP1 MLOAD SWAP6 DUP7 MSTORE PUSH1 0x20 DUP7 ADD SWAP5 SWAP1 SWAP5 MSTORE SWAP3 DUP5 ADD SWAP2 SWAP1 SWAP2 MSTORE PUSH2 0xFFFF AND PUSH1 0x60 DUP4 ADD MSTORE ISZERO ISZERO PUSH1 0x80 DUP3 ADD MSTORE PUSH1 0xA0 ADD PUSH2 0x234 JUMP JUMPDEST PUSH2 0x2C8 PUSH2 0x6E8 CALLDATASIZE PUSH1 0x4 PUSH2 0x2562 JUMP JUMPDEST PUSH2 0x1A25 JUMP JUMPDEST PUSH2 0x29D PUSH32 0x0 DUP2 JUMP JUMPDEST PUSH2 0x2C8 PUSH2 0x722 CALLDATASIZE PUSH1 0x4 PUSH2 0x2547 JUMP JUMPDEST PUSH2 0x1C14 JUMP JUMPDEST PUSH2 0x2C8 PUSH2 0x735 CALLDATASIZE PUSH1 0x4 PUSH2 0x2547 JUMP JUMPDEST PUSH2 0x1CBC JUMP JUMPDEST PUSH2 0x22A PUSH3 0xF4240 DUP2 JUMP JUMPDEST PUSH2 0x74C PUSH2 0x1CF7 JUMP JUMPDEST PUSH1 0x0 DUP2 GT PUSH2 0x794 JUMPI PUSH1 0x40 MLOAD PUSH3 0x461BCD PUSH1 0xE5 SHL DUP2 MSTORE PUSH1 0x20 PUSH1 0x4 DUP3 ADD MSTORE PUSH1 0x10 PUSH1 0x24 DUP3 ADD MSTORE PUSH16 0x13585E081859D9481C995C5D5A5C9959 PUSH1 0x82 SHL PUSH1 0x44 DUP3 ADD MSTORE PUSH1 0x64 ADD JUMPDEST PUSH1 0x40 MLOAD DUP1 SWAP2 SUB SWAP1 REVERT JUMPDEST PUSH1 0x6 DUP2 SWAP1 SSTORE PUSH1 0x40 MLOAD DUP2 DUP2 MSTORE PUSH32 0xB1740BFAFB685E9CDA34B9238959B40D11F603BA6DB685C0468D4804140547B4 SWAP1 PUSH1 0x20 ADD PUSH1 0x40 MLOAD DUP1 SWAP2 SUB SWAP1 LOG1 POP JUMP JUMPDEST PUSH2 0x7D7 PUSH2 0x1CF7 JUMP JUMPDEST PUSH2 0x7E1 PUSH1 0x0 PUSH2 0x1D24 JUMP JUMPDEST JUMP JUMPDEST PUSH2 0x7EB PUSH2 0x1CF7 JUMP JUMPDEST PUSH1 0x7 DUP3 SWAP1 SSTORE DUP1 ISZERO PUSH2 0x7FC JUMPI PUSH1 0x8 DUP2 SWAP1 SSTORE JUMPDEST PUSH1 0x8 SLOAD PUSH1 0x40 DUP1 MLOAD DUP5 DUP2 MSTORE PUSH1 0x20 DUP2 ADD SWAP3 SWAP1 SWAP3 MSTORE PUSH32 0xDEED684306AADFD99FADD35EDD23389EB0C9833AA4010A4C964C065E9D160045 SWAP2 ADD PUSH1 0x40 MLOAD DUP1 SWAP2 SUB SWAP1 LOG1 POP POP JUMP JUMPDEST PUSH2 0x845 PUSH2 0x1CF7 JUMP JUMPDEST PUSH2 0x2710 DUP6 PUSH2 0xFFFF AND GT ISZERO PUSH2 0x889 JUMPI PUSH1 0x40 MLOAD PUSH3 0x461BCD PUSH1 0xE5 SHL DUP2 MSTORE PUSH1 0x20 PUSH1 0x4 DUP3 ADD MSTORE PUSH1 0xB PUSH1 0x24 DUP3 ADD MSTORE PUSH11 0x496E76616C696420425053 PUSH1 0xA8 SHL PUSH1 0x44 DUP3 ADD MSTORE PUSH1 0x64 ADD PUSH2 0x78B JUMP JUMPDEST DUP4 DUP4 LT ISZERO PUSH2 0x8CE JUMPI PUSH1 0x40 MLOAD PUSH3 0x461BCD PUSH1 0xE5 SHL DUP2 MSTORE PUSH1 0x20 PUSH1 0x4 DUP3 ADD MSTORE PUSH1 0x12 PUSH1 0x24 DUP3 ADD MSTORE PUSH18 0x496E76616C696420434153452072616E6765 PUSH1 0x70 SHL PUSH1 0x44 DUP3 ADD MSTORE PUSH1 0x64 ADD PUSH2 0x78B JUMP JUMPDEST DUP2 DUP2 LT ISZERO PUSH2 0x914 JUMPI PUSH1 0x40 MLOAD PUSH3 0x461BCD PUSH1 0xE5 SHL DUP2 MSTORE PUSH1 0x20 PUSH1 0x4 DUP3 ADD MSTORE PUSH1 0x13 PUSH1 0x24 DUP3 ADD MSTORE PUSH19 0x496E76616C69642063624254432072616E6765 PUSH1 0x68 SHL PUSH1 0x44 DUP3 ADD MSTORE PUSH1 0x64 ADD PUSH2 0x78B JUMP JUMPDEST PUSH1 0x9 DUP1 SLOAD PUSH2 0xFFFF NOT AND PUSH2 0xFFFF DUP8 AND SWAP1 DUP2 OR SWAP1 SWAP2 SSTORE PUSH1 0xA DUP6 SWAP1 SSTORE PUSH1 0xB DUP5 SWAP1 SSTORE PUSH1 0xC DUP4 SWAP1 SSTORE PUSH1 0xD DUP3 SWAP1 SSTORE PUSH1 0x40 DUP1 MLOAD SWAP2 DUP3 MSTORE PUSH1 0x20 DUP3 ADD DUP7 SWAP1 MSTORE DUP2 ADD DUP5 SWAP1 MSTORE PUSH1 0x60 DUP2 ADD DUP4 SWAP1 MSTORE PUSH1 0x80 DUP2 ADD DUP3 SWAP1 MSTORE PUSH32 0x137AC3E5CB8F221E1737766AB8CF73AF308DAC49FA016BADE4B53C4858299C36 SWAP1 PUSH1 0xA0 ADD PUSH1 0x40 MLOAD DUP1 SWAP2 SUB SWAP1 LOG1 POP POP POP POP POP JUMP JUMPDEST PUSH2 0x999 PUSH2 0x1CF7 JUMP JUMPDEST DUP4 DUP4 LT ISZERO PUSH2 0x9E0 JUMPI PUSH1 0x40 MLOAD PUSH3 0x461BCD PUSH1 0xE5 SHL DUP2 MSTORE PUSH1 0x20 PUSH1 0x4 DUP3 ADD MSTORE PUSH1 0x14 PUSH1 0x24 DUP3 ADD MSTORE PUSH20 0x496E76616C6964207265776172642072616E6765 PUSH1 0x60 SHL PUSH1 0x44 DUP3 ADD MSTORE PUSH1 0x64 ADD PUSH2 0x78B JUMP JUMPDEST DUP5 ISZERO PUSH2 0xA38 JUMPI DUP4 DUP6 LT ISZERO DUP1 ISZERO PUSH2 0x9F6 JUMPI POP DUP3 DUP6 GT ISZERO JUMPDEST PUSH2 0xA38 JUMPI PUSH1 0x40 MLOAD PUSH3 0x461BCD PUSH1 0xE5 SHL DUP2 MSTORE PUSH1 0x20 PUSH1 0x4 DUP3 ADD MSTORE PUSH1 0x13 PUSH1 0x24 DUP3 ADD MSTORE PUSH19 0x5072696365206F7574736964652072616E6765 PUSH1 0x68 SHL PUSH1 0x44 DUP3 ADD MSTORE PUSH1 0x64 ADD PUSH2 0x78B JUMP JUMPDEST PUSH2 0x2710 DUP3 PUSH2 0xFFFF AND GT ISZERO PUSH2 0xA7C JUMPI PUSH1 0x40 MLOAD PUSH3 0x461BCD PUSH1 0xE5 SHL DUP2 MSTORE PUSH1 0x20 PUSH1 0x4 DUP3 ADD MSTORE PUSH1 0xB PUSH1 0x24 DUP3 ADD MSTORE PUSH11 0x496E76616C696420425053 PUSH1 0xA8 SHL PUSH1 0x44 DUP3 ADD MSTORE PUSH1 0x64 ADD PUSH2 0x78B JUMP JUMPDEST PUSH1 0x40 DUP1 MLOAD PUSH1 0xA0 DUP2 ADD DUP3 MSTORE DUP7 DUP2 MSTORE PUSH1 0x20 DUP1 DUP3 ADD DUP8 DUP2 MSTORE DUP3 DUP5 ADD DUP8 DUP2 MSTORE PUSH2 0xFFFF DUP1 DUP9 AND PUSH1 0x60 DUP7 ADD SWAP1 DUP2 MSTORE DUP8 ISZERO ISZERO PUSH1 0x80 DUP8 ADD SWAP1 DUP2 MSTORE PUSH1 0x0 DUP15 DUP2 MSTORE PUSH1 0xE SWAP1 SWAP7 MSTORE SWAP5 DUP8 SWAP1 KECCAK256 SWAP6 MLOAD DUP7 SSTORE SWAP3 MLOAD PUSH1 0x1 DUP7 ADD SSTORE SWAP1 MLOAD PUSH1 0x2 DUP6 ADD SSTORE SWAP1 MLOAD PUSH1 0x3 SWAP1 SWAP4 ADD DUP1 SLOAD SWAP3 MLOAD ISZERO ISZERO PUSH3 0x10000 MUL PUSH3 0xFFFFFF NOT SWAP1 SWAP4 AND SWAP4 SWAP1 SWAP2 AND SWAP3 SWAP1 SWAP3 OR OR SWAP1 SSTORE MLOAD DUP7 SWAP1 PUSH32 0xE7DFE3C084FA4F22ACB02FD9A17BC032556708E078E8F1ADF50488F30FEA7C04 SWAP1 PUSH2 0xB4F SWAP1 DUP9 SWAP1 DUP9 SWAP1 DUP9 SWAP1 DUP9 SWAP1 DUP9 SWAP1 SWAP5 DUP6 MSTORE PUSH1 0x20 DUP6 ADD SWAP4 SWAP1 SWAP4 MSTORE PUSH1 0x40 DUP5 ADD SWAP2 SWAP1 SWAP2 MSTORE PUSH2 0xFFFF AND PUSH1 0x60 DUP4 ADD MSTORE ISZERO ISZERO PUSH1 0x80 DUP3 ADD MSTORE PUSH1 0xA0 ADD SWAP1 JUMP JUMPDEST PUSH1 0x40 MLOAD DUP1 SWAP2 SUB SWAP1 LOG2 POP POP POP POP POP POP JUMP JUMPDEST PUSH2 0xB67 PUSH2 0x1D76 JUMP JUMPDEST PUSH1 0x0 DUP2 DUP2 MSTORE PUSH1 0xF PUSH1 0x20 MSTORE PUSH1 0x40 SWAP1 KECCAK256 DUP1 SLOAD PUSH1 0x1 PUSH1 0x1 PUSH1 0xA0 SHL SUB AND CALLER EQ PUSH2 0xBBB JUMPI PUSH1 0x40 MLOAD PUSH3 0x461BCD PUSH1 0xE5 SHL DUP2 MSTORE PUSH1 0x20 PUSH1 0x4 DUP3 ADD MSTORE PUSH1 0xA PUSH1 0x24 DUP3 ADD MSTORE PUSH10 0x2737BA1037B832B732B9 PUSH1 0xB1 SHL PUSH1 0x44 DUP3 ADD MSTORE PUSH1 0x64 ADD PUSH2 0x78B JUMP JUMPDEST PUSH1 0x6 DUP2 ADD SLOAD PUSH1 0xFF AND PUSH2 0xC02 JUMPI PUSH1 0x40 MLOAD PUSH3 0x461BCD PUSH1 0xE5 SHL DUP2 MSTORE PUSH1 0x20 PUSH1 0x4 DUP3 ADD MSTORE PUSH1 0x10 PUSH1 0x24 DUP3 ADD MSTORE PUSH16 0x526577617264206E6F74207265616479 PUSH1 0x80 SHL PUSH1 0x44 DUP3 ADD MSTORE PUSH1 0x64 ADD PUSH2 0x78B JUMP JUMPDEST PUSH1 0x6 DUP2 ADD SLOAD PUSH2 0x100 SWAP1 DIV PUSH1 0xFF AND ISZERO PUSH2 0xC4E JUMPI PUSH1 0x40 MLOAD PUSH3 0x461BCD PUSH1 0xE5 SHL DUP2 MSTORE PUSH1 0x20 PUSH1 0x4 DUP3 ADD MSTORE PUSH1 0xF PUSH1 0x24 DUP3 ADD MSTORE PUSH15 0x105B1C9958591E4818DB185A5B5959 PUSH1 0x8A SHL PUSH1 0x44 DUP3 ADD MSTORE PUSH1 0x64 ADD PUSH2 0x78B JUMP JUMPDEST PUSH1 0x6 DUP2 ADD DUP1 SLOAD PUSH2 0xFF00 NOT AND PUSH2 0x100 OR SWAP1 SSTORE PUSH1 0x4 DUP2 ADD SLOAD ISZERO PUSH2 0xCE5 JUMPI PUSH1 0x2 DUP2 ADD SLOAD PUSH1 0x1 PUSH1 0x1 PUSH1 0xA0 SHL SUB PUSH32 0x0 DUP2 AND SWAP2 AND SUB PUSH2 0xCC1 JUMPI DUP1 PUSH1 0x4 ADD SLOAD PUSH1 0x5 PUSH1 0x0 DUP3 DUP3 SLOAD PUSH2 0xCB6 SWAP2 SWAP1 PUSH2 0x25B4 JUMP JUMPDEST SWAP1 SWAP2 SSTORE POP PUSH2 0xCDD SWAP1 POP JUMP JUMPDEST DUP1 PUSH1 0x4 ADD SLOAD PUSH1 0x4 PUSH1 0x0 DUP3 DUP3 SLOAD PUSH2 0xCD7 SWAP2 SWAP1 PUSH2 0x25B4 JUMP JUMPDEST SWAP1 SWAP2 SSTORE POP POP JUMPDEST PUSH1 0x0 PUSH1 0x4 DUP3 ADD SSTORE JUMPDEST PUSH1 0x3 DUP2 ADD SLOAD PUSH1 0x2 DUP3 ADD SLOAD PUSH2 0xD06 SWAP2 PUSH1 0x1 PUSH1 0x1 PUSH1 0xA0 SHL SUB SWAP1 SWAP2 AND SWAP1 CALLER SWAP1 PUSH2 0x1DA0 JUMP JUMPDEST CALLER PUSH1 0x1 PUSH1 0x1 PUSH1 0xA0 SHL SUB AND DUP3 PUSH32 0xAC4599846A321CD0603BCFDEF5B7B20C1464B6E577379378C9F738EF3B0D19FB DUP4 PUSH1 0x3 ADD SLOAD PUSH1 0x40 MLOAD PUSH2 0xD46 SWAP2 DUP2 MSTORE PUSH1 0x20 ADD SWAP1 JUMP JUMPDEST PUSH1 0x40 MLOAD DUP1 SWAP2 SUB SWAP1 LOG3 POP PUSH2 0xD59 PUSH1 0x1 PUSH1 0x0 SSTORE JUMP JUMPDEST POP JUMP JUMPDEST PUSH1 0x0 DUP2 DUP2 MSTORE PUSH1 0xE PUSH1 0x20 SWAP1 DUP2 MSTORE PUSH1 0x40 DUP1 DUP4 KECCAK256 DUP2 MLOAD PUSH1 0xA0 DUP2 ADD DUP4 MSTORE DUP2 SLOAD DUP2 MSTORE PUSH1 0x1 DUP3 ADD SLOAD SWAP4 DUP2 ADD SWAP4 SWAP1 SWAP4 MSTORE PUSH1 0x2 DUP2 ADD SLOAD SWAP2 DUP4 ADD SWAP2 SWAP1 SWAP2 MSTORE PUSH1 0x3 ADD SLOAD PUSH2 0xFFFF DUP2 AND PUSH1 0x60 DUP4 ADD MSTORE PUSH3 0x10000 SWAP1 DIV PUSH1 0xFF AND ISZERO ISZERO PUSH1 0x80 DUP3 ADD DUP2 SWAP1 MSTORE PUSH2 0xDBE JUMPI POP PUSH1 0x0 SWAP3 SWAP2 POP POP JUMP JUMPDEST PUSH1 0x7 SLOAD DUP4 EQ DUP1 ISZERO PUSH2 0xDD0 JUMPI POP PUSH1 0x7 SLOAD ISZERO ISZERO JUMPDEST ISZERO PUSH2 0xFC7 JUMPI PUSH1 0x9 SLOAD PUSH1 0x0 SWAP1 DUP2 SWAP1 PUSH2 0xFFFF AND ISZERO DUP1 ISZERO SWAP1 PUSH2 0xDF1 JUMPI POP PUSH1 0x0 PUSH1 0xB SLOAD GT JUMPDEST ISZERO PUSH2 0xEAC JUMPI PUSH1 0x40 MLOAD PUSH4 0x70A08231 PUSH1 0xE0 SHL DUP2 MSTORE ADDRESS PUSH1 0x4 DUP3 ADD MSTORE PUSH1 0x0 SWAP1 PUSH32 0x0 PUSH1 0x1 PUSH1 0x1 PUSH1 0xA0 SHL SUB AND SWAP1 PUSH4 0x70A08231 SWAP1 PUSH1 0x24 ADD PUSH1 0x20 PUSH1 0x40 MLOAD DUP1 DUP4 SUB DUP2 DUP7 GAS STATICCALL ISZERO DUP1 ISZERO PUSH2 0xE5D JUMPI RETURNDATASIZE PUSH1 0x0 DUP1 RETURNDATACOPY RETURNDATASIZE PUSH1 0x0 REVERT JUMPDEST POP POP POP POP PUSH1 0x40 MLOAD RETURNDATASIZE PUSH1 0x1F NOT PUSH1 0x1F DUP3 ADD AND DUP3 ADD DUP1 PUSH1 0x40 MSTORE POP DUP2 ADD SWAP1 PUSH2 0xE81 SWAP2 SWAP1 PUSH2 0x25C7 JUMP JUMPDEST SWAP1 POP PUSH1 0x5 SLOAD DUP2 GT ISZERO PUSH2 0xEAA JUMPI PUSH1 0xB SLOAD PUSH1 0x5 SLOAD PUSH2 0xE9D SWAP1 DUP4 PUSH2 0x25B4 JUMP JUMPDEST PUSH2 0xEA7 SWAP2 SWAP1 PUSH2 0x25F6 JUMP JUMPDEST SWAP3 POP JUMPDEST POP JUMPDEST PUSH1 0x9 SLOAD PUSH2 0x2710 PUSH2 0xFFFF SWAP1 SWAP2 AND LT DUP1 ISZERO PUSH2 0xEC7 JUMPI POP PUSH1 0x0 PUSH1 0xD SLOAD GT JUMPDEST ISZERO PUSH2 0xF82 JUMPI PUSH1 0x40 MLOAD PUSH4 0x70A08231 PUSH1 0xE0 SHL DUP2 MSTORE ADDRESS PUSH1 0x4 DUP3 ADD MSTORE PUSH1 0x0 SWAP1 PUSH32 0x0 PUSH1 0x1 PUSH1 0x1 PUSH1 0xA0 SHL SUB AND SWAP1 PUSH4 0x70A08231 SWAP1 PUSH1 0x24 ADD PUSH1 0x20 PUSH1 0x40 MLOAD DUP1 DUP4 SUB DUP2 DUP7 GAS STATICCALL ISZERO DUP1 ISZERO PUSH2 0xF33 JUMPI RETURNDATASIZE PUSH1 0x0 DUP1 RETURNDATACOPY RETURNDATASIZE PUSH1 0x0 REVERT JUMPDEST POP POP POP POP PUSH1 0x40 MLOAD RETURNDATASIZE PUSH1 0x1F NOT PUSH1 0x1F DUP3 ADD AND DUP3 ADD DUP1 PUSH1 0x40 MSTORE POP DUP2 ADD SWAP1 PUSH2 0xF57 SWAP2 SWAP1 PUSH2 0x25C7 JUMP JUMPDEST SWAP1 POP PUSH1 0x4 SLOAD DUP2 GT ISZERO PUSH2 0xF80 JUMPI PUSH1 0xD SLOAD PUSH1 0x4 SLOAD PUSH2 0xF73 SWAP1 DUP4 PUSH2 0x25B4 JUMP JUMPDEST PUSH2 0xF7D SWAP2 SWAP1 PUSH2 0x25F6 JUMP JUMPDEST SWAP2 POP JUMPDEST POP JUMPDEST PUSH1 0x9 SLOAD PUSH2 0xFFFF AND PUSH2 0x2710 SUB PUSH2 0xF99 JUMPI POP SWAP4 SWAP3 POP POP POP JUMP JUMPDEST PUSH1 0x9 SLOAD PUSH2 0xFFFF AND PUSH1 0x0 SUB PUSH2 0xFAF JUMPI SWAP5 SWAP4 POP POP POP POP JUMP JUMPDEST DUP1 DUP3 LT PUSH2 0xFBC JUMPI DUP1 PUSH2 0xFBE JUMP JUMPDEST DUP2 JUMPDEST SWAP6 SWAP5 POP POP POP POP POP JUMP JUMPDEST DUP1 PUSH1 0x40 ADD MLOAD PUSH1 0x0 SUB PUSH2 0xFDC JUMPI POP PUSH1 0x0 SWAP3 SWAP2 POP POP JUMP JUMPDEST PUSH1 0x0 PUSH2 0xFE6 PUSH2 0x1E04 JUMP JUMPDEST SWAP1 POP PUSH1 0x0 PUSH2 0xFF8 DUP4 PUSH1 0x40 ADD MLOAD DUP4 PUSH2 0x1FB7 JUMP JUMPDEST SWAP1 POP DUP1 PUSH1 0x0 SUB PUSH2 0x100D JUMPI POP PUSH1 0x0 SWAP5 SWAP4 POP POP POP POP JUMP JUMPDEST PUSH1 0x40 MLOAD PUSH4 0x70A08231 PUSH1 0xE0 SHL DUP2 MSTORE ADDRESS PUSH1 0x4 DUP3 ADD MSTORE PUSH1 0x0 SWAP1 PUSH32 0x0 PUSH1 0x1 PUSH1 0x1 PUSH1 0xA0 SHL SUB AND SWAP1 PUSH4 0x70A08231 SWAP1 PUSH1 0x24 ADD PUSH1 0x20 PUSH1 0x40 MLOAD DUP1 DUP4 SUB DUP2 DUP7 GAS STATICCALL ISZERO DUP1 ISZERO PUSH2 0x1074 JUMPI RETURNDATASIZE PUSH1 0x0 DUP1 RETURNDATACOPY RETURNDATASIZE PUSH1 0x0 REVERT JUMPDEST POP POP POP POP PUSH1 0x40 MLOAD RETURNDATASIZE PUSH1 0x1F NOT PUSH1 0x1F DUP3 ADD AND DUP3 ADD DUP1 PUSH1 0x40 MSTORE POP DUP2 ADD SWAP1 PUSH2 0x1098 SWAP2 SWAP1 PUSH2 0x25C7 JUMP JUMPDEST SWAP1 POP PUSH1 0x4 SLOAD DUP2 GT PUSH2 0x10AF JUMPI POP PUSH1 0x0 SWAP6 SWAP5 POP POP POP POP POP JUMP JUMPDEST DUP2 PUSH1 0x4 SLOAD DUP3 PUSH2 0x10BE SWAP2 SWAP1 PUSH2 0x25B4 JUMP JUMPDEST PUSH2 0x10C8 SWAP2 SWAP1 PUSH2 0x25F6 JUMP JUMPDEST SWAP7 SWAP6 POP POP POP POP POP POP JUMP JUMPDEST PUSH1 0x0 PUSH2 0x10DC PUSH2 0x1D76 JUMP JUMPDEST PUSH1 0x0 DUP3 DUP2 MSTORE PUSH1 0xE PUSH1 0x20 SWAP1 DUP2 MSTORE PUSH1 0x40 SWAP2 DUP3 SWAP1 KECCAK256 DUP3 MLOAD PUSH1 0xA0 DUP2 ADD DUP5 MSTORE DUP2 SLOAD DUP2 MSTORE PUSH1 0x1 DUP3 ADD SLOAD SWAP3 DUP2 ADD SWAP3 SWAP1 SWAP3 MSTORE PUSH1 0x2 DUP2 ADD SLOAD SWAP3 DUP3 ADD SWAP3 SWAP1 SWAP3 MSTORE PUSH1 0x3 SWAP1 SWAP2 ADD SLOAD PUSH2 0xFFFF DUP2 AND PUSH1 0x60 DUP4 ADD MSTORE PUSH3 0x10000 SWAP1 DIV PUSH1 0xFF AND ISZERO ISZERO PUSH1 0x80 DUP3 ADD DUP2 SWAP1 MSTORE PUSH2 0x1170 JUMPI PUSH1 0x40 MLOAD PUSH3 0x461BCD PUSH1 0xE5 SHL DUP2 MSTORE PUSH1 0x20 PUSH1 0x4 DUP3 ADD MSTORE PUSH1 0xD PUSH1 0x24 DUP3 ADD MSTORE PUSH13 0x10D85CD948191A5CD8589B1959 PUSH1 0x9A SHL PUSH1 0x44 DUP3 ADD MSTORE PUSH1 0x64 ADD PUSH2 0x78B JUMP JUMPDEST PUSH1 0x0 PUSH1 0x7 SLOAD DUP5 EQ DUP1 ISZERO PUSH2 0x1184 JUMPI POP PUSH1 0x7 SLOAD ISZERO ISZERO JUMPDEST SWAP1 POP DUP1 ISZERO PUSH2 0x1205 JUMPI CALLER PUSH1 0x0 SWAP1 DUP2 MSTORE PUSH1 0x10 PUSH1 0x20 MSTORE PUSH1 0x40 SWAP1 KECCAK256 SLOAD PUSH1 0x8 SLOAD PUSH2 0x11A9 DUP3 TIMESTAMP PUSH2 0x25B4 JUMP JUMPDEST LT ISZERO PUSH2 0x11ED JUMPI PUSH1 0x40 MLOAD PUSH3 0x461BCD PUSH1 0xE5 SHL DUP2 MSTORE PUSH1 0x20 PUSH1 0x4 DUP3 ADD MSTORE PUSH1 0x13 PUSH1 0x24 DUP3 ADD MSTORE PUSH19 0x2230B4B63C9031B0B9B29031B7B7B63237BBB7 PUSH1 0x69 SHL PUSH1 0x44 DUP3 ADD MSTORE PUSH1 0x64 ADD PUSH2 0x78B JUMP JUMPDEST POP CALLER PUSH1 0x0 SWAP1 DUP2 MSTORE PUSH1 0x10 PUSH1 0x20 MSTORE PUSH1 0x40 SWAP1 KECCAK256 TIMESTAMP SWAP1 SSTORE PUSH2 0x1244 JUMP JUMPDEST DUP2 MLOAD PUSH2 0x1244 JUMPI PUSH1 0x40 MLOAD PUSH3 0x461BCD PUSH1 0xE5 SHL DUP2 MSTORE PUSH1 0x20 PUSH1 0x4 DUP3 ADD MSTORE PUSH1 0xE PUSH1 0x24 DUP3 ADD MSTORE PUSH14 0x10D85CD9481B9BDD08199BDD5B99 PUSH1 0x92 SHL PUSH1 0x44 DUP3 ADD MSTORE PUSH1 0x64 ADD PUSH2 0x78B JUMP JUMPDEST PUSH1 0x0 PUSH2 0x124E PUSH2 0x1E04 JUMP JUMPDEST SWAP1 POP PUSH1 0x3 PUSH1 0x0 DUP2 SLOAD PUSH2 0x125F SWAP1 PUSH2 0x260A JUMP JUMPDEST SWAP2 DUP3 SWAP1 SSTORE POP SWAP4 POP DUP2 ISZERO PUSH2 0x16E9 JUMPI PUSH1 0x0 PUSH2 0x1278 DUP6 DUP8 PUSH2 0x2017 JUMP JUMPDEST PUSH1 0x9 SLOAD SWAP1 SWAP2 POP PUSH1 0x0 SWAP1 PUSH2 0xFFFF AND ISZERO DUP1 ISZERO SWAP1 PUSH2 0x12B4 JUMPI POP PUSH1 0x9 SLOAD PUSH2 0xFFFF AND PUSH2 0x2710 EQ DUP1 PUSH2 0x12B4 JUMPI POP PUSH1 0x9 SLOAD PUSH2 0xFFFF AND PUSH2 0x12B2 PUSH2 0x2710 DUP5 PUSH2 0x2623 JUMP JUMPDEST LT JUMPDEST SWAP1 POP PUSH1 0x0 DUP2 PUSH2 0x12E3 JUMPI PUSH32 0x0 PUSH2 0x1305 JUMP JUMPDEST PUSH32 0x0 JUMPDEST SWAP1 POP PUSH1 0x0 DUP3 PUSH2 0x1322 JUMPI PUSH2 0x131D DUP5 PUSH1 0xC SLOAD PUSH1 0xD SLOAD PUSH2 0x208A JUMP JUMPDEST PUSH2 0x1331 JUMP JUMPDEST PUSH2 0x1331 DUP5 PUSH1 0xA SLOAD PUSH1 0xB SLOAD PUSH2 0x208A JUMP JUMPDEST SWAP1 POP PUSH1 0x0 DUP2 GT PUSH2 0x1378 JUMPI PUSH1 0x40 MLOAD PUSH3 0x461BCD PUSH1 0xE5 SHL DUP2 MSTORE PUSH1 0x20 PUSH1 0x4 DUP3 ADD MSTORE PUSH1 0x12 PUSH1 0x24 DUP3 ADD MSTORE PUSH18 0x11185A5B1E481C995DD85C99081D5B9CD95D PUSH1 0x72 SHL PUSH1 0x44 DUP3 ADD MSTORE PUSH1 0x64 ADD PUSH2 0x78B JUMP JUMPDEST DUP3 ISZERO PUSH2 0x147A JUMPI PUSH1 0x40 MLOAD PUSH4 0x70A08231 PUSH1 0xE0 SHL DUP2 MSTORE ADDRESS PUSH1 0x4 DUP3 ADD MSTORE PUSH1 0x0 SWAP1 PUSH32 0x0 PUSH1 0x1 PUSH1 0x1 PUSH1 0xA0 SHL SUB AND SWAP1 PUSH4 0x70A08231 SWAP1 PUSH1 0x24 ADD PUSH1 0x20 PUSH1 0x40 MLOAD DUP1 DUP4 SUB DUP2 DUP7 GAS STATICCALL ISZERO DUP1 ISZERO PUSH2 0x13E5 JUMPI RETURNDATASIZE PUSH1 0x0 DUP1 RETURNDATACOPY RETURNDATASIZE PUSH1 0x0 REVERT JUMPDEST POP POP POP POP PUSH1 0x40 MLOAD RETURNDATASIZE PUSH1 0x1F NOT PUSH1 0x1F DUP3 ADD AND DUP3 ADD DUP1 PUSH1 0x40 MSTORE POP DUP2 ADD SWAP1 PUSH2 0x1409 SWAP2 SWAP1 PUSH2 0x25C7 JUMP JUMPDEST SWAP1 POP DUP2 PUSH1 0x5 SLOAD PUSH2 0x1419 SWAP2 SWAP1 PUSH2 0x2637 JUMP JUMPDEST DUP2 LT ISZERO PUSH2 0x145C JUMPI PUSH1 0x40 MLOAD PUSH3 0x461BCD PUSH1 0xE5 SHL DUP2 MSTORE PUSH1 0x20 PUSH1 0x4 DUP3 ADD MSTORE PUSH1 0x11 PUSH1 0x24 DUP3 ADD MSTORE PUSH17 0x496E73756666696369656E742043415345 PUSH1 0x78 SHL PUSH1 0x44 DUP3 ADD MSTORE PUSH1 0x64 ADD PUSH2 0x78B JUMP JUMPDEST DUP2 PUSH1 0x5 PUSH1 0x0 DUP3 DUP3 SLOAD PUSH2 0x146E SWAP2 SWAP1 PUSH2 0x2637 JUMP JUMPDEST SWAP1 SWAP2 SSTORE POP PUSH2 0x1572 SWAP2 POP POP JUMP JUMPDEST PUSH1 0x40 MLOAD PUSH4 0x70A08231 PUSH1 0xE0 SHL DUP2 MSTORE ADDRESS PUSH1 0x4 DUP3 ADD MSTORE PUSH1 0x0 SWAP1 PUSH32 0x0 PUSH1 0x1 PUSH1 0x1 PUSH1 0xA0 SHL SUB AND SWAP1 PUSH4 0x70A08231 SWAP1 PUSH1 0x24 ADD PUSH1 0x20 PUSH1 0x40 MLOAD DUP1 DUP4 SUB DUP2 DUP7 GAS STATICCALL ISZERO DUP1 ISZERO PUSH2 0x14E1 JUMPI RETURNDATASIZE PUSH1 0x0 DUP1 RETURNDATACOPY RETURNDATASIZE PUSH1 0x0 REVERT JUMPDEST POP POP POP POP PUSH1 0x40 MLOAD RETURNDATASIZE PUSH1 0x1F NOT PUSH1 0x1F DUP3 ADD AND DUP3 ADD DUP1 PUSH1 0x40 MSTORE POP DUP2 ADD SWAP1 PUSH2 0x1505 SWAP2 SWAP1 PUSH2 0x25C7 JUMP JUMPDEST SWAP1 POP DUP2 PUSH1 0x4 SLOAD PUSH2 0x1515 SWAP2 SWAP1 PUSH2 0x2637 JUMP JUMPDEST DUP2 LT ISZERO PUSH2 0x1559 JUMPI PUSH1 0x40 MLOAD PUSH3 0x461BCD PUSH1 0xE5 SHL DUP2 MSTORE PUSH1 0x20 PUSH1 0x4 DUP3 ADD MSTORE PUSH1 0x12 PUSH1 0x24 DUP3 ADD MSTORE PUSH18 0x496E73756666696369656E74206362425443 PUSH1 0x70 SHL PUSH1 0x44 DUP3 ADD MSTORE PUSH1 0x64 ADD PUSH2 0x78B JUMP JUMPDEST DUP2 PUSH1 0x4 PUSH1 0x0 DUP3 DUP3 SLOAD PUSH2 0x156B SWAP2 SWAP1 PUSH2 0x2637 JUMP JUMPDEST SWAP1 SWAP2 SSTORE POP POP POP JUMPDEST PUSH1 0x40 MLOAD DUP1 PUSH2 0x100 ADD PUSH1 0x40 MSTORE DUP1 CALLER PUSH1 0x1 PUSH1 0x1 PUSH1 0xA0 SHL SUB AND DUP2 MSTORE PUSH1 0x20 ADD DUP11 DUP2 MSTORE PUSH1 0x20 ADD DUP4 PUSH1 0x1 PUSH1 0x1 PUSH1 0xA0 SHL SUB AND DUP2 MSTORE PUSH1 0x20 ADD DUP3 DUP2 MSTORE PUSH1 0x20 ADD DUP3 DUP2 MSTORE PUSH1 0x20 ADD DUP5 PUSH2 0x15B9 JUMPI DUP7 PUSH2 0x15BC JUMP JUMPDEST PUSH1 0x0 JUMPDEST DUP2 MSTORE PUSH1 0x1 PUSH1 0x20 DUP1 DUP4 ADD DUP3 SWAP1 MSTORE PUSH1 0x0 PUSH1 0x40 SWAP4 DUP5 ADD DUP2 SWAP1 MSTORE DUP13 DUP2 MSTORE PUSH1 0xF DUP3 MSTORE DUP4 SWAP1 KECCAK256 DUP5 MLOAD DUP2 SLOAD PUSH1 0x1 PUSH1 0x1 PUSH1 0xA0 SHL SUB NOT SWAP1 DUP2 AND PUSH1 0x1 PUSH1 0x1 PUSH1 0xA0 SHL SUB SWAP3 DUP4 AND OR DUP4 SSTORE DUP7 DUP5 ADD MLOAD SWAP5 DUP4 ADD SWAP5 SWAP1 SWAP5 SSTORE DUP6 DUP6 ADD MLOAD PUSH1 0x2 DUP4 ADD DUP1 SLOAD SWAP1 SWAP6 AND SWAP2 AND OR SWAP1 SWAP3 SSTORE PUSH1 0x60 DUP5 ADD MLOAD PUSH1 0x3 DUP4 ADD SSTORE PUSH1 0x80 DUP5 ADD MLOAD PUSH1 0x4 DUP4 ADD SSTORE PUSH1 0xA0 DUP5 ADD MLOAD PUSH1 0x5 DUP4 ADD SSTORE PUSH1 0xC0 DUP5 ADD MLOAD PUSH1 0x6 SWAP1 SWAP3 ADD DUP1 SLOAD PUSH1 0xE0 SWAP1 SWAP6 ADD MLOAD PUSH2 0xFFFF NOT SWAP1 SWAP6 AND SWAP3 ISZERO ISZERO PUSH2 0xFF00 NOT AND SWAP3 SWAP1 SWAP3 OR PUSH2 0x100 SWAP5 ISZERO ISZERO SWAP5 SWAP1 SWAP5 MUL SWAP4 SWAP1 SWAP4 OR SWAP1 SSTORE DUP9 MLOAD SWAP1 MLOAD SWAP1 DUP2 MSTORE DUP10 SWAP2 DUP12 SWAP2 CALLER SWAP2 PUSH32 0xF7A35F1B41370902294F55466FE05B5EBC1803195A160F64A579B0C0E86A0B0C SWAP2 ADD PUSH1 0x40 MLOAD DUP1 SWAP2 SUB SWAP1 LOG4 DUP8 PUSH32 0x7E7F66C93444AA5FA7F1F6B2CEC13935E33053C433ED4FA5A3070B4DB947BA5F DUP3 PUSH1 0x40 MLOAD PUSH2 0x16D5 SWAP2 DUP2 MSTORE PUSH1 0x20 ADD SWAP1 JUMP JUMPDEST PUSH1 0x40 MLOAD DUP1 SWAP2 SUB SWAP1 LOG2 POP POP POP POP POP POP POP PUSH2 0x1A16 JUMP JUMPDEST PUSH1 0x0 PUSH2 0x16F9 DUP5 PUSH1 0x40 ADD MLOAD DUP4 PUSH2 0x1FB7 JUMP JUMPDEST SWAP1 POP PUSH1 0x0 DUP2 GT PUSH2 0x173B JUMPI PUSH1 0x40 MLOAD PUSH3 0x461BCD PUSH1 0xE5 SHL DUP2 MSTORE PUSH1 0x20 PUSH1 0x4 DUP3 ADD MSTORE PUSH1 0xD PUSH1 0x24 DUP3 ADD MSTORE PUSH13 0x507269636520746F6F206C6F77 PUSH1 0x98 SHL PUSH1 0x44 DUP3 ADD MSTORE PUSH1 0x64 ADD PUSH2 0x78B JUMP JUMPDEST PUSH1 0x40 MLOAD PUSH4 0x70A08231 PUSH1 0xE0 SHL DUP2 MSTORE ADDRESS PUSH1 0x4 DUP3 ADD MSTORE PUSH1 0x0 SWAP1 PUSH32 0x0 PUSH1 0x1 PUSH1 0x1 PUSH1 0xA0 SHL SUB AND SWAP1 PUSH4 0x70A08231 SWAP1 PUSH1 0x24 ADD PUSH1 0x20 PUSH1 0x40 MLOAD DUP1 DUP4 SUB DUP2 DUP7 GAS STATICCALL ISZERO DUP1 ISZERO PUSH2 0x17A2 JUMPI RETURNDATASIZE PUSH1 0x0 DUP1 RETURNDATACOPY RETURNDATASIZE PUSH1 0x0 REVERT JUMPDEST POP POP POP POP PUSH1 0x40 MLOAD RETURNDATASIZE PUSH1 0x1F NOT PUSH1 0x1F DUP3 ADD AND DUP3 ADD DUP1 PUSH1 0x40 MSTORE POP DUP2 ADD SWAP1 PUSH2 0x17C6 SWAP2 SWAP1 PUSH2 0x25C7 JUMP JUMPDEST SWAP1 POP DUP2 PUSH1 0x4 SLOAD PUSH2 0x17D6 SWAP2 SWAP1 PUSH2 0x2637 JUMP JUMPDEST DUP2 LT ISZERO PUSH2 0x1810 JUMPI PUSH1 0x40 MLOAD PUSH3 0x461BCD PUSH1 0xE5 SHL DUP2 MSTORE PUSH1 0x20 PUSH1 0x4 DUP3 ADD MSTORE PUSH1 0x8 PUSH1 0x24 DUP3 ADD MSTORE PUSH8 0x14DBDB19081BDD5D PUSH1 0xC2 SHL PUSH1 0x44 DUP3 ADD MSTORE PUSH1 0x64 ADD PUSH2 0x78B JUMP JUMPDEST DUP5 MLOAD ISZERO PUSH2 0x1858 JUMPI PUSH1 0x2 SLOAD DUP6 MLOAD PUSH2 0x1858 SWAP2 PUSH1 0x1 PUSH1 0x1 PUSH1 0xA0 SHL SUB PUSH32 0x0 DUP2 AND SWAP3 CALLER SWAP3 SWAP2 SWAP1 SWAP2 AND SWAP1 PUSH2 0x20D2 JUMP JUMPDEST DUP2 PUSH1 0x4 PUSH1 0x0 DUP3 DUP3 SLOAD PUSH2 0x186A SWAP2 SWAP1 PUSH2 0x2637 JUMP JUMPDEST SWAP3 POP POP DUP2 SWAP1 SSTORE POP PUSH1 0x40 MLOAD DUP1 PUSH2 0x100 ADD PUSH1 0x40 MSTORE DUP1 CALLER PUSH1 0x1 PUSH1 0x1 PUSH1 0xA0 SHL SUB AND DUP2 MSTORE PUSH1 0x20 ADD DUP9 DUP2 MSTORE PUSH1 0x20 ADD PUSH32 0x0 PUSH1 0x1 PUSH1 0x1 PUSH1 0xA0 SHL SUB AND DUP2 MSTORE PUSH1 0x20 ADD PUSH1 0x0 DUP2 MSTORE PUSH1 0x20 ADD DUP4 DUP2 MSTORE PUSH1 0x20 ADD DUP5 DUP2 MSTORE PUSH1 0x20 ADD PUSH1 0x0 ISZERO ISZERO DUP2 MSTORE PUSH1 0x20 ADD PUSH1 0x0 ISZERO ISZERO DUP2 MSTORE POP PUSH1 0xF PUSH1 0x0 DUP9 DUP2 MSTORE PUSH1 0x20 ADD SWAP1 DUP2 MSTORE PUSH1 0x20 ADD PUSH1 0x0 KECCAK256 PUSH1 0x0 DUP3 ADD MLOAD DUP2 PUSH1 0x0 ADD PUSH1 0x0 PUSH2 0x100 EXP DUP2 SLOAD DUP2 PUSH1 0x1 PUSH1 0x1 PUSH1 0xA0 SHL SUB MUL NOT AND SWAP1 DUP4 PUSH1 0x1 PUSH1 0x1 PUSH1 0xA0 SHL SUB AND MUL OR SWAP1 SSTORE POP PUSH1 0x20 DUP3 ADD MLOAD DUP2 PUSH1 0x1 ADD SSTORE PUSH1 0x40 DUP3 ADD MLOAD DUP2 PUSH1 0x2 ADD PUSH1 0x0 PUSH2 0x100 EXP DUP2 SLOAD DUP2 PUSH1 0x1 PUSH1 0x1 PUSH1 0xA0 SHL SUB MUL NOT AND SWAP1 DUP4 PUSH1 0x1 PUSH1 0x1 PUSH1 0xA0 SHL SUB AND MUL OR SWAP1 SSTORE POP PUSH1 0x60 DUP3 ADD MLOAD DUP2 PUSH1 0x3 ADD SSTORE PUSH1 0x80 DUP3 ADD MLOAD DUP2 PUSH1 0x4 ADD SSTORE PUSH1 0xA0 DUP3 ADD MLOAD DUP2 PUSH1 0x5 ADD SSTORE PUSH1 0xC0 DUP3 ADD MLOAD DUP2 PUSH1 0x6 ADD PUSH1 0x0 PUSH2 0x100 EXP DUP2 SLOAD DUP2 PUSH1 0xFF MUL NOT AND SWAP1 DUP4 ISZERO ISZERO MUL OR SWAP1 SSTORE POP PUSH1 0xE0 DUP3 ADD MLOAD DUP2 PUSH1 0x6 ADD PUSH1 0x1 PUSH2 0x100 EXP DUP2 SLOAD DUP2 PUSH1 0xFF MUL NOT AND SWAP1 DUP4 ISZERO ISZERO MUL OR SWAP1 SSTORE POP SWAP1 POP POP PUSH1 0x0 PUSH2 0x19C8 DUP8 DUP10 PUSH2 0x2017 JUMP JUMPDEST SWAP1 POP PUSH2 0x19D4 DUP8 DUP3 PUSH2 0x2111 JUMP JUMPDEST DUP6 MLOAD PUSH1 0x40 MLOAD SWAP1 DUP2 MSTORE DUP8 SWAP1 DUP10 SWAP1 CALLER SWAP1 PUSH32 0xF7A35F1B41370902294F55466FE05B5EBC1803195A160F64A579B0C0E86A0B0C SWAP1 PUSH1 0x20 ADD PUSH1 0x40 MLOAD DUP1 SWAP2 SUB SWAP1 LOG4 POP POP POP POP POP POP JUMPDEST PUSH2 0x1A20 PUSH1 0x1 PUSH1 0x0 SSTORE JUMP JUMPDEST SWAP2 SWAP1 POP JUMP JUMPDEST PUSH2 0x1A2D PUSH2 0x1CF7 JUMP JUMPDEST PUSH1 0x1 PUSH1 0x1 PUSH1 0xA0 SHL SUB DUP4 AND PUSH2 0x1A74 JUMPI PUSH1 0x40 MLOAD PUSH3 0x461BCD PUSH1 0xE5 SHL DUP2 MSTORE PUSH1 0x20 PUSH1 0x4 DUP3 ADD MSTORE PUSH1 0xE PUSH1 0x24 DUP3 ADD MSTORE PUSH14 0x151BDAD95B881C995C5D5A5C9959 PUSH1 0x92 SHL PUSH1 0x44 DUP3 ADD MSTORE PUSH1 0x64 ADD PUSH2 0x78B JUMP JUMPDEST PUSH1 0x0 PUSH1 0x1 PUSH1 0x1 PUSH1 0xA0 SHL SUB DUP4 AND ISZERO PUSH2 0x1A8B JUMPI DUP3 PUSH2 0x1A98 JUMP JUMPDEST PUSH1 0x2 SLOAD PUSH1 0x1 PUSH1 0x1 PUSH1 0xA0 SHL SUB AND JUMPDEST SWAP1 POP PUSH1 0x1 PUSH1 0x1 PUSH1 0xA0 SHL SUB DUP2 AND PUSH2 0x1AE5 JUMPI PUSH1 0x40 MLOAD PUSH3 0x461BCD PUSH1 0xE5 SHL DUP2 MSTORE PUSH1 0x20 PUSH1 0x4 DUP3 ADD MSTORE PUSH1 0x12 PUSH1 0x24 DUP3 ADD MSTORE PUSH18 0x149958DA5C1A595B9D081C995C5D5A5C9959 PUSH1 0x72 SHL PUSH1 0x44 DUP3 ADD MSTORE PUSH1 0x64 ADD PUSH2 0x78B JUMP JUMPDEST PUSH1 0x40 MLOAD PUSH4 0x70A08231 PUSH1 0xE0 SHL DUP2 MSTORE ADDRESS PUSH1 0x4 DUP3 ADD MSTORE PUSH1 0x0 SWAP1 PUSH1 0x1 PUSH1 0x1 PUSH1 0xA0 SHL SUB DUP7 AND SWAP1 PUSH4 0x70A08231 SWAP1 PUSH1 0x24 ADD PUSH1 0x20 PUSH1 0x40 MLOAD DUP1 DUP4 SUB DUP2 DUP7 GAS STATICCALL ISZERO DUP1 ISZERO PUSH2 0x1B2C JUMPI RETURNDATASIZE PUSH1 0x0 DUP1 RETURNDATACOPY RETURNDATASIZE PUSH1 0x0 REVERT JUMPDEST POP POP POP POP PUSH1 0x40 MLOAD RETURNDATASIZE PUSH1 0x1F NOT PUSH1 0x1F DUP3 ADD AND DUP3 ADD DUP1 PUSH1 0x40 MSTORE POP DUP2 ADD SWAP1 PUSH2 0x1B50 SWAP2 SWAP1 PUSH2 0x25C7 JUMP JUMPDEST SWAP1 POP PUSH1 0x0 DUP4 ISZERO PUSH2 0x1B60 JUMPI DUP4 PUSH2 0x1B62 JUMP JUMPDEST DUP2 JUMPDEST SWAP1 POP DUP2 DUP2 GT ISZERO PUSH2 0x1BAB JUMPI PUSH1 0x40 MLOAD PUSH3 0x461BCD PUSH1 0xE5 SHL DUP2 MSTORE PUSH1 0x20 PUSH1 0x4 DUP3 ADD MSTORE PUSH1 0x14 PUSH1 0x24 DUP3 ADD MSTORE PUSH20 0x496E73756666696369656E742062616C616E6365 PUSH1 0x60 SHL PUSH1 0x44 DUP3 ADD MSTORE PUSH1 0x64 ADD PUSH2 0x78B JUMP JUMPDEST PUSH2 0x1BBF PUSH1 0x1 PUSH1 0x1 PUSH1 0xA0 SHL SUB DUP8 AND DUP5 DUP4 PUSH2 0x1DA0 JUMP JUMPDEST DUP3 PUSH1 0x1 PUSH1 0x1 PUSH1 0xA0 SHL SUB AND DUP7 PUSH1 0x1 PUSH1 0x1 PUSH1 0xA0 SHL SUB AND PUSH32 0xF24EF89F38EADC1BDE50701AD6E4D6D11A2DC24F7CF834A486991F3883328504 DUP4 PUSH1 0x40 MLOAD PUSH2 0x1C04 SWAP2 DUP2 MSTORE PUSH1 0x20 ADD SWAP1 JUMP JUMPDEST PUSH1 0x40 MLOAD DUP1 SWAP2 SUB SWAP1 LOG3 POP POP POP POP POP POP JUMP JUMPDEST PUSH2 0x1C1C PUSH2 0x1CF7 JUMP JUMPDEST PUSH1 0x1 PUSH1 0x1 PUSH1 0xA0 SHL SUB DUP2 AND PUSH2 0x1C72 JUMPI PUSH1 0x40 MLOAD PUSH3 0x461BCD PUSH1 0xE5 SHL DUP2 MSTORE PUSH1 0x20 PUSH1 0x4 DUP3 ADD MSTORE PUSH1 0x19 PUSH1 0x24 DUP3 ADD MSTORE PUSH32 0x5472656173757279206164647265737320726571756972656400000000000000 PUSH1 0x44 DUP3 ADD MSTORE PUSH1 0x64 ADD PUSH2 0x78B JUMP JUMPDEST PUSH1 0x2 DUP1 SLOAD PUSH1 0x1 PUSH1 0x1 PUSH1 0xA0 SHL SUB NOT AND PUSH1 0x1 PUSH1 0x1 PUSH1 0xA0 SHL SUB DUP4 AND SWAP1 DUP2 OR SWAP1 SWAP2 SSTORE PUSH1 0x40 MLOAD PUSH32 0x7DAE230F18360D76A040C81F050AA14EB9D6DC7901B20FC5D855E2A20FE814D1 SWAP1 PUSH1 0x0 SWAP1 LOG2 POP JUMP JUMPDEST PUSH2 0x1CC4 PUSH2 0x1CF7 JUMP JUMPDEST PUSH1 0x1 PUSH1 0x1 PUSH1 0xA0 SHL SUB DUP2 AND PUSH2 0x1CEE JUMPI PUSH1 0x40 MLOAD PUSH4 0x1E4FBDF7 PUSH1 0xE0 SHL DUP2 MSTORE PUSH1 0x0 PUSH1 0x4 DUP3 ADD MSTORE PUSH1 0x24 ADD PUSH2 0x78B JUMP JUMPDEST PUSH2 0xD59 DUP2 PUSH2 0x1D24 JUMP JUMPDEST PUSH1 0x1 SLOAD PUSH1 0x1 PUSH1 0x1 PUSH1 0xA0 SHL SUB AND CALLER EQ PUSH2 0x7E1 JUMPI PUSH1 0x40 MLOAD PUSH4 0x118CDAA7 PUSH1 0xE0 SHL DUP2 MSTORE CALLER PUSH1 0x4 DUP3 ADD MSTORE PUSH1 0x24 ADD PUSH2 0x78B JUMP JUMPDEST PUSH1 0x1 DUP1 SLOAD PUSH1 0x1 PUSH1 0x1 PUSH1 0xA0 SHL SUB DUP4 DUP2 AND PUSH1 0x1 PUSH1 0x1 PUSH1 0xA0 SHL SUB NOT DUP4 AND DUP2 OR SWAP1 SWAP4 SSTORE PUSH1 0x40 MLOAD SWAP2 AND SWAP2 SWAP1 DUP3 SWAP1 PUSH32 0x8BE0079C531659141344CD1FD0A4F28419497F9722A3DAAFE3B4186F6B6457E0 SWAP1 PUSH1 0x0 SWAP1 LOG3 POP POP JUMP JUMPDEST PUSH1 0x2 PUSH1 0x0 SLOAD SUB PUSH2 0x1D99 JUMPI PUSH1 0x40 MLOAD PUSH4 0x3EE5AEB5 PUSH1 0xE0 SHL DUP2 MSTORE PUSH1 0x4 ADD PUSH1 0x40 MLOAD DUP1 SWAP2 SUB SWAP1 REVERT JUMPDEST PUSH1 0x2 PUSH1 0x0 SSTORE JUMP JUMPDEST PUSH1 0x40 MLOAD PUSH1 0x1 PUSH1 0x1 PUSH1 0xA0 SHL SUB DUP4 DUP2 AND PUSH1 0x24 DUP4 ADD MSTORE PUSH1 0x44 DUP3 ADD DUP4 SWAP1 MSTORE PUSH2 0x1DFF SWAP2 DUP6 SWAP2 DUP3 AND SWAP1 PUSH4 0xA9059CBB SWAP1 PUSH1 0x64 ADD JUMPDEST PUSH1 0x40 MLOAD PUSH1 0x20 DUP2 DUP4 SUB SUB DUP2 MSTORE SWAP1 PUSH1 0x40 MSTORE SWAP2 POP PUSH1 0xE0 SHL PUSH1 0x20 DUP3 ADD DUP1 MLOAD PUSH1 0x1 PUSH1 0x1 PUSH1 0xE0 SHL SUB DUP4 DUP2 DUP4 AND OR DUP4 MSTORE POP POP POP POP PUSH2 0x234F JUMP JUMPDEST POP POP POP JUMP JUMPDEST PUSH1 0x0 DUP1 PUSH1 0x0 DUP1 PUSH1 0x0 PUSH32 0x0 PUSH1 0x1 PUSH1 0x1 PUSH1 0xA0 SHL SUB AND PUSH4 0xFEAF968C PUSH1 0x40 MLOAD DUP2 PUSH4 0xFFFFFFFF AND PUSH1 0xE0 SHL DUP2 MSTORE PUSH1 0x4 ADD PUSH1 0xA0 PUSH1 0x40 MLOAD DUP1 DUP4 SUB DUP2 DUP7 GAS STATICCALL ISZERO DUP1 ISZERO PUSH2 0x1E6A JUMPI RETURNDATASIZE PUSH1 0x0 DUP1 RETURNDATACOPY RETURNDATASIZE PUSH1 0x0 REVERT JUMPDEST POP POP POP POP PUSH1 0x40 MLOAD RETURNDATASIZE PUSH1 0x1F NOT PUSH1 0x1F DUP3 ADD AND DUP3 ADD DUP1 PUSH1 0x40 MSTORE POP DUP2 ADD SWAP1 PUSH2 0x1E8E SWAP2 SWAP1 PUSH2 0x2664 JUMP JUMPDEST SWAP5 POP SWAP5 POP POP SWAP4 POP SWAP4 POP PUSH1 0x0 DUP4 SGT PUSH2 0x1ED3 JUMPI PUSH1 0x40 MLOAD PUSH3 0x461BCD PUSH1 0xE5 SHL DUP2 MSTORE PUSH1 0x20 PUSH1 0x4 DUP3 ADD MSTORE PUSH1 0x9 PUSH1 0x24 DUP3 ADD MSTORE PUSH9 0x426164207072696365 PUSH1 0xB8 SHL PUSH1 0x44 DUP3 ADD MSTORE PUSH1 0x64 ADD PUSH2 0x78B JUMP JUMPDEST DUP2 PUSH1 0x0 SUB PUSH2 0x1F0F JUMPI PUSH1 0x40 MLOAD PUSH3 0x461BCD PUSH1 0xE5 SHL DUP2 MSTORE PUSH1 0x20 PUSH1 0x4 DUP3 ADD MSTORE PUSH1 0x9 PUSH1 0x24 DUP3 ADD MSTORE PUSH9 0x426164207072696365 PUSH1 0xB8 SHL PUSH1 0x44 DUP3 ADD MSTORE PUSH1 0x64 ADD PUSH2 0x78B JUMP JUMPDEST DUP4 PUSH10 0xFFFFFFFFFFFFFFFFFFFF AND DUP2 PUSH10 0xFFFFFFFFFFFFFFFFFFFF AND LT ISZERO PUSH2 0x1F65 JUMPI PUSH1 0x40 MLOAD PUSH3 0x461BCD PUSH1 0xE5 SHL DUP2 MSTORE PUSH1 0x20 PUSH1 0x4 DUP3 ADD MSTORE PUSH1 0xB PUSH1 0x24 DUP3 ADD MSTORE PUSH11 0x5374616C65207072696365 PUSH1 0xA8 SHL PUSH1 0x44 DUP3 ADD MSTORE PUSH1 0x64 ADD PUSH2 0x78B JUMP JUMPDEST PUSH1 0x6 SLOAD PUSH2 0x1F72 DUP4 TIMESTAMP PUSH2 0x25B4 JUMP JUMPDEST GT ISZERO PUSH2 0x1FAE JUMPI PUSH1 0x40 MLOAD PUSH3 0x461BCD PUSH1 0xE5 SHL DUP2 MSTORE PUSH1 0x20 PUSH1 0x4 DUP3 ADD MSTORE PUSH1 0xB PUSH1 0x24 DUP3 ADD MSTORE PUSH11 0x5374616C65207072696365 PUSH1 0xA8 SHL PUSH1 0x44 DUP3 ADD MSTORE PUSH1 0x64 ADD PUSH2 0x78B JUMP JUMPDEST POP SWAP1 SWAP4 SWAP3 POP POP POP JUMP JUMPDEST PUSH1 0x0 DUP1 PUSH32 0x0 PUSH2 0x1FE9 PUSH4 0x5F5E100 DUP7 PUSH2 0x26B4 JUMP JUMPDEST PUSH2 0x1FF3 SWAP2 SWAP1 PUSH2 0x26B4 JUMP JUMPDEST SWAP1 POP PUSH3 0xF4240 PUSH2 0x2003 DUP5 DUP4 PUSH2 0x25F6 JUMP JUMPDEST PUSH2 0x200D SWAP2 SWAP1 PUSH2 0x25F6 JUMP JUMPDEST SWAP2 POP POP JUMPDEST SWAP3 SWAP2 POP POP JUMP JUMPDEST PUSH1 0x0 PREVRANDAO PUSH2 0x2025 PUSH1 0x1 NUMBER PUSH2 0x25B4 JUMP JUMPDEST PUSH1 0x40 DUP1 MLOAD PUSH1 0x20 DUP2 ADD SWAP4 SWAP1 SWAP4 MSTORE SWAP1 BLOCKHASH SWAP1 DUP3 ADD MSTORE PUSH12 0xFFFFFFFFFFFFFFFFFFFFFFFF NOT CALLER PUSH1 0x60 SWAP1 DUP2 SHL DUP3 AND DUP2 DUP5 ADD MSTORE PUSH1 0x74 DUP4 ADD DUP7 SWAP1 MSTORE PUSH1 0x94 DUP4 ADD DUP6 SWAP1 MSTORE ADDRESS SWAP1 SHL AND PUSH1 0xB4 DUP3 ADD MSTORE PUSH1 0xC8 ADD PUSH1 0x40 DUP1 MLOAD PUSH1 0x1F NOT DUP2 DUP5 SUB ADD DUP2 MSTORE SWAP2 SWAP1 MSTORE DUP1 MLOAD PUSH1 0x20 SWAP1 SWAP2 ADD KECCAK256 SWAP4 SWAP3 POP POP POP JUMP JUMPDEST PUSH1 0x0 DUP3 DUP3 GT PUSH2 0x209A JUMPI POP DUP2 PUSH2 0x20CB JUMP JUMPDEST PUSH1 0x0 PUSH2 0x20A6 DUP5 DUP5 PUSH2 0x25B4 JUMP JUMPDEST PUSH2 0x20B1 SWAP1 PUSH1 0x1 PUSH2 0x2637 JUMP JUMPDEST SWAP1 POP PUSH2 0x20BD DUP2 DUP7 PUSH2 0x2623 JUMP JUMPDEST PUSH2 0x20C7 SWAP1 DUP6 PUSH2 0x2637 JUMP JUMPDEST SWAP2 POP POP JUMPDEST SWAP4 SWAP3 POP POP POP JUMP JUMPDEST PUSH1 0x40 MLOAD PUSH1 0x1 PUSH1 0x1 PUSH1 0xA0 SHL SUB DUP5 DUP2 AND PUSH1 0x24 DUP4 ADD MSTORE DUP4 DUP2 AND PUSH1 0x44 DUP4 ADD MSTORE PUSH1 0x64 DUP3 ADD DUP4 SWAP1 MSTORE PUSH2 0x210B SWAP2 DUP7 SWAP2 DUP3 AND SWAP1 PUSH4 0x23B872DD SWAP1 PUSH1 0x84 ADD PUSH2 0x1DCD JUMP JUMPDEST POP POP POP POP JUMP JUMPDEST PUSH1 0x0 DUP3 DUP2 MSTORE PUSH1 0xF PUSH1 0x20 MSTORE PUSH1 0x40 SWAP1 KECCAK256 DUP1 SLOAD PUSH1 0x1 PUSH1 0x1 PUSH1 0xA0 SHL SUB AND PUSH2 0x216A JUMPI PUSH1 0x40 MLOAD PUSH3 0x461BCD PUSH1 0xE5 SHL DUP2 MSTORE PUSH1 0x20 PUSH1 0x4 DUP3 ADD MSTORE PUSH1 0x11 PUSH1 0x24 DUP3 ADD MSTORE PUSH17 0x13DC195B9A5B99C81B9BDD08199BDD5B99 PUSH1 0x7A SHL PUSH1 0x44 DUP3 ADD MSTORE PUSH1 0x64 ADD PUSH2 0x78B JUMP JUMPDEST PUSH1 0x6 DUP2 ADD SLOAD PUSH1 0xFF AND ISZERO PUSH2 0x21B2 JUMPI PUSH1 0x40 MLOAD PUSH3 0x461BCD PUSH1 0xE5 SHL DUP2 MSTORE PUSH1 0x20 PUSH1 0x4 DUP3 ADD MSTORE PUSH1 0x10 PUSH1 0x24 DUP3 ADD MSTORE PUSH16 0x105B1C9958591E481C995DD85C991959 PUSH1 0x82 SHL PUSH1 0x44 DUP3 ADD MSTORE PUSH1 0x64 ADD PUSH2 0x78B JUMP JUMPDEST PUSH1 0x1 DUP2 DUP2 ADD SLOAD PUSH1 0x0 SWAP1 DUP2 MSTORE PUSH1 0xE PUSH1 0x20 SWAP1 DUP2 MSTORE PUSH1 0x40 DUP1 DUP4 KECCAK256 DUP2 MLOAD PUSH1 0xA0 DUP2 ADD DUP4 MSTORE DUP2 SLOAD DUP2 MSTORE SWAP5 DUP2 ADD SLOAD SWAP3 DUP6 ADD SWAP3 SWAP1 SWAP3 MSTORE PUSH1 0x2 DUP3 ADD SLOAD SWAP1 DUP5 ADD MSTORE PUSH1 0x3 ADD SLOAD PUSH2 0xFFFF DUP2 AND PUSH1 0x60 DUP5 ADD DUP2 SWAP1 MSTORE PUSH3 0x10000 SWAP1 SWAP2 DIV PUSH1 0xFF AND ISZERO ISZERO PUSH1 0x80 DUP5 ADD MSTORE ISZERO PUSH2 0x22A9 JUMPI PUSH1 0x0 PUSH2 0x221D PUSH2 0x2710 DUP7 PUSH2 0x2623 JUMP JUMPDEST SWAP1 POP PUSH1 0x0 DUP6 DUP8 PUSH1 0x40 MLOAD PUSH1 0x20 ADD PUSH2 0x223D SWAP3 SWAP2 SWAP1 SWAP2 DUP3 MSTORE PUSH1 0x20 DUP3 ADD MSTORE PUSH1 0x40 ADD SWAP1 JUMP JUMPDEST PUSH1 0x40 MLOAD PUSH1 0x20 DUP2 DUP4 SUB SUB DUP2 MSTORE SWAP1 PUSH1 0x40 MSTORE DUP1 MLOAD SWAP1 PUSH1 0x20 ADD KECCAK256 PUSH1 0x0 SHR SWAP1 POP DUP4 PUSH1 0x60 ADD MLOAD PUSH2 0xFFFF AND DUP3 LT ISZERO PUSH2 0x2287 JUMPI PUSH2 0x2280 DUP2 DUP6 PUSH1 0x0 ADD MLOAD DUP7 PUSH1 0x40 ADD MLOAD DUP9 PUSH1 0x5 ADD SLOAD PUSH2 0x23C0 JUMP JUMPDEST SWAP3 POP PUSH2 0x22A2 JUMP JUMPDEST PUSH2 0x229F DUP2 DUP6 PUSH1 0x20 ADD MLOAD DUP7 PUSH1 0x0 ADD MLOAD DUP9 PUSH1 0x5 ADD SLOAD PUSH2 0x23C0 JUMP JUMPDEST SWAP3 POP JUMPDEST POP POP PUSH2 0x22C4 JUMP JUMPDEST PUSH2 0x22C1 DUP5 DUP4 PUSH1 0x20 ADD MLOAD DUP5 PUSH1 0x40 ADD MLOAD DUP7 PUSH1 0x5 ADD SLOAD PUSH2 0x23C0 JUMP JUMPDEST SWAP1 POP JUMPDEST PUSH1 0x4 DUP4 ADD SLOAD ISZERO PUSH2 0x22F6 JUMPI DUP1 DUP4 PUSH1 0x4 ADD SLOAD PUSH1 0x4 SLOAD PUSH2 0x22E1 SWAP2 SWAP1 PUSH2 0x25B4 JUMP JUMPDEST PUSH2 0x22EB SWAP2 SWAP1 PUSH2 0x2637 JUMP JUMPDEST PUSH1 0x4 SWAP1 DUP2 SSTORE DUP4 ADD DUP2 SWAP1 SSTORE JUMPDEST PUSH1 0x3 DUP4 ADD DUP2 SWAP1 SSTORE PUSH1 0x6 DUP4 ADD DUP1 SLOAD PUSH1 0xFF NOT AND PUSH1 0x1 OR SWAP1 SSTORE PUSH1 0x40 MLOAD DUP6 SWAP1 PUSH32 0x7E7F66C93444AA5FA7F1F6B2CEC13935E33053C433ED4FA5A3070B4DB947BA5F SWAP1 PUSH2 0x2340 SWAP1 DUP5 DUP2 MSTORE PUSH1 0x20 ADD SWAP1 JUMP JUMPDEST PUSH1 0x40 MLOAD DUP1 SWAP2 SUB SWAP1 LOG2 POP POP POP POP POP JUMP JUMPDEST PUSH1 0x0 DUP1 PUSH1 0x20 PUSH1 0x0 DUP5 MLOAD PUSH1 0x20 DUP7 ADD PUSH1 0x0 DUP9 GAS CALL DUP1 PUSH2 0x2372 JUMPI PUSH1 0x40 MLOAD RETURNDATASIZE PUSH1 0x0 DUP3 RETURNDATACOPY RETURNDATASIZE DUP2 REVERT JUMPDEST POP POP PUSH1 0x0 MLOAD RETURNDATASIZE SWAP2 POP DUP2 ISZERO PUSH2 0x238A JUMPI DUP1 PUSH1 0x1 EQ ISZERO PUSH2 0x2397 JUMP JUMPDEST PUSH1 0x1 PUSH1 0x1 PUSH1 0xA0 SHL SUB DUP5 AND EXTCODESIZE ISZERO JUMPDEST ISZERO PUSH2 0x210B JUMPI PUSH1 0x40 MLOAD PUSH4 0x5274AFE7 PUSH1 0xE0 SHL DUP2 MSTORE PUSH1 0x1 PUSH1 0x1 PUSH1 0xA0 SHL SUB DUP6 AND PUSH1 0x4 DUP3 ADD MSTORE PUSH1 0x24 ADD PUSH2 0x78B JUMP JUMPDEST PUSH1 0x0 DUP4 DUP4 GT PUSH2 0x23DA JUMPI PUSH2 0x23D3 DUP5 DUP4 PUSH2 0x1FB7 JUMP JUMPDEST SWAP1 POP PUSH2 0x2438 JUMP JUMPDEST PUSH1 0x0 PUSH2 0x23E6 DUP6 DUP5 PUSH2 0x1FB7 JUMP JUMPDEST SWAP1 POP PUSH1 0x0 PUSH2 0x23F4 DUP6 DUP6 PUSH2 0x1FB7 JUMP JUMPDEST SWAP1 POP DUP2 DUP2 GT PUSH2 0x2405 JUMPI POP SWAP1 POP PUSH2 0x2438 JUMP JUMPDEST PUSH1 0x0 PUSH2 0x2411 DUP4 DUP4 PUSH2 0x25B4 JUMP JUMPDEST PUSH2 0x241C SWAP1 PUSH1 0x1 PUSH2 0x2637 JUMP JUMPDEST SWAP1 POP PUSH2 0x2428 DUP2 DUP10 PUSH2 0x2623 JUMP JUMPDEST PUSH2 0x2432 SWAP1 DUP5 PUSH2 0x2637 JUMP JUMPDEST SWAP4 POP POP POP POP JUMPDEST SWAP5 SWAP4 POP POP POP POP JUMP JUMPDEST PUSH1 0x0 PUSH1 0x20 DUP3 DUP5 SUB SLT ISZERO PUSH2 0x2452 JUMPI PUSH1 0x0 DUP1 REVERT JUMPDEST POP CALLDATALOAD SWAP2 SWAP1 POP JUMP JUMPDEST PUSH1 0x0 DUP1 PUSH1 0x40 DUP4 DUP6 SUB SLT ISZERO PUSH2 0x246C JUMPI PUSH1 0x0 DUP1 REVERT JUMPDEST POP POP DUP1 CALLDATALOAD SWAP3 PUSH1 0x20 SWAP1 SWAP2 ADD CALLDATALOAD SWAP2 POP JUMP JUMPDEST DUP1 CALLDATALOAD PUSH2 0xFFFF DUP2 AND DUP2 EQ PUSH2 0x1A20 JUMPI PUSH1 0x0 DUP1 REVERT JUMPDEST PUSH1 0x0 DUP1 PUSH1 0x0 DUP1 PUSH1 0x0 PUSH1 0xA0 DUP7 DUP9 SUB SLT ISZERO PUSH2 0x24A5 JUMPI PUSH1 0x0 DUP1 REVERT JUMPDEST PUSH2 0x24AE DUP7 PUSH2 0x247B JUMP JUMPDEST SWAP8 PUSH1 0x20 DUP8 ADD CALLDATALOAD SWAP8 POP PUSH1 0x40 DUP8 ADD CALLDATALOAD SWAP7 PUSH1 0x60 DUP2 ADD CALLDATALOAD SWAP7 POP PUSH1 0x80 ADD CALLDATALOAD SWAP5 POP SWAP3 POP POP POP JUMP JUMPDEST PUSH1 0x0 DUP1 PUSH1 0x0 DUP1 PUSH1 0x0 DUP1 PUSH1 0xC0 DUP8 DUP10 SUB SLT ISZERO PUSH2 0x24E8 JUMPI PUSH1 0x0 DUP1 REVERT JUMPDEST DUP7 CALLDATALOAD SWAP6 POP PUSH1 0x20 DUP8 ADD CALLDATALOAD SWAP5 POP PUSH1 0x40 DUP8 ADD CALLDATALOAD SWAP4 POP PUSH1 0x60 DUP8 ADD CALLDATALOAD SWAP3 POP PUSH2 0x250D PUSH1 0x80 DUP9 ADD PUSH2 0x247B JUMP JUMPDEST SWAP2 POP PUSH1 0xA0 DUP8 ADD CALLDATALOAD DUP1 ISZERO ISZERO DUP2 EQ PUSH2 0x2522 JUMPI PUSH1 0x0 DUP1 REVERT JUMPDEST DUP1 SWAP2 POP POP SWAP3 SWAP6 POP SWAP3 SWAP6 POP SWAP3 SWAP6 JUMP JUMPDEST DUP1 CALLDATALOAD PUSH1 0x1 PUSH1 0x1 PUSH1 0xA0 SHL SUB DUP2 AND DUP2 EQ PUSH2 0x1A20 JUMPI PUSH1 0x0 DUP1 REVERT JUMPDEST PUSH1 0x0 PUSH1 0x20 DUP3 DUP5 SUB SLT ISZERO PUSH2 0x2559 JUMPI PUSH1 0x0 DUP1 REVERT JUMPDEST PUSH2 0x20CB DUP3 PUSH2 0x2530 JUMP JUMPDEST PUSH1 0x0 DUP1 PUSH1 0x0 PUSH1 0x60 DUP5 DUP7 SUB SLT ISZERO PUSH2 0x2577 JUMPI PUSH1 0x0 DUP1 REVERT JUMPDEST PUSH2 0x2580 DUP5 PUSH2 0x2530 JUMP JUMPDEST SWAP3 POP PUSH2 0x258E PUSH1 0x20 DUP6 ADD PUSH2 0x2530 JUMP JUMPDEST SWAP2 POP PUSH1 0x40 DUP5 ADD CALLDATALOAD SWAP1 POP SWAP3 POP SWAP3 POP SWAP3 JUMP JUMPDEST PUSH4 0x4E487B71 PUSH1 0xE0 SHL PUSH1 0x0 MSTORE PUSH1 0x11 PUSH1 0x4 MSTORE PUSH1 0x24 PUSH1 0x0 REVERT JUMPDEST DUP2 DUP2 SUB DUP2 DUP2 GT ISZERO PUSH2 0x2011 JUMPI PUSH2 0x2011 PUSH2 0x259E JUMP JUMPDEST PUSH1 0x0 PUSH1 0x20 DUP3 DUP5 SUB SLT ISZERO PUSH2 0x25D9 JUMPI PUSH1 0x0 DUP1 REVERT JUMPDEST POP MLOAD SWAP2 SWAP1 POP JUMP JUMPDEST PUSH4 0x4E487B71 PUSH1 0xE0 SHL PUSH1 0x0 MSTORE PUSH1 0x12 PUSH1 0x4 MSTORE PUSH1 0x24 PUSH1 0x0 REVERT JUMPDEST PUSH1 0x0 DUP3 PUSH2 0x2605 JUMPI PUSH2 0x2605 PUSH2 0x25E0 JUMP JUMPDEST POP DIV SWAP1 JUMP JUMPDEST PUSH1 0x0 PUSH1 0x1 DUP3 ADD PUSH2 0x261C JUMPI PUSH2 0x261C PUSH2 0x259E JUMP JUMPDEST POP PUSH1 0x1 ADD SWAP1 JUMP JUMPDEST PUSH1 0x0 DUP3 PUSH2 0x2632 JUMPI PUSH2 0x2632 PUSH2 0x25E0 JUMP JUMPDEST POP MOD SWAP1 JUMP JUMPDEST DUP1 DUP3 ADD DUP1 DUP3 GT ISZERO PUSH2 0x2011 JUMPI PUSH2 0x2011 PUSH2 0x259E JUMP JUMPDEST DUP1 MLOAD PUSH10 0xFFFFFFFFFFFFFFFFFFFF DUP2 AND DUP2 EQ PUSH2 0x1A20 JUMPI PUSH1 0x0 DUP1 REVERT JUMPDEST PUSH1 0x0 DUP1 PUSH1 0x0 DUP1 PUSH1 0x0 PUSH1 0xA0 DUP7 DUP9 SUB SLT ISZERO PUSH2 0x267C JUMPI PUSH1 0x0 DUP1 REVERT JUMPDEST PUSH2 0x2685 DUP7 PUSH2 0x264A JUMP JUMPDEST SWAP5 POP PUSH1 0x20 DUP7 ADD MLOAD SWAP4 POP PUSH1 0x40 DUP7 ADD MLOAD SWAP3 POP PUSH1 0x60 DUP7 ADD MLOAD SWAP2 POP PUSH2 0x26A8 PUSH1 0x80 DUP8 ADD PUSH2 0x264A JUMP JUMPDEST SWAP1 POP SWAP3 SWAP6 POP SWAP3 SWAP6 SWAP1 SWAP4 POP JUMP JUMPDEST DUP1 DUP3 MUL DUP2 ISZERO DUP3 DUP3 DIV DUP5 EQ OR PUSH2 0x2011 JUMPI PUSH2 0x2011 PUSH2 0x259E JUMP INVALID LOG2 PUSH5 0x6970667358 0x22 SLT KECCAK256 0xB0 SLOAD 0xC4 SUB PUSH28 0xFB7CBAF687C83881BE3EC4D9FE5599392935178F115E6C49B9FD4A64 PUSH20 0x6F6C634300081800330000000000000000000000 "},"methodIdentifiers":{"CBBTC_SCALE()":"bfc9b279","USD_SCALE()":"f96d0baa","availableCases(uint256)":"d037005f","btcUsdDecimals()":"9d55ffb5","btcUsdFeed()":"d310d14d","btcUsdScale()":"2ef31ea4","caseToken()":"af81d5fc","caseTypes(uint256)":"e5849a9f","cbBtc()":"ecf3a80e","claimReward(uint256)":"ae169a50","dailyCaseCaseBps()":"5fe9600a","dailyCaseCaseMax()":"7ace5e5b","dailyCaseCaseMin()":"2c3c6b50","dailyCaseCbBtcMax()":"da3f138d","dailyCaseCbBtcMin()":"bc4f02bb","dailyCaseTypeId()":"169b0b2b","dailyCooldown()":"aadce0b4","emergencyWithdraw(address,address,uint256)":"e63ea408","getOpening(uint256)":"e3f96d7c","lastDailyOpen(address)":"a8bc2b29","maxPriceAge()":"1584410a","nextOpeningId()":"767e9198","openings(uint256)":"75e20f29","owner()":"8da5cb5b","purchaseCase(uint256)":"dbe07bb9","renounceOwnership()":"715018a6","reservedCaseReward()":"9d436125","reservedCbBtcReward()":"c84198ec","setCaseType(uint256,uint256,uint256,uint256,uint16,bool)":"a839a37c","setDailyCase(uint256,uint256)":"79f47973","setDailyCaseRewards(uint16,uint256,uint256,uint256,uint256)":"859ffc7e","setMaxPriceAge(uint256)":"56447ce8","setTreasury(address)":"f0f44260","transferOwnership(address)":"f2fde38b","treasury()":"61d027b3","usdc()":"3e413bee"}}}}}