{
  "_format": "hh-sol-artifact-1",
  "contractName": "CaseSale",
  "sourceName": "contracts/CaseSale.sol",
  "abi": [
    {
      "inputs": [
        {
          "internalType": "address",
          "name": "usdcAddress",
          "type": "address"
        },
        {
          "internalType": "address",
          "name": "cbBtcAddress",
          "type": "address"
        },
        {
          "internalType": "address",
          "name": "btcUsdFeedAddress",
          "type": "address"
        },
        {
          "internalType": "address",
          "name": "treasuryAddress",
          "type": "address"
        }
      ],
      "stateMutability": "nonpayable",
      "type": "constructor"
    },
    {
      "inputs": [
        {
          "internalType": "address",
          "name": "owner",
          "type": "address"
        }
      ],
      "name": "OwnableInvalidOwner",
      "type": "error"
    },
    {
      "inputs": [
        {
          "internalType": "address",
          "name": "account",
          "type": "address"
        }
      ],
      "name": "OwnableUnauthorizedAccount",
      "type": "error"
    },
    {
      "inputs": [],
      "name": "ReentrancyGuardReentrantCall",
      "type": "error"
    },
    {
      "inputs": [
        {
          "internalType": "address",
          "name": "token",
          "type": "address"
        }
      ],
      "name": "SafeERC20FailedOperation",
      "type": "error"
    },
    {
      "anonymous": false,
      "inputs": [
        {
          "indexed": true,
          "internalType": "uint256",
          "name": "openingId",
          "type": "uint256"
        },
        {
          "indexed": true,
          "internalType": "address",
          "name": "buyer",
          "type": "address"
        },
        {
          "indexed": false,
          "internalType": "uint256",
          "name": "rewardAmount",
          "type": "uint256"
        }
      ],
      "name": "CaseClaimed",
      "type": "event"
    },
    {
      "anonymous": false,
      "inputs": [
        {
          "indexed": true,
          "internalType": "address",
          "name": "buyer",
          "type": "address"
        },
        {
          "indexed": true,
          "internalType": "uint256",
          "name": "caseTypeId",
          "type": "uint256"
        },
        {
          "indexed": true,
          "internalType": "uint256",
          "name": "openingId",
          "type": "uint256"
        },
        {
          "indexed": false,
          "internalType": "uint256",
          "name": "priceUSDC",
          "type": "uint256"
        }
      ],
      "name": "CasePurchased",
      "type": "event"
    },
    {
      "anonymous": false,
      "inputs": [
        {
          "indexed": true,
          "internalType": "uint256",
          "name": "openingId",
          "type": "uint256"
        },
        {
          "indexed": false,
          "internalType": "uint256",
          "name": "rewardAmount",
          "type": "uint256"
        }
      ],
      "name": "CaseRewarded",
      "type": "event"
    },
    {
      "anonymous": false,
      "inputs": [
        {
          "indexed": true,
          "internalType": "uint256",
          "name": "caseTypeId",
          "type": "uint256"
        },
        {
          "indexed": false,
          "internalType": "uint256",
          "name": "priceUSDC",
          "type": "uint256"
        },
        {
          "indexed": false,
          "internalType": "uint256",
          "name": "minRewardUsd",
          "type": "uint256"
        },
        {
          "indexed": false,
          "internalType": "uint256",
          "name": "maxRewardUsd",
          "type": "uint256"
        },
        {
          "indexed": false,
          "internalType": "uint16",
          "name": "positiveReturnBps",
          "type": "uint16"
        },
        {
          "indexed": false,
          "internalType": "bool",
          "name": "enabled",
          "type": "bool"
        }
      ],
      "name": "CaseTypeUpdated",
      "type": "event"
    },
    {
      "anonymous": false,
      "inputs": [
        {
          "indexed": false,
          "internalType": "uint256",
          "name": "maxPriceAge",
          "type": "uint256"
        }
      ],
      "name": "MaxPriceAgeUpdated",
      "type": "event"
    },
    {
      "anonymous": false,
      "inputs": [
        {
          "indexed": true,
          "internalType": "address",
          "name": "previousOwner",
          "type": "address"
        },
        {
          "indexed": true,
          "internalType": "address",
          "name": "newOwner",
          "type": "address"
        }
      ],
      "name": "OwnershipTransferred",
      "type": "event"
    },
    {
      "anonymous": false,
      "inputs": [
        {
          "indexed": true,
          "internalType": "address",
          "name": "treasury",
          "type": "address"
        }
      ],
      "name": "TreasuryUpdated",
      "type": "event"
    },
    {
      "inputs": [],
      "name": "CBBTC_SCALE",
      "outputs": [
        {
          "internalType": "uint256",
          "name": "",
          "type": "uint256"
        }
      ],
      "stateMutability": "view",
      "type": "function"
    },
    {
      "inputs": [],
      "name": "USD_SCALE",
      "outputs": [
        {
          "internalType": "uint256",
          "name": "",
          "type": "uint256"
        }
      ],
      "stateMutability": "view",
      "type": "function"
    },
    {
      "inputs": [
        {
          "internalType": "uint256",
          "name": "caseTypeId",
          "type": "uint256"
        }
      ],
      "name": "availableCases",
      "outputs": [
        {
          "internalType": "uint256",
          "name": "",
          "type": "uint256"
        }
      ],
      "stateMutability": "view",
      "type": "function"
    },
    {
      "inputs": [],
      "name": "btcUsdDecimals",
      "outputs": [
        {
          "internalType": "uint8",
          "name": "",
          "type": "uint8"
        }
      ],
      "stateMutability": "view",
      "type": "function"
    },
    {
      "inputs": [],
      "name": "btcUsdFeed",
      "outputs": [
        {
          "internalType": "contract AggregatorV3Interface",
          "name": "",
          "type": "address"
        }
      ],
      "stateMutability": "view",
      "type": "function"
    },
    {
      "inputs": [],
      "name": "btcUsdScale",
      "outputs": [
        {
          "internalType": "uint256",
          "name": "",
          "type": "uint256"
        }
      ],
      "stateMutability": "view",
      "type": "function"
    },
    {
      "inputs": [
        {
          "internalType": "uint256",
          "name": "",
          "type": "uint256"
        }
      ],
      "name": "caseTypes",
      "outputs": [
        {
          "internalType": "uint256",
          "name": "priceUSDC",
          "type": "uint256"
        },
        {
          "internalType": "uint256",
          "name": "minRewardUsd",
          "type": "uint256"
        },
        {
          "internalType": "uint256",
          "name": "maxRewardUsd",
          "type": "uint256"
        },
        {
          "internalType": "uint16",
          "name": "positiveReturnBps",
          "type": "uint16"
        },
        {
          "internalType": "bool",
          "name": "enabled",
          "type": "bool"
        }
      ],
      "stateMutability": "view",
      "type": "function"
    },
    {
      "inputs": [],
      "name": "cbBtc",
      "outputs": [
        {
          "internalType": "contract IERC20",
          "name": "",
          "type": "address"
        }
      ],
      "stateMutability": "view",
      "type": "function"
    },
    {
      "inputs": [
        {
          "internalType": "uint256",
          "name": "openingId",
          "type": "uint256"
        }
      ],
      "name": "claimReward",
      "outputs": [],
      "stateMutability": "nonpayable",
      "type": "function"
    },
    {
      "inputs": [
        {
          "internalType": "uint256",
          "name": "openingId",
          "type": "uint256"
        }
      ],
      "name": "getOpening",
      "outputs": [
        {
          "components": [
            {
              "internalType": "address",
              "name": "buyer",
              "type": "address"
            },
            {
              "internalType": "uint256",
              "name": "caseTypeId",
              "type": "uint256"
            },
            {
              "internalType": "uint256",
              "name": "rewardAmount",
              "type": "uint256"
            },
            {
              "internalType": "uint256",
              "name": "reservedAmount",
              "type": "uint256"
            },
            {
              "internalType": "uint256",
              "name": "btcUsdPrice",
              "type": "uint256"
            },
            {
              "internalType": "bool",
              "name": "rewarded",
              "type": "bool"
            },
            {
              "internalType": "bool",
              "name": "claimed",
              "type": "bool"
            }
          ],
          "internalType": "struct CaseSale.Opening",
          "name": "",
          "type": "tuple"
        }
      ],
      "stateMutability": "view",
      "type": "function"
    },
    {
      "inputs": [],
      "name": "maxPriceAge",
      "outputs": [
        {
          "internalType": "uint256",
          "name": "",
          "type": "uint256"
        }
      ],
      "stateMutability": "view",
      "type": "function"
    },
    {
      "inputs": [],
      "name": "nextOpeningId",
      "outputs": [
        {
          "internalType": "uint256",
          "name": "",
          "type": "uint256"
        }
      ],
      "stateMutability": "view",
      "type": "function"
    },
    {
      "inputs": [
        {
          "internalType": "uint256",
          "name": "",
          "type": "uint256"
        }
      ],
      "name": "openings",
      "outputs": [
        {
          "internalType": "address",
          "name": "buyer",
          "type": "address"
        },
        {
          "internalType": "uint256",
          "name": "caseTypeId",
          "type": "uint256"
        },
        {
          "internalType": "uint256",
          "name": "rewardAmount",
          "type": "uint256"
        },
        {
          "internalType": "uint256",
          "name": "reservedAmount",
          "type": "uint256"
        },
        {
          "internalType": "uint256",
          "name": "btcUsdPrice",
          "type": "uint256"
        },
        {
          "internalType": "bool",
          "name": "rewarded",
          "type": "bool"
        },
        {
          "internalType": "bool",
          "name": "claimed",
          "type": "bool"
        }
      ],
      "stateMutability": "view",
      "type": "function"
    },
    {
      "inputs": [],
      "name": "owner",
      "outputs": [
        {
          "internalType": "address",
          "name": "",
          "type": "address"
        }
      ],
      "stateMutability": "view",
      "type": "function"
    },
    {
      "inputs": [
        {
          "internalType": "uint256",
          "name": "caseTypeId",
          "type": "uint256"
        }
      ],
      "name": "purchaseCase",
      "outputs": [
        {
          "internalType": "uint256",
          "name": "openingId",
          "type": "uint256"
        }
      ],
      "stateMutability": "nonpayable",
      "type": "function"
    },
    {
      "inputs": [],
      "name": "renounceOwnership",
      "outputs": [],
      "stateMutability": "nonpayable",
      "type": "function"
    },
    {
      "inputs": [],
      "name": "reservedReward",
      "outputs": [
        {
          "internalType": "uint256",
          "name": "",
          "type": "uint256"
        }
      ],
      "stateMutability": "view",
      "type": "function"
    },
    {
      "inputs": [
        {
          "internalType": "uint256",
          "name": "caseTypeId",
          "type": "uint256"
        },
        {
          "internalType": "uint256",
          "name": "priceUSDC",
          "type": "uint256"
        },
        {
          "internalType": "uint256",
          "name": "minRewardUsd",
          "type": "uint256"
        },
        {
          "internalType": "uint256",
          "name": "maxRewardUsd",
          "type": "uint256"
        },
        {
          "internalType": "uint16",
          "name": "positiveReturnBps",
          "type": "uint16"
        },
        {
          "internalType": "bool",
          "name": "enabled",
          "type": "bool"
        }
      ],
      "name": "setCaseType",
      "outputs": [],
      "stateMutability": "nonpayable",
      "type": "function"
    },
    {
      "inputs": [
        {
          "internalType": "uint256",
          "name": "newMaxPriceAge",
          "type": "uint256"
        }
      ],
      "name": "setMaxPriceAge",
      "outputs": [],
      "stateMutability": "nonpayable",
      "type": "function"
    },
    {
      "inputs": [
        {
          "internalType": "address",
          "name": "newTreasury",
          "type": "address"
        }
      ],
      "name": "setTreasury",
      "outputs": [],
      "stateMutability": "nonpayable",
      "type": "function"
    },
    {
      "inputs": [
        {
          "internalType": "address",
          "name": "newOwner",
          "type": "address"
        }
      ],
      "name": "transferOwnership",
      "outputs": [],
      "stateMutability": "nonpayable",
      "type": "function"
    },
    {
      "inputs": [],
      "name": "treasury",
      "outputs": [
        {
          "internalType": "address",
          "name": "",
          "type": "address"
        }
      ],
      "stateMutability": "view",
      "type": "function"
    },
    {
      "inputs": [],
      "name": "usdc",
      "outputs": [
        {
          "internalType": "contract IERC20",
          "name": "",
          "type": "address"
        }
      ],
      "stateMutability": "view",
      "type": "function"
    }
  ],
  "bytecode": "0x6101206040523480156200001257600080fd5b5060405162001dee38038062001dee833981016040819052620000359162000303565b600160005533806200006257604051631e4fbdf760e01b8152600060048201526024015b60405180910390fd5b6200006d8162000294565b506001600160a01b038416620000c65760405162461bcd60e51b815260206004820152601560248201527f5553444320616464726573732072657175697265640000000000000000000000604482015260640162000059565b6001600160a01b0383166200011e5760405162461bcd60e51b815260206004820152601660248201527f6362425443206164647265737320726571756972656400000000000000000000604482015260640162000059565b6001600160a01b038216620001765760405162461bcd60e51b815260206004820152601560248201527f4254432f55534420666565642072657175697265640000000000000000000000604482015260640162000059565b6001600160a01b038116620001ce5760405162461bcd60e51b815260206004820152601960248201527f5472656173757279206164647265737320726571756972656400000000000000604482015260640162000059565b6001600160a01b0380851660805283811660a052821660c08190526040805163313ce56760e01b8152905163313ce567916004808201926020929091908290030181865afa15801562000225573d6000803e3d6000fd5b505050506040513d601f19601f820116820180604052508101906200024b919062000360565b60ff1660e08190526200026090600a620004a1565b61010052600280546001600160a01b0319166001600160a01b039290921691909117905550506201518060055550620004b2565b600180546001600160a01b038381166001600160a01b0319831681179093556040519116919082907f8be0079c531659141344cd1fd0a4f28419497f9722a3daafe3b4186f6b6457e090600090a35050565b80516001600160a01b0381168114620002fe57600080fd5b919050565b600080600080608085870312156200031a57600080fd5b6200032585620002e6565b93506200033560208601620002e6565b92506200034560408601620002e6565b91506200035560608601620002e6565b905092959194509250565b6000602082840312156200037357600080fd5b815160ff811681146200038557600080fd5b9392505050565b634e487b7160e01b600052601160045260246000fd5b600181815b80851115620003e3578160001904821115620003c757620003c76200038c565b80851615620003d557918102915b93841c9390800290620003a7565b509250929050565b600082620003fc575060016200049b565b816200040b575060006200049b565b81600181146200042457600281146200042f576200044f565b60019150506200049b565b60ff8411156200044357620004436200038c565b50506001821b6200049b565b5060208310610133831016604e8410600b841016171562000474575081810a6200049b565b620004808383620003a2565b80600019048211156200049757620004976200038c565b0290505b92915050565b60006200038560ff841683620003eb565b60805160a05160c05160e051610100516118cd6200052160003960008181610173015261127b015260006102bf01526000818161034501526110cd0152600081816104620152818161085b015281816109910152610b9101526000818161019a0152610ca801526118cd6000f3fe608060405234801561001057600080fd5b506004361061014d5760003560e01c8063ae169a50116100c3578063e3f96d7c1161007c578063e3f96d7c1461037a578063e5849a9f146103eb578063ecf3a80e1461045d578063f0f4426014610484578063f2fde38b14610497578063f96d0baa146104aa57600080fd5b8063ae169a5014610306578063af42d5f014610319578063bfc9b27914610322578063d037005f1461032d578063d310d14d14610340578063dbe07bb91461036757600080fd5b8063715018a611610115578063715018a6146101fc57806375e20f2914610204578063767e9198146102a05780638da5cb5b146102a95780639d55ffb5146102ba578063a839a37c146102f357600080fd5b80631584410a146101525780632ef31ea41461016e5780633e413bee1461019557806356447ce8146101d457806361d027b3146101e9575b600080fd5b61015b60055481565b6040519081526020015b60405180910390f35b61015b7f000000000000000000000000000000000000000000000000000000000000000081565b6101bc7f000000000000000000000000000000000000000000000000000000000000000081565b6040516001600160a01b039091168152602001610165565b6101e76101e23660046116b7565b6104b4565b005b6002546101bc906001600160a01b031681565b6101e761053f565b61025d6102123660046116b7565b6007602052600090815260409020805460018201546002830154600384015460048501546005909501546001600160a01b039094169492939192909160ff8082169161010090041687565b604080516001600160a01b03909816885260208801969096529486019390935260608501919091526080840152151560a0830152151560c082015260e001610165565b61015b60035481565b6001546001600160a01b03166101bc565b6102e17f000000000000000000000000000000000000000000000000000000000000000081565b60405160ff9091168152602001610165565b6101e76103013660046116d0565b610553565b6101e76103143660046116b7565b61071b565b61015b60045481565b61015b6305f5e10081565b61015b61033b3660046116b7565b6108d9565b6101bc7f000000000000000000000000000000000000000000000000000000000000000081565b61015b6103753660046116b7565b610a3e565b61038d6103883660046116b7565b610e0f565b604051610165919081516001600160a01b031681526020808301519082015260408083015190820152606080830151908201526080808301519082015260a08281015115159082015260c09182015115159181019190915260e00190565b61042f6103f93660046116b7565b60066020526000908152604090208054600182015460028301546003909301549192909161ffff81169062010000900460ff1685565b6040805195865260208601949094529284019190915261ffff1660608301521515608082015260a001610165565b6101bc7f000000000000000000000000000000000000000000000000000000000000000081565b6101e761049236600461173a565b610ed3565b6101e76104a536600461173a565b610f7b565b61015b620f424081565b6104bc610fb6565b600081116105045760405162461bcd60e51b815260206004820152601060248201526f13585e081859d9481c995c5d5a5c995960821b60448201526064015b60405180910390fd5b60058190556040518181527fb1740bfafb685e9cda34b9238959b40d11f603ba6db685c0468d4804140547b49060200160405180910390a150565b610547610fb6565b6105516000610fe3565b565b61055b610fb6565b838310156105a25760405162461bcd60e51b8152602060048201526014602482015273496e76616c6964207265776172642072616e676560601b60448201526064016104fb565b8385101580156105b25750828511155b6105f45760405162461bcd60e51b81526020600482015260136024820152725072696365206f7574736964652072616e676560681b60448201526064016104fb565b6127108261ffff1611156106385760405162461bcd60e51b815260206004820152600b60248201526a496e76616c69642042505360a81b60448201526064016104fb565b6040805160a081018252868152602080820187815282840187815261ffff808816606086019081528715156080870190815260008e815260069096529487902095518655925160018601559051600285015590516003909301805492511515620100000262ffffff1990931693909116929092171790555186907fe7dfe3c084fa4f22acb02fd9a17bc032556708e078e8f1adf50488f30fea7c049061070b90889088908890889088909485526020850193909352604084019190915261ffff1660608301521515608082015260a00190565b60405180910390a2505050505050565b610723611035565b600081815260076020526040902080546001600160a01b031633146107775760405162461bcd60e51b815260206004820152600a6024820152692737ba1037b832b732b960b11b60448201526064016104fb565b600581015460ff166107be5760405162461bcd60e51b815260206004820152601060248201526f526577617264206e6f7420726561647960801b60448201526064016104fb565b6005810154610100900460ff161561080a5760405162461bcd60e51b815260206004820152600f60248201526e105b1c9958591e4818db185a5b5959608a1b60448201526064016104fb565b60058101805461ff0019166101001790556003810154156108485780600301546004600082825461083b9190611780565b9091555050600060038201555b6002810154610883906001600160a01b037f00000000000000000000000000000000000000000000000000000000000000001690339061105f565b336001600160a01b0316827fac4599846a321cd0603bcfdef5b7b20c1464b6e577379378c9f738ef3b0d19fb83600201546040516108c391815260200190565b60405180910390a3506108d66001600055565b50565b6000818152600660209081526040808320815160a081018352815481526001820154938101939093526002810154918301919091526003015461ffff8116606083015262010000900460ff1615801560808301528061093a57506040810151155b156109485750600092915050565b60006109526110c3565b90506000610964836040015183611276565b90508060000361097957506000949350505050565b6040516370a0823160e01b81523060048201526000907f00000000000000000000000000000000000000000000000000000000000000006001600160a01b0316906370a0823190602401602060405180830381865afa1580156109e0573d6000803e3d6000fd5b505050506040513d601f19601f82011682018060405250810190610a049190611793565b90506004548111610a1b5750600095945050505050565b8160045482610a2a9190611780565b610a3491906117c2565b9695505050505050565b6000610a48611035565b600082815260066020908152604091829020825160a0810184528154815260018201549281019290925260028101549282019290925260039091015461ffff8116606083015262010000900460ff16151560808201819052610adc5760405162461bcd60e51b815260206004820152600d60248201526c10d85cd948191a5cd8589b1959609a1b60448201526064016104fb565b8051610b1b5760405162461bcd60e51b815260206004820152600e60248201526d10d85cd9481b9bdd08199bdd5b9960921b60448201526064016104fb565b6000610b256110c3565b90506000610b37836040015183611276565b905060008111610b795760405162461bcd60e51b815260206004820152600d60248201526c507269636520746f6f206c6f7760981b60448201526064016104fb565b6040516370a0823160e01b81523060048201526000907f00000000000000000000000000000000000000000000000000000000000000006001600160a01b0316906370a0823190602401602060405180830381865afa158015610be0573d6000803e3d6000fd5b505050506040513d601f19601f82011682018060405250810190610c049190611793565b90506004548111610c425760405162461bcd60e51b815260206004820152600860248201526714dbdb19081bdd5d60c21b60448201526064016104fb565b60008260045483610c539190611780565b610c5d91906117c2565b11610c955760405162461bcd60e51b815260206004820152600860248201526714dbdb19081bdd5d60c21b60448201526064016104fb565b6002548451610cd6916001600160a01b037f0000000000000000000000000000000000000000000000000000000000000000811692339291909116906112d6565b600360008154610ce5906117d6565b91905081905594508160046000828254610cff91906117ef565b90915550506040805160e0810182523381526020808201898152600083850181815260608501888152608086018a815260a0870184815260c088018581528e86526007909752978420965187546001600160a01b0319166001600160a01b03909116178755935160018701559051600286015551600385015590516004840155925160059092018054915161ffff1990921692151561ff0019169290921761010091151591909102179055610db48688611315565b9050610dc08682611388565b84516040519081528690889033907ff7a35f1b41370902294f55466fe05b5ebc1803195a160f64a579b0c0e86a0b0c9060200160405180910390a45050505050610e0a6001600055565b919050565b610e5c6040518060e0016040528060006001600160a01b03168152602001600081526020016000815260200160008152602001600081526020016000151581526020016000151581525090565b50600090815260076020908152604091829020825160e08101845281546001600160a01b03168152600182015492810192909252600281015492820192909252600382015460608201526004820154608082015260059091015460ff808216151560a084015261010090910416151560c082015290565b610edb610fb6565b6001600160a01b038116610f315760405162461bcd60e51b815260206004820152601960248201527f547265617375727920616464726573732072657175697265640000000000000060448201526064016104fb565b600280546001600160a01b0319166001600160a01b0383169081179091556040517f7dae230f18360d76a040c81f050aa14eb9d6dc7901b20fc5d855e2a20fe814d190600090a250565b610f83610fb6565b6001600160a01b038116610fad57604051631e4fbdf760e01b8152600060048201526024016104fb565b6108d681610fe3565b6001546001600160a01b031633146105515760405163118cdaa760e01b81523360048201526024016104fb565b600180546001600160a01b038381166001600160a01b0319831681179093556040519116919082907f8be0079c531659141344cd1fd0a4f28419497f9722a3daafe3b4186f6b6457e090600090a35050565b60026000540361105857604051633ee5aeb560e01b815260040160405180910390fd5b6002600055565b6040516001600160a01b038381166024830152604482018390526110be91859182169063a9059cbb906064015b604051602081830303815290604052915060e01b6020820180516001600160e01b0383818316178352505050506115c6565b505050565b60008060008060007f00000000000000000000000000000000000000000000000000000000000000006001600160a01b031663feaf968c6040518163ffffffff1660e01b815260040160a060405180830381865afa158015611129573d6000803e3d6000fd5b505050506040513d601f19601f8201168201806040525081019061114d919061181c565b945094505093509350600083136111925760405162461bcd60e51b815260206004820152600960248201526842616420707269636560b81b60448201526064016104fb565b816000036111ce5760405162461bcd60e51b815260206004820152600960248201526842616420707269636560b81b60448201526064016104fb565b8369ffffffffffffffffffff168169ffffffffffffffffffff1610156112245760405162461bcd60e51b815260206004820152600b60248201526a5374616c6520707269636560a81b60448201526064016104fb565b6005546112318342611780565b111561126d5760405162461bcd60e51b815260206004820152600b60248201526a5374616c6520707269636560a81b60448201526064016104fb565b50909392505050565b6000807f00000000000000000000000000000000000000000000000000000000000000006112a86305f5e1008661186c565b6112b2919061186c565b9050620f42406112c284836117c2565b6112cc91906117c2565b9150505b92915050565b6040516001600160a01b03848116602483015283811660448301526064820183905261130f9186918216906323b872dd9060840161108c565b50505050565b600044611323600143611780565b6040805160208101939093529040908201526bffffffffffffffffffffffff1933606090811b821681840152607483018690526094830185905230901b1660b482015260c80160408051601f1981840301815291905280516020909101209392505050565b600082815260076020526040902080546001600160a01b03166113e15760405162461bcd60e51b815260206004820152601160248201527013dc195b9a5b99c81b9bdd08199bdd5b99607a1b60448201526064016104fb565b600581015460ff16156114295760405162461bcd60e51b815260206004820152601060248201526f105b1c9958591e481c995dd85c99195960821b60448201526064016104fb565b6001818101546000908152600660209081526040808320815160a0810183528154815294810154928501929092526002820154908401526003015461ffff8116606084018190526201000090910460ff16151560808401521561152057600061149461271086611883565b9050600085876040516020016114b4929190918252602082015260400190565b6040516020818303038152906040528051906020012060001c9050836060015161ffff168210156114fe576114f781856000015186604001518860040154611637565b9250611519565b61151681856020015186600001518860040154611637565b92505b505061153b565b61153884836020015184604001518660040154611637565b90505b60038301541561156d578083600301546004546115589190611780565b61156291906117ef565b600455600383018190555b6002830181905560058301805460ff1916600117905560405185907f7e7f66c93444aa5fa7f1f6b2cec13935e33053c433ed4fa5a3070b4db947ba5f906115b79084815260200190565b60405180910390a25050505050565b600080602060008451602086016000885af1806115e9576040513d6000823e3d81fd5b50506000513d9150811561160157806001141561160e565b6001600160a01b0384163b155b1561130f57604051635274afe760e01b81526001600160a01b03851660048201526024016104fb565b60008383116116515761164a8483611276565b90506116af565b600061165d8584611276565b9050600061166b8585611276565b905081811161167c575090506116af565b60006116888383611780565b6116939060016117ef565b905061169f8189611883565b6116a990846117ef565b93505050505b949350505050565b6000602082840312156116c957600080fd5b5035919050565b60008060008060008060c087890312156116e957600080fd5b86359550602087013594506040870135935060608701359250608087013561ffff8116811461171757600080fd5b915060a0870135801515811461172c57600080fd5b809150509295509295509295565b60006020828403121561174c57600080fd5b81356001600160a01b038116811461176357600080fd5b9392505050565b634e487b7160e01b600052601160045260246000fd5b818103818111156112d0576112d061176a565b6000602082840312156117a557600080fd5b5051919050565b634e487b7160e01b600052601260045260246000fd5b6000826117d1576117d16117ac565b500490565b6000600182016117e8576117e861176a565b5060010190565b808201808211156112d0576112d061176a565b805169ffffffffffffffffffff81168114610e0a57600080fd5b600080600080600060a0868803121561183457600080fd5b61183d86611802565b945060208601519350604086015192506060860151915061186060808701611802565b90509295509295909350565b80820281158282048414176112d0576112d061176a565b600082611892576118926117ac565b50069056fea2646970667358221220abaf0e3862eb4f7a5cf265612a3a0706dcbcacbfab00ea82582d93118d09f01864736f6c63430008180033",
  "linkReferences": {},
  "deployedLinkReferences": {}
}