{
  "_format": "hh-sol-artifact-1",
  "contractName": "CaseStaking",
  "sourceName": "contracts/CaseStaking.sol",
  "abi": [
    {
      "inputs": [
        {
          "internalType": "address",
          "name": "caseTokenAddress",
          "type": "address"
        },
        {
          "internalType": "address",
          "name": "xCaseAddress",
          "type": "address"
        }
      ],
      "stateMutability": "nonpayable",
      "type": "constructor"
    },
    {
      "inputs": [
        {
          "internalType": "address",
          "name": "owner",
          "type": "address"
        }
      ],
      "name": "OwnableInvalidOwner",
      "type": "error"
    },
    {
      "inputs": [
        {
          "internalType": "address",
          "name": "account",
          "type": "address"
        }
      ],
      "name": "OwnableUnauthorizedAccount",
      "type": "error"
    },
    {
      "inputs": [],
      "name": "ReentrancyGuardReentrantCall",
      "type": "error"
    },
    {
      "inputs": [
        {
          "internalType": "address",
          "name": "token",
          "type": "address"
        }
      ],
      "name": "SafeERC20FailedOperation",
      "type": "error"
    },
    {
      "anonymous": false,
      "inputs": [
        {
          "indexed": true,
          "internalType": "address",
          "name": "previousOwner",
          "type": "address"
        },
        {
          "indexed": true,
          "internalType": "address",
          "name": "newOwner",
          "type": "address"
        }
      ],
      "name": "OwnershipTransferred",
      "type": "event"
    },
    {
      "anonymous": false,
      "inputs": [
        {
          "indexed": true,
          "internalType": "address",
          "name": "user",
          "type": "address"
        },
        {
          "indexed": false,
          "internalType": "uint256",
          "name": "amount",
          "type": "uint256"
        }
      ],
      "name": "Staked",
      "type": "event"
    },
    {
      "anonymous": false,
      "inputs": [
        {
          "indexed": true,
          "internalType": "address",
          "name": "user",
          "type": "address"
        },
        {
          "indexed": false,
          "internalType": "uint256",
          "name": "amount",
          "type": "uint256"
        }
      ],
      "name": "Unstaked",
      "type": "event"
    },
    {
      "inputs": [],
      "name": "caseToken",
      "outputs": [
        {
          "internalType": "contract IERC20",
          "name": "",
          "type": "address"
        }
      ],
      "stateMutability": "view",
      "type": "function"
    },
    {
      "inputs": [],
      "name": "owner",
      "outputs": [
        {
          "internalType": "address",
          "name": "",
          "type": "address"
        }
      ],
      "stateMutability": "view",
      "type": "function"
    },
    {
      "inputs": [],
      "name": "renounceOwnership",
      "outputs": [],
      "stateMutability": "nonpayable",
      "type": "function"
    },
    {
      "inputs": [
        {
          "internalType": "uint256",
          "name": "amount",
          "type": "uint256"
        }
      ],
      "name": "stake",
      "outputs": [],
      "stateMutability": "nonpayable",
      "type": "function"
    },
    {
      "inputs": [
        {
          "internalType": "address",
          "name": "newOwner",
          "type": "address"
        }
      ],
      "name": "transferOwnership",
      "outputs": [],
      "stateMutability": "nonpayable",
      "type": "function"
    },
    {
      "inputs": [
        {
          "internalType": "uint256",
          "name": "amount",
          "type": "uint256"
        }
      ],
      "name": "unstake",
      "outputs": [],
      "stateMutability": "nonpayable",
      "type": "function"
    },
    {
      "inputs": [],
      "name": "xCase",
      "outputs": [
        {
          "internalType": "contract XCase",
          "name": "",
          "type": "address"
        }
      ],
      "stateMutability": "view",
      "type": "function"
    }
  ],
  "bytecode": "0x60c060405234801561001057600080fd5b5060405161084738038061084783398101604081905261002f91610193565b338061005657604051631e4fbdf760e01b8152600060048201526024015b60405180910390fd5b61005f81610127565b50600180556001600160a01b0382166100ba5760405162461bcd60e51b815260206004820152601560248201527f4341534520616464726573732072657175697265640000000000000000000000604482015260640161004d565b6001600160a01b0381166101105760405162461bcd60e51b815260206004820152601660248201527f7843415345206164647265737320726571756972656400000000000000000000604482015260640161004d565b6001600160a01b039182166080521660a0526101c6565b600080546001600160a01b038381166001600160a01b0319831681178455604051919092169283917f8be0079c531659141344cd1fd0a4f28419497f9722a3daafe3b4186f6b6457e09190a35050565b80516001600160a01b038116811461018e57600080fd5b919050565b600080604083850312156101a657600080fd5b6101af83610177565b91506101bd60208401610177565b90509250929050565b60805160a05161064161020660003960008181609c015281816101ab015261033601526000818161010b0152818161021c01526102f201526106416000f3fe608060405234801561001057600080fd5b506004361061007d5760003560e01c80638da5cb5b1161005b5780638da5cb5b146100e2578063a694fc3a146100f3578063af81d5fc14610106578063f2fde38b1461012d57600080fd5b80632e17de78146100825780636aa46f0114610097578063715018a6146100da575b600080fd5b6100956100903660046105c2565b610140565b005b6100be7f000000000000000000000000000000000000000000000000000000000000000081565b6040516001600160a01b03909116815260200160405180910390f35b610095610287565b6000546001600160a01b03166100be565b6100956101013660046105c2565b61029b565b6100be7f000000000000000000000000000000000000000000000000000000000000000081565b61009561013b3660046105db565b6103cc565b610148610407565b6000811161018f5760405162461bcd60e51b815260206004820152600f60248201526e105b5bdd5b9d081c995c5d5a5c9959608a1b60448201526064015b60405180910390fd5b604051632770a7eb60e21b8152336004820152602481018290527f00000000000000000000000000000000000000000000000000000000000000006001600160a01b031690639dc29fac90604401600060405180830381600087803b1580156101f757600080fd5b505af115801561020b573d6000803e3d6000fd5b506102459250506001600160a01b037f00000000000000000000000000000000000000000000000000000000000000001690503383610431565b60405181815233907f0f5bb82176feb1b5e747e28471aa92156a04d9f3ab9f45f28e2d704232b93f75906020015b60405180910390a261028460018055565b50565b61028f610495565b61029960006104c2565b565b6102a3610407565b600081116102e55760405162461bcd60e51b815260206004820152600f60248201526e105b5bdd5b9d081c995c5d5a5c9959608a1b6044820152606401610186565b61031a6001600160a01b037f000000000000000000000000000000000000000000000000000000000000000016333084610512565b6040516340c10f1960e01b8152336004820152602481018290527f00000000000000000000000000000000000000000000000000000000000000006001600160a01b0316906340c10f1990604401600060405180830381600087803b15801561038257600080fd5b505af1158015610396573d6000803e3d6000fd5b50506040518381523392507f9e71bc8eea02a63969f509818f2dafb9254532904319f9dbda79b67bd34a5f3d9150602001610273565b6103d4610495565b6001600160a01b0381166103fe57604051631e4fbdf760e01b815260006004820152602401610186565b610284816104c2565b60026001540361042a57604051633ee5aeb560e01b815260040160405180910390fd5b6002600155565b6040516001600160a01b0383811660248301526044820183905261049091859182169063a9059cbb906064015b604051602081830303815290604052915060e01b6020820180516001600160e01b038381831617835250505050610551565b505050565b6000546001600160a01b031633146102995760405163118cdaa760e01b8152336004820152602401610186565b600080546001600160a01b038381166001600160a01b0319831681178455604051919092169283917f8be0079c531659141344cd1fd0a4f28419497f9722a3daafe3b4186f6b6457e09190a35050565b6040516001600160a01b03848116602483015283811660448301526064820183905261054b9186918216906323b872dd9060840161045e565b50505050565b600080602060008451602086016000885af180610574576040513d6000823e3d81fd5b50506000513d9150811561058c578060011415610599565b6001600160a01b0384163b155b1561054b57604051635274afe760e01b81526001600160a01b0385166004820152602401610186565b6000602082840312156105d457600080fd5b5035919050565b6000602082840312156105ed57600080fd5b81356001600160a01b038116811461060457600080fd5b939250505056fea2646970667358221220d8617ab0365fb134ba7dbf6f492d6344dec5fab435286e69acfd3c57b0e84d6364736f6c63430008180033",
  "linkReferences": {},
  "deployedLinkReferences": {}
}