{
  "_format": "hh-sol-artifact-1",
  "contractName": "BasedRoomRewards",
  "sourceName": "contracts/BasedRoomRewards.sol",
  "abi": [
    {
      "inputs": [
        {
          "internalType": "address",
          "name": "rewardTokenAddress",
          "type": "address"
        },
        {
          "internalType": "address",
          "name": "xCaseAddress",
          "type": "address"
        },
        {
          "internalType": "address",
          "name": "xCaseStakingAddress",
          "type": "address"
        }
      ],
      "stateMutability": "nonpayable",
      "type": "constructor"
    },
    {
      "inputs": [
        {
          "internalType": "address",
          "name": "owner",
          "type": "address"
        }
      ],
      "name": "OwnableInvalidOwner",
      "type": "error"
    },
    {
      "inputs": [
        {
          "internalType": "address",
          "name": "account",
          "type": "address"
        }
      ],
      "name": "OwnableUnauthorizedAccount",
      "type": "error"
    },
    {
      "inputs": [],
      "name": "ReentrancyGuardReentrantCall",
      "type": "error"
    },
    {
      "inputs": [
        {
          "internalType": "address",
          "name": "token",
          "type": "address"
        }
      ],
      "name": "SafeERC20FailedOperation",
      "type": "error"
    },
    {
      "anonymous": false,
      "inputs": [
        {
          "indexed": true,
          "internalType": "address",
          "name": "user",
          "type": "address"
        },
        {
          "indexed": false,
          "internalType": "uint256",
          "name": "amount",
          "type": "uint256"
        }
      ],
      "name": "Claimed",
      "type": "event"
    },
    {
      "anonymous": false,
      "inputs": [
        {
          "indexed": true,
          "internalType": "address",
          "name": "sender",
          "type": "address"
        },
        {
          "indexed": false,
          "internalType": "uint256",
          "name": "amount",
          "type": "uint256"
        }
      ],
      "name": "Funded",
      "type": "event"
    },
    {
      "anonymous": false,
      "inputs": [
        {
          "indexed": true,
          "internalType": "address",
          "name": "previousOwner",
          "type": "address"
        },
        {
          "indexed": true,
          "internalType": "address",
          "name": "newOwner",
          "type": "address"
        }
      ],
      "name": "OwnershipTransferred",
      "type": "event"
    },
    {
      "inputs": [],
      "name": "REQUIRED_STAKE",
      "outputs": [
        {
          "internalType": "uint256",
          "name": "",
          "type": "uint256"
        }
      ],
      "stateMutability": "view",
      "type": "function"
    },
    {
      "inputs": [],
      "name": "REWARD_PER_DAY",
      "outputs": [
        {
          "internalType": "uint256",
          "name": "",
          "type": "uint256"
        }
      ],
      "stateMutability": "view",
      "type": "function"
    },
    {
      "inputs": [],
      "name": "claim",
      "outputs": [],
      "stateMutability": "nonpayable",
      "type": "function"
    },
    {
      "inputs": [
        {
          "internalType": "address",
          "name": "user",
          "type": "address"
        }
      ],
      "name": "eligibleStake",
      "outputs": [
        {
          "internalType": "uint256",
          "name": "",
          "type": "uint256"
        }
      ],
      "stateMutability": "view",
      "type": "function"
    },
    {
      "inputs": [
        {
          "internalType": "uint256",
          "name": "amount",
          "type": "uint256"
        }
      ],
      "name": "fund",
      "outputs": [],
      "stateMutability": "nonpayable",
      "type": "function"
    },
    {
      "inputs": [
        {
          "internalType": "address",
          "name": "user",
          "type": "address"
        }
      ],
      "name": "isEligible",
      "outputs": [
        {
          "internalType": "bool",
          "name": "",
          "type": "bool"
        }
      ],
      "stateMutability": "view",
      "type": "function"
    },
    {
      "inputs": [
        {
          "internalType": "address",
          "name": "",
          "type": "address"
        }
      ],
      "name": "lastClaim",
      "outputs": [
        {
          "internalType": "uint256",
          "name": "",
          "type": "uint256"
        }
      ],
      "stateMutability": "view",
      "type": "function"
    },
    {
      "inputs": [],
      "name": "owner",
      "outputs": [
        {
          "internalType": "address",
          "name": "",
          "type": "address"
        }
      ],
      "stateMutability": "view",
      "type": "function"
    },
    {
      "inputs": [
        {
          "internalType": "address",
          "name": "user",
          "type": "address"
        }
      ],
      "name": "pendingRewards",
      "outputs": [
        {
          "internalType": "uint256",
          "name": "",
          "type": "uint256"
        }
      ],
      "stateMutability": "view",
      "type": "function"
    },
    {
      "inputs": [],
      "name": "renounceOwnership",
      "outputs": [],
      "stateMutability": "nonpayable",
      "type": "function"
    },
    {
      "inputs": [],
      "name": "rewardToken",
      "outputs": [
        {
          "internalType": "contract IERC20",
          "name": "",
          "type": "address"
        }
      ],
      "stateMutability": "view",
      "type": "function"
    },
    {
      "inputs": [
        {
          "internalType": "address",
          "name": "newOwner",
          "type": "address"
        }
      ],
      "name": "transferOwnership",
      "outputs": [],
      "stateMutability": "nonpayable",
      "type": "function"
    },
    {
      "inputs": [],
      "name": "xCase",
      "outputs": [
        {
          "internalType": "contract IERC20",
          "name": "",
          "type": "address"
        }
      ],
      "stateMutability": "view",
      "type": "function"
    },
    {
      "inputs": [],
      "name": "xCaseStaking",
      "outputs": [
        {
          "internalType": "contract IXCaseStaking",
          "name": "",
          "type": "address"
        }
      ],
      "stateMutability": "view",
      "type": "function"
    }
  ],
  "bytecode": "0x60e060405234801561001057600080fd5b50604051610b89380380610b8983398101604081905261002f916101e0565b338061005657604051631e4fbdf760e01b8152600060048201526024015b60405180910390fd5b61005f81610174565b50600180556001600160a01b0383166100ba5760405162461bcd60e51b815260206004820152601560248201527f52657761726420746f6b656e2072657175697265640000000000000000000000604482015260640161004d565b6001600160a01b0382166101015760405162461bcd60e51b815260206004820152600e60248201526d1e10d054d1481c995c5d5a5c995960921b604482015260640161004d565b6001600160a01b0381166101575760405162461bcd60e51b815260206004820152601660248201527f7843415345207374616b696e6720726571756972656400000000000000000000604482015260640161004d565b6001600160a01b0392831660805290821660a0521660c052610223565b600080546001600160a01b038381166001600160a01b0319831681178455604051919092169283917f8be0079c531659141344cd1fd0a4f28419497f9722a3daafe3b4186f6b6457e09190a35050565b80516001600160a01b03811681146101db57600080fd5b919050565b6000806000606084860312156101f557600080fd5b6101fe846101c4565b925061020c602085016101c4565b915061021a604085016101c4565b90509250925092565b60805160a05160c05161091b61026e6000396000818161012401526104570152600081816101a601526104e30152600081816102380152818161039501526105b5015261091b6000f3fe608060405234801561001057600080fd5b50600436106100ea5760003560e01c80637e33cba61161008c578063ca1d209d11610066578063ca1d209d146101fc578063e32994f91461020f578063f2fde38b14610220578063f7c618c11461023357600080fd5b80637e33cba6146101d05780638141feb3146101e35780638da5cb5b146101eb57600080fd5b80635c16e15e116100c85780635c16e15e1461015e57806366e305fd1461017e5780636aa46f01146101a1578063715018a6146101c857600080fd5b806331d7a262146100ef5780634e71d92d14610115578063520c0b4f1461011f575b600080fd5b6101026100fd36600461080e565b61025a565b6040519081526020015b60405180910390f35b61011d6102dc565b005b6101467f000000000000000000000000000000000000000000000000000000000000000081565b6040516001600160a01b03909116815260200161010c565b61010261016c36600461080e565b60026020526000908152604090205481565b61019161018c36600461080e565b610405565b604051901515815260200161010c565b6101467f000000000000000000000000000000000000000000000000000000000000000081565b61011d610423565b6101026101de36600461080e565b610435565b610102600281565b6000546001600160a01b0316610146565b61011d61020a36600461083e565b61055e565b61010269021e19e0c9bab240000081565b61011d61022e36600461080e565b610615565b6101467f000000000000000000000000000000000000000000000000000000000000000081565b600061026582610405565b61027157506000919050565b6001600160a01b0382166000908152600260205260408120549081900361029b5750600292915050565b6000620151806102ab834261086d565b6102b59190610880565b9050806000036102c9575060009392505050565b6102d46002826108a2565b949350505050565b6102e4610653565b6102ed33610405565b61032d5760405162461bcd60e51b815260206004820152600c60248201526b4e6f7420656c696769626c6560a01b60448201526064015b60405180910390fd5b60006103383361025a565b90506000811161037d5760405162461bcd60e51b815260206004820152601060248201526f4e6f7468696e6720746f20636c61696d60801b6044820152606401610324565b3360008181526002602052604090204290556103c4907f00000000000000000000000000000000000000000000000000000000000000006001600160a01b0316908361067d565b60405181815233907fd8138f8a3f377c5259ca548e70e4c2de94f129f5a11036a15b69513cba2b426a9060200160405180910390a25061040360018055565b565b600069021e19e0c9bab240000061041b83610435565b101592915050565b61042b6106e1565b610403600061070e565b604051636021726760e01b81526001600160a01b0382811660048301526000917f000000000000000000000000000000000000000000000000000000000000000090911690636021726790602401602060405180830381865afa1580156104a0573d6000803e3d6000fd5b505050506040513d601f19601f820116820180604052508101906104c491906108b9565b6040516370a0823160e01b81526001600160a01b0384811660048301527f000000000000000000000000000000000000000000000000000000000000000016906370a0823190602401602060405180830381865afa15801561052a573d6000803e3d6000fd5b505050506040513d601f19601f8201168201806040525081019061054e91906108b9565b61055891906108d2565b92915050565b6105666106e1565b600081116105a85760405162461bcd60e51b815260206004820152600f60248201526e105b5bdd5b9d081c995c5d5a5c9959608a1b6044820152606401610324565b6105dd6001600160a01b037f00000000000000000000000000000000000000000000000000000000000000001633308461075e565b60405181815233907f5af8184bef8e4b45eb9f6ed7734d04da38ced226495548f46e0c8ff8d7d9a5249060200160405180910390a250565b61061d6106e1565b6001600160a01b03811661064757604051631e4fbdf760e01b815260006004820152602401610324565b6106508161070e565b50565b60026001540361067657604051633ee5aeb560e01b815260040160405180910390fd5b6002600155565b6040516001600160a01b038381166024830152604482018390526106dc91859182169063a9059cbb906064015b604051602081830303815290604052915060e01b6020820180516001600160e01b03838183161783525050505061079d565b505050565b6000546001600160a01b031633146104035760405163118cdaa760e01b8152336004820152602401610324565b600080546001600160a01b038381166001600160a01b0319831681178455604051919092169283917f8be0079c531659141344cd1fd0a4f28419497f9722a3daafe3b4186f6b6457e09190a35050565b6040516001600160a01b0384811660248301528381166044830152606482018390526107979186918216906323b872dd906084016106aa565b50505050565b600080602060008451602086016000885af1806107c0576040513d6000823e3d81fd5b50506000513d915081156107d85780600114156107e5565b6001600160a01b0384163b155b1561079757604051635274afe760e01b81526001600160a01b0385166004820152602401610324565b60006020828403121561082057600080fd5b81356001600160a01b038116811461083757600080fd5b9392505050565b60006020828403121561085057600080fd5b5035919050565b634e487b7160e01b600052601160045260246000fd5b8181038181111561055857610558610857565b60008261089d57634e487b7160e01b600052601260045260246000fd5b500490565b808202811582820484141761055857610558610857565b6000602082840312156108cb57600080fd5b5051919050565b808201808211156105585761055861085756fea26469706673582212209c7dea4350c285815f6014350856f3313d2bb3aac863548099171caa1f14e45364736f6c63430008180033",
  "linkReferences": {},
  "deployedLinkReferences": {}
}