{
  "_format": "hh-sol-artifact-1",
  "contractName": "XCaseStaking",
  "sourceName": "contracts/XCaseStaking.sol",
  "abi": [
    {
      "inputs": [
        {
          "internalType": "address",
          "name": "xCaseAddress",
          "type": "address"
        },
        {
          "internalType": "address",
          "name": "rewardTokenAddress",
          "type": "address"
        }
      ],
      "stateMutability": "nonpayable",
      "type": "constructor"
    },
    {
      "inputs": [
        {
          "internalType": "address",
          "name": "owner",
          "type": "address"
        }
      ],
      "name": "OwnableInvalidOwner",
      "type": "error"
    },
    {
      "inputs": [
        {
          "internalType": "address",
          "name": "account",
          "type": "address"
        }
      ],
      "name": "OwnableUnauthorizedAccount",
      "type": "error"
    },
    {
      "inputs": [],
      "name": "ReentrancyGuardReentrantCall",
      "type": "error"
    },
    {
      "inputs": [
        {
          "internalType": "address",
          "name": "token",
          "type": "address"
        }
      ],
      "name": "SafeERC20FailedOperation",
      "type": "error"
    },
    {
      "anonymous": false,
      "inputs": [
        {
          "indexed": true,
          "internalType": "address",
          "name": "previousOwner",
          "type": "address"
        },
        {
          "indexed": true,
          "internalType": "address",
          "name": "newOwner",
          "type": "address"
        }
      ],
      "name": "OwnershipTransferred",
      "type": "event"
    },
    {
      "anonymous": false,
      "inputs": [
        {
          "indexed": true,
          "internalType": "address",
          "name": "user",
          "type": "address"
        },
        {
          "indexed": false,
          "internalType": "uint256",
          "name": "amount",
          "type": "uint256"
        }
      ],
      "name": "RewardClaimed",
      "type": "event"
    },
    {
      "anonymous": false,
      "inputs": [
        {
          "indexed": false,
          "internalType": "uint256",
          "name": "amount",
          "type": "uint256"
        }
      ],
      "name": "RewardNotified",
      "type": "event"
    },
    {
      "anonymous": false,
      "inputs": [
        {
          "indexed": true,
          "internalType": "address",
          "name": "user",
          "type": "address"
        },
        {
          "indexed": false,
          "internalType": "uint256",
          "name": "amount",
          "type": "uint256"
        }
      ],
      "name": "Staked",
      "type": "event"
    },
    {
      "anonymous": false,
      "inputs": [
        {
          "indexed": true,
          "internalType": "address",
          "name": "user",
          "type": "address"
        },
        {
          "indexed": false,
          "internalType": "uint256",
          "name": "amount",
          "type": "uint256"
        }
      ],
      "name": "Unstaked",
      "type": "event"
    },
    {
      "inputs": [],
      "name": "ACC_PRECISION",
      "outputs": [
        {
          "internalType": "uint256",
          "name": "",
          "type": "uint256"
        }
      ],
      "stateMutability": "view",
      "type": "function"
    },
    {
      "inputs": [],
      "name": "accRewardPerShare",
      "outputs": [
        {
          "internalType": "uint256",
          "name": "",
          "type": "uint256"
        }
      ],
      "stateMutability": "view",
      "type": "function"
    },
    {
      "inputs": [],
      "name": "claim",
      "outputs": [],
      "stateMutability": "nonpayable",
      "type": "function"
    },
    {
      "inputs": [
        {
          "internalType": "uint256",
          "name": "amount",
          "type": "uint256"
        }
      ],
      "name": "notifyRewardAmount",
      "outputs": [],
      "stateMutability": "nonpayable",
      "type": "function"
    },
    {
      "inputs": [],
      "name": "owner",
      "outputs": [
        {
          "internalType": "address",
          "name": "",
          "type": "address"
        }
      ],
      "stateMutability": "view",
      "type": "function"
    },
    {
      "inputs": [
        {
          "internalType": "address",
          "name": "user",
          "type": "address"
        }
      ],
      "name": "pendingRewards",
      "outputs": [
        {
          "internalType": "uint256",
          "name": "",
          "type": "uint256"
        }
      ],
      "stateMutability": "view",
      "type": "function"
    },
    {
      "inputs": [],
      "name": "renounceOwnership",
      "outputs": [],
      "stateMutability": "nonpayable",
      "type": "function"
    },
    {
      "inputs": [
        {
          "internalType": "address",
          "name": "",
          "type": "address"
        }
      ],
      "name": "rewardDebt",
      "outputs": [
        {
          "internalType": "uint256",
          "name": "",
          "type": "uint256"
        }
      ],
      "stateMutability": "view",
      "type": "function"
    },
    {
      "inputs": [],
      "name": "rewardToken",
      "outputs": [
        {
          "internalType": "contract IERC20",
          "name": "",
          "type": "address"
        }
      ],
      "stateMutability": "view",
      "type": "function"
    },
    {
      "inputs": [
        {
          "internalType": "uint256",
          "name": "amount",
          "type": "uint256"
        }
      ],
      "name": "stake",
      "outputs": [],
      "stateMutability": "nonpayable",
      "type": "function"
    },
    {
      "inputs": [
        {
          "internalType": "address",
          "name": "",
          "type": "address"
        }
      ],
      "name": "stakedBalance",
      "outputs": [
        {
          "internalType": "uint256",
          "name": "",
          "type": "uint256"
        }
      ],
      "stateMutability": "view",
      "type": "function"
    },
    {
      "inputs": [],
      "name": "totalStaked",
      "outputs": [
        {
          "internalType": "uint256",
          "name": "",
          "type": "uint256"
        }
      ],
      "stateMutability": "view",
      "type": "function"
    },
    {
      "inputs": [
        {
          "internalType": "address",
          "name": "newOwner",
          "type": "address"
        }
      ],
      "name": "transferOwnership",
      "outputs": [],
      "stateMutability": "nonpayable",
      "type": "function"
    },
    {
      "inputs": [],
      "name": "unallocatedRewards",
      "outputs": [
        {
          "internalType": "uint256",
          "name": "",
          "type": "uint256"
        }
      ],
      "stateMutability": "view",
      "type": "function"
    },
    {
      "inputs": [
        {
          "internalType": "uint256",
          "name": "amount",
          "type": "uint256"
        }
      ],
      "name": "unstake",
      "outputs": [],
      "stateMutability": "nonpayable",
      "type": "function"
    },
    {
      "inputs": [],
      "name": "xCase",
      "outputs": [
        {
          "internalType": "contract IERC20",
          "name": "",
          "type": "address"
        }
      ],
      "stateMutability": "view",
      "type": "function"
    }
  ],
  "bytecode": "0x60c060405234801561001057600080fd5b50604051610d4f380380610d4f83398101604081905261002f91610193565b338061005657604051631e4fbdf760e01b8152600060048201526024015b60405180910390fd5b61005f81610127565b50600180556001600160a01b0382166100ba5760405162461bcd60e51b815260206004820152601660248201527f7843415345206164647265737320726571756972656400000000000000000000604482015260640161004d565b6001600160a01b0381166101105760405162461bcd60e51b815260206004820152601d60248201527f52657761726420746f6b656e2061646472657373207265717569726564000000604482015260640161004d565b6001600160a01b039182166080521660a0526101c6565b600080546001600160a01b038381166001600160a01b0319831681178455604051919092169283917f8be0079c531659141344cd1fd0a4f28419497f9722a3daafe3b4186f6b6457e09190a35050565b80516001600160a01b038116811461018e57600080fd5b919050565b600080604083850312156101a657600080fd5b6101af83610177565b91506101bd60208401610177565b90509250929050565b60805160a051610b4861020760003960008181610245015281816104c4015261082c0152600081816101b50152818161038001526106350152610b486000f3fe608060405234801561001057600080fd5b50600436106101005760003560e01c80636aa46f0111610097578063939d623711610066578063939d623714610211578063a694fc3a1461021a578063f2fde38b1461022d578063f7c618c11461024057600080fd5b80636aa46f01146101b0578063715018a6146101ef578063817b1cd2146101f75780638da5cb5b1461020057600080fd5b80633c6b16ab116100d35780633c6b16ab146101555780634e71d92d146101685780635873eb9b14610170578063602172671461019057600080fd5b80632b6fdc7e146101055780632e17de781461012157806331d7a2621461013657806332fcd96614610149575b600080fd5b61010e60045481565b6040519081526020015b60405180910390f35b61013461012f366004610a2c565b610267565b005b61010e610144366004610a45565b6103f1565b61010e64e8d4a5100081565b610134610163366004610a2c565b61048f565b61013461057c565b61010e61017e366004610a45565b60066020526000908152604090205481565b61010e61019e366004610a45565b60056020526000908152604090205481565b6101d77f000000000000000000000000000000000000000000000000000000000000000081565b6040516001600160a01b039091168152602001610118565b6101346105dd565b61010e60035481565b6000546001600160a01b03166101d7565b61010e60025481565b610134610228366004610a2c565b6105ef565b61013461023b366004610a45565b61070d565b6101d77f000000000000000000000000000000000000000000000000000000000000000081565b61026f610748565b600081116102985760405162461bcd60e51b815260040161028f90610a6e565b60405180910390fd5b336000908152600560205260409020548111156102ec5760405162461bcd60e51b8152602060048201526012602482015271496e73756666696369656e74207374616b6560701b604482015260640161028f565b6102f4610772565b6102fd336107c8565b336000908152600560205260408120805483929061031c908490610aad565b9250508190555080600360008282546103359190610aad565b90915550506002543360009081526005602052604090205464e8d4a510009161035d91610ac6565b6103679190610add565b336000818152600660205260409020919091556103af907f00000000000000000000000000000000000000000000000000000000000000006001600160a01b0316908361089b565b60405181815233907f0f5bb82176feb1b5e747e28471aa92156a04d9f3ab9f45f28e2d704232b93f75906020015b60405180910390a26103ee60018055565b50565b600254600354600091901580159061040b57506000600454115b1561043d5760035464e8d4a510006004546104269190610ac6565b6104309190610add565b61043a9082610aff565b90505b6001600160a01b03831660009081526006602090815260408083205460059092529091205464e8d4a5100090610474908490610ac6565b61047e9190610add565b6104889190610aad565b9392505050565b6104976108ff565b600081116104b75760405162461bcd60e51b815260040161028f90610a6e565b6104ec6001600160a01b037f00000000000000000000000000000000000000000000000000000000000000001633308461092c565b6003546000036105135780600460008282546105089190610aff565b909155506105469050565b60035461052564e8d4a5100083610ac6565b61052f9190610add565b600260008282546105409190610aff565b90915550505b6040518181527ff9a5da3a173eca8cd77c02ece3ff1467b8aa461ed3822201817f2d72fbc542839060200160405180910390a150565b610584610748565b61058c610772565b610595336107c8565b6002543360009081526005602052604090205464e8d4a51000916105b891610ac6565b6105c29190610add565b336000908152600660205260409020556105db60018055565b565b6105e56108ff565b6105db600061096b565b6105f7610748565b600081116106175760405162461bcd60e51b815260040161028f90610a6e565b61061f610772565b610628336107c8565b61065d6001600160a01b037f00000000000000000000000000000000000000000000000000000000000000001633308461092c565b336000908152600560205260408120805483929061067c908490610aff565b9250508190555080600360008282546106959190610aff565b90915550506002543360009081526005602052604090205464e8d4a51000916106bd91610ac6565b6106c79190610add565b33600081815260066020526040908190209290925590517f9e71bc8eea02a63969f509818f2dafb9254532904319f9dbda79b67bd34a5f3d906103dd9084815260200190565b6107156108ff565b6001600160a01b03811661073f57604051631e4fbdf760e01b81526000600482015260240161028f565b6103ee8161096b565b60026001540361076b57604051633ee5aeb560e01b815260040160405180910390fd5b6002600155565b600060035411801561078657506000600454115b156105db5760035464e8d4a510006004546107a19190610ac6565b6107ab9190610add565b600260008282546107bc9190610aff565b90915550506000600455565b6001600160a01b038116600090815260066020908152604080832054600254600590935290832054909164e8d4a51000916108039190610ac6565b61080d9190610add565b6108179190610aad565b90508015610897576108536001600160a01b037f000000000000000000000000000000000000000000000000000000000000000016838361089b565b816001600160a01b03167f106f923f993c2149d49b4255ff723acafa1f2d94393f561d3eda32ae348f72418260405161088e91815260200190565b60405180910390a25b5050565b6040516001600160a01b038381166024830152604482018390526108fa91859182169063a9059cbb906064015b604051602081830303815290604052915060e01b6020820180516001600160e01b0383818316178352505050506109bb565b505050565b6000546001600160a01b031633146105db5760405163118cdaa760e01b815233600482015260240161028f565b6040516001600160a01b0384811660248301528381166044830152606482018390526109659186918216906323b872dd906084016108c8565b50505050565b600080546001600160a01b038381166001600160a01b0319831681178455604051919092169283917f8be0079c531659141344cd1fd0a4f28419497f9722a3daafe3b4186f6b6457e09190a35050565b600080602060008451602086016000885af1806109de576040513d6000823e3d81fd5b50506000513d915081156109f6578060011415610a03565b6001600160a01b0384163b155b1561096557604051635274afe760e01b81526001600160a01b038516600482015260240161028f565b600060208284031215610a3e57600080fd5b5035919050565b600060208284031215610a5757600080fd5b81356001600160a01b038116811461048857600080fd5b6020808252600f908201526e105b5bdd5b9d081c995c5d5a5c9959608a1b604082015260600190565b634e487b7160e01b600052601160045260246000fd5b81810381811115610ac057610ac0610a97565b92915050565b8082028115828204841417610ac057610ac0610a97565b600082610afa57634e487b7160e01b600052601260045260246000fd5b500490565b80820180821115610ac057610ac0610a9756fea264697066735822122065cc58b749197e326157a842c77eced5c5470256bde4d633b25e7ac4aa21028664736f6c63430008180033",
  "linkReferences": {},
  "deployedLinkReferences": {}
}